:10000000E07F0010051B0000351B0000371B0000BF
:10001000391B00003B1B00003D1B000000000000DE
:100020000000000000000000000000003F1B000076
:10003000411B000000000000431B0000451B0000A6
:10004000471B0000471B0000471B0000471B000028
:10005000471B0000471B0000471B0000471B000018
:10006000471B0000471B0000471B0000471B000008
:10007000471B0000471B0000471B0000471B0000F8
:10008000471B0000471B0000471B0000471B0000E8
:10009000471B0000471B0000471B0000471B0000D8
:1000A000471B0000471B0000471B0000471B0000C8
:1000B000471B0000471B0000471B0000471B0000B8
:1000C000471B0000471B0000471B0000000000000A
:1000D0000000000000000000000000000000000020
:1000E0000000000000000000000000000000000010
:1000F0000000000000000000000000000000000000
:1001000000000000000000000000000000000000EF
:1002F000000000000000000000000000FFFFFFFF02
:1003000010B5054C237833B9044B13B10448AFF34F
:1003100000800123237010BDC80B001000000000F6
:1003200038C8000008B5034B1BB103490348AFF3BD
:10033000008008BD00000000CC0B001038C8000091
:10034000154B002B08BF134B9D46A3F5803A0021A7
:100350008B460F461348144A121A04F0ABFE0F4B9B
:10036000002B00D098470E4B002B00D09847002060
:10037000002104000D000D48002802D00C4800F0B8
:10038000B6FD04F03DFD2000290000F0FBFE00F06A
:10039000ABFD00BF00000800E07F0010000000007F
:1003A00075110000C80B0010080F0010EF0E0000C0
:1003B00000000000704700000F4B70B5064618683B
:1003C00008F05EFB0AA3D3E9002308F0B1FB044662
:1003D00030460D4608F054FB02460B46204629469F
:1003E00008F0A6FB08F09CFE70BD00BFAFF30080D4
:1003F000182D4454FB211940CC0000100368184705
:1004000008B10B6803607047704710B5044600F0F0
:1004100095FE204610BD10B5044601F08FFD237AED
:100420001BB101F0EDFC0023237201F09DFD20467D
:1004300010BDB0F1804F08B501D302F05FF9800024
:10044000BDE8084000F066BE38B504460D4601F030
:1004500075FD237A1BB901F0B1FC012323722946F3
:10046000204600F0F7FEBDE8384001F07DBD0000F9
:100470002DE9F843284B1B7813B10022274B1A6053
:10048000274C2368013304D12C222649264801F049
:1004900037FD63691D6863681D4005D0002123484E
:1004A000FFF7D2FFBDE8F8831C4C214E2268336869
:1004B000204953F82200096808F090FF08F0E0FA9C
:1004C0001D4F80463868894608F0DAFA00221B4B37
:1004D00008F02EFB02460B464046494608F070F9EC
:1004E00008F01EFE01461148FFF7AEFF01F026FDA1
:1004F0000E4800F0D9FE804601F036FDD6E9001224
:100500002368521A0133B3EBA20F2360C7F80080AF
:1005100028BF2560C6E700BF000C0010E40B0010E8
:10052000500C001080B60000BFB60000040C001094
:10053000F40B0010D4000010E80B00100000E03FA6
:10054000C36810B504460BB19B689847204610BDA0
:1005500038B505460446064B45F8283B01F043FFF5
:100560002846FFF7EDFF204601F010FC204638BD7D
:1005700014C0000010B50446FFF7EAFF204600F063
:10058000DDFD204610BD38B5CB6804460D460BB1E5
:100590005B689847EB682046E36038BD026810B599
:1005A000031D044602B9036022689A4204D05D220A
:1005B0000249034801F0A4FC206810BDD7B6000032
:1005C000F9B6000008B50248FFF7E8FF08BD00BF14
:1005D000680D001008B50248FFF7E0FF08BD00BF36
:1005E000680D001010B50446006808B100F0A6FDC3
:1005F000204610BD10B50446FFF7F4FF204610BD9D
:10060000814210B51346A1EB000405D001462246F5
:10061000184604F0EDFC0346181910BD81422DE97F
:10062000F04104460D461DD0D1E900682268A36858
:10063000A8EB0607B8109B1AB0EBA30F15D908B1A9
:10064000FFF7F7FE0246054641463046FFF7D8FF62
:10065000206808B100F072FD25603D44A560236864
:100660001F4467602046BDE8F08163689B1AB0EBC9
:10067000A30F04D841463046FFF7C2FFEFE7F11859
:100680003046FFF7BDFFD4E90002D5E90031101A6A
:100690001844F1E72DE9F843D0E901639E4205468D
:1006A000894606D00EB10B68336004366E60BDE833
:1006B000F8830368A6EB03085FEAA80414BF234687
:1006C0000123E41824D2B4F1804F21D21CB3204678
:1006D000FFF7AFFE074617EB080F18BFD9F8003039
:1006E000314618BF47F808303A462868FFF788FFB8
:1006F0006968021D3046FFF783FF0646286808B187
:1007000000F01CFD07EB8404C5E90076AC60CEE781
:100710006FF04044DBE72746DDE7F7B500240546E8
:100720000E461746C0E900448460D6E900135B1A00
:10073000B4EBA30F09D251F82400B84701A90190E6
:100740002846FFF7A7FF0134EFE7284603B0F0BDC6
:10075000F7B5002405460E461746C0E900448460FC
:10076000D6E900239B1AB4EBA30F0DD252F8240054
:1007700008F086F9B84708F0D3FC01A90190284693
:10078000FFF788FF0134EBE7284603B0F0BD70B5F2
:10079000D1E90035ED1A00230446C0E90033836037
:1007A000A8100E4601D0FFF744FEC4E9000005443E
:1007B000A5600246D6E90001FFF722FF60602046EF
:1007C00070BD000080B56B4D8EB029684FF07E5033
:1007D00008F0B8FE0023CDE900330293002307465A
:1007E0000EACDFF8CC8144F8103D41460A9808F081
:1007F0009DFF064648B121466846FFF74BFF0A9821
:10080000394608F0E3FC0A90EFE7694603A8FFF7D2
:10081000BEFF594A03A906A8FFF77FFF574A06A95A
:100820002046FFF795FF21465548FFF7F7FE204683
:10083000FFF7D8FE06A8FFF7D5FE03A8FFF7D2FE04
:1008400029684FF07E5008F07DFE074601F076FBE8
:1008500039464C4800F060FD01F086FB102231461D
:1008600006A804F027FC484B29680693474B4FF035
:100870007E50099308F066FE054606A92046FFF75C
:1008800082FE4349284608F0A9FD08F0CBFF064642
:100890000F4601F053FB3F4B5A6B22B993F83830A7
:1008A0000BB101F08BFA3C48FFF74AFE21463A486B
:1008B000FFF769FE32463B46364801F07CFD01F009
:1008C00053FB2046FFF73CFE06A8FFF739FE4FF02A
:1008D000824800264FF07F57304D2846FFF75EFED6
:1008E0002F4800F053F981462846FFF757FE41464E
:1008F000484608F073FD08F037FF08F0AFF83246BD
:100900003B4608F015F90022264B08F011F908F0D3
:1009100007FC254B6946186003A8FFF738FF03A9B9
:1009200006A8154AFFF7F9FE144A06A92046FFF764
:100930000FFF21461248FFF771FE2046FFF752FED7
:1009400006A8FFF74FFE03A8FFF74CFE04F0FCFBE0
:10095000434203F01F0300F01F0058BF584208F045
:100960007DF80022114B08F0E3F808F0D9FB01F004
:100970004FFEB2E7D0000010B9030000413800007C
:10098000F40B0010040C00107104000074B6000099
:1009900000247449100C0010380C0010680D001071
:1009A000F00B001000408F40CC0000100000903F82
:1009B0000AD7A33B2DE9F0410024274B274D1846C9
:1009C0001822002104F076FB254F0022254901F072
:1009D00095F92C7201F0B2FA2846234900F0ACFCDC
:1009E00001F0C2FA28463D46204E2149324600F029
:1009F00079FADFF8A0801F4B404645F8043BFFF72B
:100A0000CDFD1D49284600F07BF84046FFF7C6FDA6
:100A100032461A49384600F065FA1948194D3246EF
:100A20001949C0E90044846000F05CFA284601F0EE
:100A300085F92846154B214640F8283B102204F042
:100A400039FB0123324685F838302846BDE8F041AD
:100A50000F4900F047BA00BF500C0010040C001002
:100A6000EC0B001044C0092045C00920C80000104C
:100A70001704000064B600003FC00920B503000061
:100A8000F40B0010100C0010F505000014C000005D
:100A900051050000680D00100C4B00781A6822F018
:100AA000FF021A600122196882400A431A601A681C
:100AB00042F080721A6058680028FCDA1A68C0F3A5
:100AC0000B1022F080721A60704700BF0040034094
:100AD00070B50646FFF7E0FF04463046FFF7DCFF3F
:100AE00005463046FFF7D8FFAC4282BF23462C466E
:100AF0001D46A84228BF2846A04238BF204670BDE8
:100B000038B50C4605461949204601F0E1F9C0B256
:100B1000FF28287004D12F221549164801F0F0F95A
:100B2000154B2046D3F8C420104942F48052C3F834
:100B3000C420D3F8A82122F04072C3F8A821D3F82A
:100B4000A82142F08072C3F8A8210C4B1A680C4B04
:100B500013440C4A93FBF2F3013B1B020A4A43F491
:100B600000131360BDE8384001F068B910B7000009
:100B70007CB70000E9B7000000C00F40F80100108A
:100B80003F5DC600405DC6000040034008B5FFF76A
:100B90009FFF08F0CBFB024908F020FC08BD00BF16
:100BA00001088039431C10B5044604D115220649BA
:100BB000064801F0A5F92046002100F0EBFA0120DB
:100BC00004F01F04A04010BD01B80000C4B600002E
:100BD00038B505464B1C0C4629600FD00846FFF778
:100BE000E1FF24F01F0404F11803EB6004F11C037F
:100BF0002B6104F1140368606B61AC6038BD006860
:100C000000F0EEBA38B50368044601330D4604D14E
:100C10002C220A490A4801F073F915B1012D07D0B9
:100C200038BDA2686168136823EA0103136038BD08
:100C3000A268616813680B43F8E700BF01B80000C1
:100C4000BFB6000038B50368044601330D4604D131
:100C500024220549054801F053F9636815B1E2689B
:100C6000136038BD2269FBE76AB80000BFB6000018
:100C700010B586B001F062F91449684601F057F8E2
:100C8000042401216846FFF7DDFF962001F0CCFC2B
:100C900000216846FFF7D6FF962001F0C5FC013C15
:100CA000EFD1042401216846FFF7CCFF4FF4C87050
:100CB00001F0BAFC00216846FFF7C4FF4FF4C8708A
:100CC00001F0B2FC013CEDD1DAE700BF32C00920EF
:100CD00070B50D460446A0B001F030F92B4622460F
:100CE0008021684604F020FC051E03DC01F03CF97D
:100CF00020B070BD094B1B6823B9094A09490A484D
:100D000000F04AFE0024084E1DF80410304601345D
:100D100000F0A6FDA542F7D1E8E700BF800C001067
:100D200003C0092002C00920D80E00100FB407B577
:100D300004A951F8040B0191FFF7CAFF03B05DF855
:100D400004EB04B0704700207047036801221B6960
:100D5000002118470022036811461B6918470368E1
:100D60001B69184703689B69184703689B6A184703
:100D700000290CBF6FF01800002070470120704759
:100D800070476FF01C0070476FF01500704701202E
:100D90007047002070477047F8B515460C46064E60
:100DA0008F18BC4205D014F8011B304600F058FDE6
:100DB000F7E72846F8BD00BFD80E001038B58DB251
:100DC00015F0010405D0084800F01EFD041C18BFF2
:100DD0000124EB0605D5044800F01CFD08B144F0E1
:100DE0001004204638BD00BFD80E001010B50446D0
:100DF00004F03AF8204610BD10B50C462AB104485C
:100E000000F0E8FC2070012010BD104610BD00BFAE
:100E1000D80E001038B51D46074B04460360074B3B
:100E20001B6833B9064800F0B7FD2946044800F0B6
:100E30009BFB204638BD00BFFCB80000800C0010B2
:100E4000D80E00100020704700207047002307B51F
:100E50001A4600930349044801F0B2FB03B05DF861
:100E600004FB00BFE8B800002901018008B501209B
:100E700000F03AF80C4A10B513681844EFF30881F3
:100E8000884205D30C22094B4FF0FF301A6010BD89
:100E900007490C6824B10749096821448842F1D206
:100EA0001060184610BD00BFD8010010040F0010DC
:100EB000700C0010740C0010094C08B5236805462E
:100EC000986803F0F9FE2368D86803F0F5FE01F096
:100ED000B0FB08B101F0AFFB0DB1FFF7C9FEFEE7B3
:100EE0000C0200100120704708B5FFF7E5FF012054
:100EF00070477047704708B5FFF7FBFF08BD08B59E
:100F0000FFF7F8FF08BD000010B50378044603F0B2
:100F10000303012B0CD02BB140F24A52054906487D
:100F200000F0EEFF2378012043F00203237010BD90
:100F3000002010BD61B90000B8B9000010B50378F9
:100F4000044603F00303022B05D040F25252054938
:100F5000054800F0D5FF237823F0030343F0010395
:100F6000237010BD61B90000DEB900003F2870B5E4
:100F700004462FDC184D55F820305A1C13D1022896
:100F800011DCFFF761FF034658B92046FFF75AFF0F
:100F9000034630B9114E3378BFF35B8FDB0704D5BE
:100FA0000F4B45F82430184670BD3046FFF7ACFFB4
:100FB0000028F5D04FF416530A4A0B490848FFF7AA
:100FC00029FF3046FFF7BAFF084A09490448FFF7EE
:100FD00089FFE5E70023E6E7D8000010680C001061
:100FE0006C0C001003C0092002C00920C8000010CA
:100FF000970D000038B505460024FFF7B7FF0B4BEF
:1010000043F8254030B903F011FD092303604FF088
:10101000FF3038BD03685B699847051E04DA03F0AA
:1010200005FD6D420560F2E7204638BDD80000108E
:10103000FFF7E0BF38B50C461546FFF797FF38B904
:1010400003F0F4FC092303604FF0FF34204638BD61
:1010500003682146DB682A469847041EF6DA03F047
:10106000E5FC64420460EFE708B5131E06DA03F0FE
:10107000DDFC162303604FF0FF3008BD04D0FFF7FE
:10108000D9FF40EAE07008BD184608BD38B50C46E7
:101090001546FFF76BFF38B903F0C8FC092303605E
:1010A0004FF0FF34204638BD036821469B682A462E
:1010B0009847041EF6DA03F0B9FC64420460EFE7D7
:1010C000002A08B503DBBDE80840FFF7DFBF03F0E7
:1010D000ADFC162303604FF0FF3008BD38B50C4659
:1010E0001546FFF743FF38B903F0A0FC092303605E
:1010F0004FF0FF34204638BD036821461B692A465D
:101100009847041EF6DA03F091FC64420460EFE7AE
:10111000FFF7E4BF37B5054603F09EFE044630B93D
:10112000009003462A460349034801F049FA204645
:1011300003B030BD44B900001F01018003F094BE2C
:101140007047704770470000074B10B59A68074911
:101150000748043A52F8044F41F8044F8142F9D14C
:101160004FF080529A6010BD00ED00E0FCFFFF0FD1
:10117000C000001008B5FFF7E7FFFFF7E2FFFFF739
:10118000E1FF08BD08B5FFF7DBFFBDE80840FFF74A
:1011900019BB000038B5431C04460D4604D1152286
:1011A0000D490E4800F0ACFE04F16040A0F51C2093
:1011B0004200030903209B0003F1804303F5303311
:1011C000196802F01E02904021EA000119601968B6
:1011D00095400D431D6038BD1DBA0000C4B6000027
:1011E00038B5431C05460C4604D12022174918483F
:1011F00000F086FE05F16040A0F51C2043099B002D
:1012000003F1804303F530339D6EC4F3800100F099
:101210001F0201FA02F225EA02059D669D6E2A432D
:101220009A6691B94200030903209B0003F18043B1
:1012300003F53033196C02F01E02904021EA0001E0
:101240001964196C94400C431C6438BD1DBA00002D
:10125000C4B6000070B50D4606460021284608F0C9
:101260005BFAE8B94FF07E51284608F073FA08B1EE
:101270004FF07E550B4CA06908F058F8294608F04D
:10128000ADF808F097FAA36931799842336808BF3E
:10129000013018600123226D8B401343236570BD1C
:1012A0000025E7E70080014038B5036818680B4B5C
:1012B0009D6908F03BF80446284608F037F80146D7
:1012C000204608F03FF94FF07E51044608F042FAFC
:1012D00008B14FF07E54204638BD00BF0080014069
:1012E0000B4B10B51A680B4B4A43022159609A61A7
:1012F000996931B1006801689C695143B1FBF4F10F
:1013000001601A6D42F001021A6509225A6010BD8F
:10131000780C00100080014010B5044608460549CD
:1013200008F05CF808F020FA01462046BDE81040BD
:10133000FFF7D6BF0024744970B50E460546204914
:10134000304600F0C5FDC4B2FF2C04D13C221D493B
:101350001D4800F0D5FD1D4B2C7153F82430083486
:101360002B601B4B2846D3F8C42042F04002C3F840
:10137000C420D3F8A82122F44052C3F8A8210023A6
:10138000144AD360022353610123D16C03FA04F49D
:101390000C43114BD4641B68104A44F62061B3FB24
:1013A000F2F30F4A1360FFF79BFF28460021FFF777
:1013B00051FF3046BDE87040014900F03FBD00BF1D
:1013C00084BA000038BB0000A3BB0000DC010010A1
:1013D00000C00F4000800140F801001000093D00EE
:1013E000780C001030B52A4B04689C4224D006DCEF
:1013F000A3F580439C420CD000231D460BE0254BF7
:101400009C421CD003F580439C42F5D1224B082519
:1014100001E00525214BAAB10122606802FA01F121
:10142000014361601E4905F110008968AA4041F836
:1014300020301C4B1A6030BD1B4B0625EBE71B4BC5
:101440000725E8E701290AD042683820184B00FB3D
:10145000023292F8363092F83520D34216D1012369
:1014600003FA01F2B1FA81F16068490920EA020049
:101470006060626803FA01F1114207D1094AAB408A
:10148000C2F88030BFF34F8FBFF36F8F30BD00BF06
:1014900000000140008009405515000019150000AA
:1014A00000ED00E000E100E02D1500004115000016
:1014B000840C0010012810B408D0022808D010BCF9
:1014C0007047506820F00100506010E003460EE0C5
:1014D00038230F4803FB01035868013006D0186910
:1014E0009C68046093F83630002BEAD00023382241
:1014F00051430748421840580028E0D01BB992F8E1
:101500003620002ADBD0034A1946126810BC104767
:10151000840C00107C0C0010034A00219068C0F37A
:101520004200FFF7C7BF00BF00C00040034A0121CF
:101530009068C0F34200FFF7BDBF00BF000001404C
:10154000034A02219068C0F34200FFF7B3BF00BF17
:1015500000800940034A03219068C0F34200FFF76E
:10156000A9BF00BF00C009402DE9F04F754A0E46E3
:1015700001688DB09142059004DD9B227249734849
:1015800000F0BEFC059B72491A688A4200F09C80FC
:1015900079DCA1F580418A4200F088806D4AD2F85A
:1015A00000903201B9FBF2F5ACB202FB1595002DAB
:1015B00000F0BF804FEA490308934FEA890307937D
:1015C000079A01270392002233462146DDF820B016
:1015D000CDF810900696029701921A464FF0000837
:1015E0005FFA87FABBF1000FABBF0398BBFBF2F4C5
:1015F000B0FBF2F42409A8BF64090134C4F34F041A
:101600005FFA88F5002C00F09780B8F1000F02D047
:10161000012C08BF022407EB080060430A93049BD7
:10162000C000B3FBF0F00130C6EB50000B92099103
:1016300003F0F8F9069B099998420B9A0A9B62DA23
:1016400086425BD10F2F07D12146CDF808A0019526
:101650000C46DDF808A0019D059B45EA0A151B68AC
:10166000EDB21A7B42F080021A73C4F30722E4B28F
:101670001A711C7083F828501A7B02F07F021A73CB
:101680000DB0BDE8F08F34498A4229D001F5804180
:101690008A4283D1314AD2F8AC1121F44021C2F8F8
:1016A000AC11D2F8AC1141F4802124E02B4AD2F8DD
:1016B000A81121F0C001C2F8A811D2F8A81141F078
:1016C0004001C2F8A81169E7244AD2F8A81121F410
:1016D0004071C2F8A811D2F8A81141F48071F0E766
:1016E0001E4AD2F8AC1121F44031C2F8AC11D2F844
:1016F000AC1141F48031C2F8AC114FE7214606909D
:10170000CDF808A0019508F101085FFA88F050456E
:101710003244FFF467AF0F2F9AD0049A07984A44D7
:101720000492089A01379344039A33440244039283
:1017300053E74FF0010A8FE7B8F1000F0CBF012407
:10174000022468E700C00940DCBC000047BD00007F
:1017500000000140F80100100080094000C00F4067
:10176000F8B55E1E012E07460C46154604D9FB222D
:101770001349144800F0C4FB053C032C04D9FC2297
:101780000F49114800F0BCFB042D04D9FE220C497E
:101790000E4800F0B5FB013DEDB2032D8BBF0023D9
:1017A00001221A460A4B44EA860498BF5B5744EA72
:1017B000C204396844EA0314E4B20C73F8BD00BFF4
:1017C000DCBC000060BD000085BD0000A8BD0000BD
:1017D000B6BB000010B50268137DDB07FCD53824CA
:1017E00043680848117804FB03035868C9B2013004
:1017F00006D058699B680360536843F00103536047
:10180000084610BD840C00100368187D00F001002C
:10181000704700003821114A436801FB0323DA694D
:10182000013209D01A6B1B6A12681A4214D103687C
:10183000187DC0F3801070470268127D920604D5AF
:101840000022012083F83420704793F834000F28D9
:101850008CBF00200120704700207047840C0010CE
:1018600038B504460D462046FFF7D4FF0028FAD0CD
:1018700038212368EDB21D706368044A01FB03231D
:1018800093F83420013283F8342038BD840C0010E2
:101890002DE9F84F9A463C4C03680546A34218BF11
:1018A00000248946904647681CB1237C03F03F031F
:1018B000237438234FF0FF32344E284603FB07636E
:1018C000DA615A60002283F835201146FFF78AFD5D
:1018D000B9F1000F55D02E49404600F0EDFA2D49E0
:1018E0008346504600F0E8FAA9F10203012B1BD809
:1018F000BAF1FF3F0BD0244B98420DD164B1237C49
:10190000244943F080032374504600F097FAB9F15C
:10191000030F0CD0BDE8F88F382000FB076051465C
:101920001C3000F0E8F9F2E7B9F1010F29D1B8F164
:10193000FF3F01D1BDE8F88F07222B681A72124BC6
:101940009B450AD14CB1237C404643F040032374AD
:101950000F49BDE8F84F00F071BA382404FB076066
:1019600041460022043000F0CBF901226B68284682
:1019700004FB036686F835200021BDE8F84FFFF729
:1019800031BDBDE8F88F00BF00000140840C00109D
:10199000E0BB0000BCBB00002DE9F8430F46054644
:1019A0004D493846164600F093FA4C4904463046F5
:1019B00000F08EFA0146204600F064FA411C04460D
:1019C00004D15C224649474800F09AFA464B2C6005
:1019D0009C4263D04DD8A3F580439C4256D04FF033
:1019E00001094FF0000884F808904FF4165128467A
:1019F000C4F80480FFF7B8FD42464B46082128464C
:101A0000FFF7AEFE3449384600F018FA3349304645
:101A100000F014FA7A1C03D041463846FFF7E0FB89
:101A2000731C03D000213046FFF7DAFB2E4B9C429B
:101A30004CD03FD8A3F580439C4244D038216A68FB
:101A40002A4B284601FB02324FF0FF33002153603E
:101A5000D3611A46FFF71CFF254B9C423AD1012265
:101A6000244B29461A6024480822BDE8F84303F0B5
:101A700049BA224B9C4217D003F580439C42AED119
:101A80001F4AD2F8C43043F0007304E01C4AD2F875
:101A9000C43043F00803C2F8C430A0E7184AD2F8B3
:101AA000C43043F01003F6E7154AD2F8C43043F0CF
:101AB0008073F0E7114B9C420AD003F580439C42AF
:101AC000BCD1032300E000236B60B7E70123FBE7F1
:101AD0000223F9E7BDE8F88370BC000004BC0000F5
:101AE000DCBC00002CBE000000000140840C001093
:101AF00000C00040800C0010D80E0010008009408B
:101B000000C00F400649074A074B9A42BEBF51F832
:101B1000040B42F8040BF8E70448804704480047E8
:101B200088CA0000C8000010C40B0010491B000048
:101B300041030000FEE7FEE7FEE7FEE7FEE7FEE703
:101B4000FEE7FEE7FEE7FEE72022264BC3F8A021D2
:101B5000D3F8A021920603D5D3F8A0215006FBD5D7
:101B60000222C3F8042100220120C3F8A821C3F8EF
:101B7000AC210B22C3F80C01AA21C3F88420552202
:101B8000C3F88C10C3F88C20C3F88000C3F88C1005
:101B9000C3F88C20134B1A46D3F888104901FBD5A3
:101BA0000321C3F88010AA21C3F88C105521C3F873
:101BB0008C10D2F8883013F0407FFAD00523C2F899
:101BC0000831094BC2F8C4300023C2F8C831136889
:101BD00023F4704323F03A0343F4405343F03A03B1
:101BE0001360704700C00F40DE872804004870472C
:101BF0003CBE0000014B9868704700BF00400940A0
:101C0000034B98615A6942F001025A61704700BF64
:101C1000004009401022024BC3F80021704700BF6A
:101C200000E100E0024A536923F001035361704769
:101C300000400940114B187808B1FFF7F3BF0121AC
:101C40000F4A1970D2F8C43043F40003C2F8C4300C
:101C5000A2F5D022106702200A4B1B6850600A4888
:101C6000B3FBF0F3013BD360084B51609B68084A1B
:101C70001A651022074B1A60704700BF640D0010F0
:101C800000C00F40F801001000093D0000ED00E029
:101C9000A91D000000E100E00122014B1A6070471D
:101CA0000040094038B50368044601330D4604D1AD
:101CB00024220549054800F023F9636815B1E2685C
:101CC000136038BD2269FBE76AB80000BFB60000A8
:101CD00070B50E4604461546FEF77AFF013609D068
:101CE00020460021FEF78EFF29462046BDE87040C1
:101CF000FEF785BF70BD0322FFF7EABFFFF7E8BF1D
:101D000070B50E4604461546FEF762FF01360DD04B
:101D100029462046FFF7C6FF20460121FEF772FF45
:101D20002046BDE870400221FEF769BF70BD002269
:101D3000FFF7E6BF03689B6818470000094B10B522
:101D4000002203600023C0E90223002303614361F2
:101D5000044600F025F80449A06100F087FA204607
:101D600010BD00BF4CBE0000351D000007B500903F
:101D700000F10801806900F0B0FA03B05DF804FBDF
:101D800000F10801806900F0D1BA000010B50446E6
:101D9000024B0360FFF7F4FF204610BD4CBE00006D
:101DA0000048704758BE0000024B1B680BB1024848
:101DB00018477047FC01001058BE000013B500F032
:101DC000BDF84FF6FF730B4C22889A4208D100F001
:101DD000CBF80023228800930749084800F0F0FB65
:101DE0000121044800F0CEF802B0BDE8104000F038
:101DF000BBB800BFB00D00107CBE00002301048002
:101E000037B50B4D00F09AF82C8844B900F0ACF8C7
:101E10002A88009423460749074800F0D1FB012196
:101E2000034800F0B9F803B0BDE8304000F09CB8BA
:101E3000B00D0010A1BE00002401048013B50446BB
:101E400001300FD102B010BD9C420AD120468968F2
:101E5000FFF7A0F90221204602B0BDE81040FFF7CD
:101E6000BFB90C310B685A1CEED1002322460093F7
:101E70000249034800F0A4FBE4E700BFF0BE000005
:101E800030010180884207B502460BD0431C09D0BF
:101E900001310BD0002306490093064800F090FB67
:101EA0004FF0FF31084603B05DF804FB0146F9E747
:101EB000BFBE0000300101800B685A1C01D11846DA
:101EC0007047834201D1486870470C31F4E7000045
:101ED000421C13B504460BD0FFF7EEFF431C04462B
:101EE00006D10023024600930349044800F068FB32
:101EF000204602B010BD00BFD0BE000030010180FE
:101F000070B504460D46164600F018F833462A46CA
:101F100021460348FEF70AFFBDE87040FEF7A8BE61
:101F200001BF0000EFF31080C04300F001007047D4
:101F3000EFF30580003018BF0120704710B5074C43
:101F40002368013304D1552205490648FFF7D8FF1D
:101F500000F084FB23680133236010BDB40D001032
:101F600032BF000087BF0000054B1A6832B11A6803
:101F7000013A1A601B680BB900F082BB704700BFC2
:101F8000B40D0010D0E85F3F0B449BB2C0E8523F55
:101F9000002AF7D118467047D0E85F3F5B1A9BB222
:101FA000C0E8523F002AF7D1184670472DE9F74F95
:101FB00090E8080404465B68984763681B6A984287
:101FC0003FD0DAF82030DAF80840A0EB0308CAF86E
:101FD0002000DAF80C30314808EA0308844246460B
:101FE0004FF0000727D0DAE90A239AF839B0A8FBA6
:101FF0000089CDE900230025BBF1000F2BD05A4604
:102000004046494606F0C0FBDDE9002312EB08021A
:1020100043EB090390465A46994606460F4606F09A
:10202000BFFBB8EB000069EB0101A94208BFA04269
:102030000AD2CAE90A01DAE90C23B6185F41CAE9F3
:102040000C6703B0BDE8F08F013647F10007001BB5
:1020500061EB0501EDE722462B464046494607F075
:10206000C9FB224606460F46404649462B4607F026
:10207000C1FBDDE9008918EB020849EB0309A9451A
:1020800008BFA04502D2CAE90A89D4E7013647F160
:102090000007B8EB040869EB0509F4E740420F00BC
:1020A000824206D98A420BD9884294BF002001207F
:1020B0007047884206D98A428CBF002001207047B1
:1020C00001207047002070472DE9F0470746466819
:1020D000FFF76CFF7D68D7F800A06B68002B49D034
:1020E000D5E90C89D3E90001894508BF804504D3AF
:1020F000DAF81430BDE8F0471847B0EB080861EB98
:102100000909D5E906234B4508BF42452C6906D38A
:10211000AB681E4A934219D1444528BF44462A6AF7
:10212000336A1444EA681440A342E1D0DAF810306C
:10213000204698473B685B68984722460146306ACC
:10214000FFF7AEFF00B33B685B69D3E795F8392032
:102150005AB14046494606F023FB0C4A002307F0DB
:1021600049FB844228BF0446D9E7A3FB080103FBCF
:102170000911F2E73369306AF26818441040DAF85E
:102180001030BDE8F0471847BDE8F08740420F0027
:102190002DE9F74F054603681B6898472B689B6934
:1021A0009847066804462EB929222D492D48FFF785
:1021B000A7FE2D4E1F23012202FA03F1B1425FFA5E
:1021C00083FB02D0013BF7D19B46D4F804A0AAF1CF
:1021D00004031C2B06D9372221492248FFF790FE21
:1021E0004FF0200A0727AAF104039F40002316F1AD
:1021F000FF301D4C43F1FF313246C4FB070107F0AD
:10220000F9FA00236C68CDE90001236063602B6854
:102210004FF000085B6898474FF0000920626C6837
:102220005246C4E90A89A66084F839B00120002129
:1022300006F0B6FADDE90023C4E9062301230138DC
:10224000E06027612846C4E90C8984F83830FFF73C
:10225000ADFE284603B0BDE8F04FFFF735BF00BF25
:10226000B8BF00000AC0000040420F0038B5436804
:10227000044693F838300D460BB9FFF789FFFFF796
:102280005DFE63681D60BDE83840FFF76DBE70B548
:102290000446FFF753FE2368DB68984763685B6872
:1022A000A3B12046FFF782FE65686E68D5E90C0190
:1022B000D6E90023994208BF904207D3F3686B60C8
:1022C0002B68002BEAD0B0689847E7E72046FFF775
:1022D000FBFEBDE87040FFF747BE2DE9F0418046A8
:1022E0000C4616461F46069DFFF728FE4046FFF7A0
:1022F0005DFEA5600025D8F80420C4E90067536896
:102300004BB9E36085B954604046FFF7DDFEBDE898
:10231000F041FFF729BED3E900018F4208BF864292
:10232000EFD31D46DB68EBE7EC60F0E738B5054618
:102330000C46FFF703FE6A685368A34209D1DB68C5
:1023400028465360FFF7C0FEBDE83840FFF70CBEDB
:102350001346002BF8D0DA689442F9D1E268DA60CB
:10236000F2E7436810B593F8383004460BB9FFF72D
:102370000FFFFFF7E3FD2046FFF718FEFFF7F4FD20
:102380006368D3E90C0110BD08B5FFF7EAFF08BD8B
:1023900070B5D0E90823D0E90245064612196B4111
:1023A000FFF7E4FC736B2BB106F128001B68BDE856
:1023B0007040184770BDD0B5044616461F46FFF75B
:1023C000BDFD2046FFF7DCFCC4E90867A069FFF704
:1023D000C8FF321847EB01032046FFF7C7FCBDE8F2
:1023E000D040FFF7C1BD7FB50446FFF7A7FD2046EB
:1023F000FFF7C6FC636B13B194F83830E3B96D4650
:1024000004F1280610220021684602F053FEAE4275
:102410000BD03046FEF794F83EB1039B1BB15B68CE
:10242000694630469847039B63632846FEF788F861
:10243000FFF79AFD04B070BDFFF7E2FCDFE7000094
:102440002DE9F0411C4C1D4E237836EA200628BFAA
:102450000646012B88B0F0460F4600D1FEE7FFF795
:102460006DFD0123164D2370FFF77EFD2B680022C2
:102470000133202168462B6002F01CFE2B688DE89A
:102480004001012B029704D1202269460D4802F039
:1024900039FD202269460C4802F034FD684600F000
:1024A00009F90A4B1B680BB10748984700202070B8
:1024B00008B0BDE8F08100BFC00D00100101FF8031
:1024C000B80D0010C40D0010E40D0010BC0D00107C
:1024D0007FB52D4C064621682C48C1F34173032B70
:1024E0000CBF4D428DB2C1F307432A46FEF71EFCD6
:1024F0006FF49E72AB18032B0CD83046FEF716FC17
:10250000A1682348FEF712FC224804B0BDE87040E1
:10251000FEF70CBC6FF498731D44072D09D8DFE853
:1025200005F0041D2023262C292FA1681A48FEF748
:10253000FDFB30460021FEF7F9FB61681748FEF706
:10254000F5FBE36904F108010293A36914480193C0
:10255000636900930EC9FEF7E9FBD5E7A16811484E
:10256000E5E7A1681048E2E7A1681048DFE7A16845
:102570000F48DCE7A1680F48D9E7A1680E48D6E705
:10258000A1680E48D3E700BFE40D001020C0000092
:1025900071C0000080C1000082C000000FC10000B7
:1025A0001FC1000097C00000A6C00000B4C000001A
:1025B000C6C00000D9C00000ECC00000FAC0000096
:1025C00010B50C461146FFF73BFF68B92046FFF7F0
:1025D0007FFFFFF7ADFC10B9FFF7A4FC08B930BFCF
:1025E000FDE70120FEF780FC004810BD0F01FF80D1
:1025F00070B50446FFF7D4FB0646FFF7C5FE054657
:102600003046FFF7C1FE401BA042F9D370BD000069
:1026100008B5044906F0E2FE07F0A6F8BDE8084058
:10262000FFF7E6BF002474494FF47A735843FFF76D
:10263000DFBF00F00BB830B585B06D4618242046DA
:102640002946ABBE0446204605B030BD024B186893
:1026500000F00100704700BFF0ED00E0EFF31083E1
:10266000DB4372B6044A117829B9044903F0010327
:102670000B70012313707047050E0010040E00103C
:1026800008B5EFF31083DB0704D43622054906486A
:10269000FFF736FC0022054B1A70054B1B7803B17F
:1026A00062B608BD9AC10000F6C10000050E001018
:1026B000040E001010B50446B8B1FFF73FFC0C4AF9
:1026C0000C4813682146013313605A4202F003029A
:1026D00003F0030358BF534200EB4310202202F0E3
:1026E00011FCFFF741FC002010BD034810BD00BFE6
:1026F00000020010080E00100101FF8008B5042040
:1027000000F0A0F8024B034A0360034900F076FD95
:1027100044C200002527000020C200000048704786
:1027200010C2000010B50446024B036000F08EF9A1
:10273000204610BD44C2000010B50446044B03609F
:1027400000F084F92046042100F004F8204610BD72
:1027500044C20000FEF7F2BCF0B4204CA0F1080621
:1027600063682BB350F8087CF519AB4220D81AD017
:10277000596851B38D4204D32BE095420B4604D2E5
:1027800011464A681C1D002AF7D1954215D02368CE
:102790001A6899188E4215D05B6840E90273236865
:1027A0005E60F0BC7047D3E90023174440F8087C12
:1027B00040F8043C6660F0BC7047D5E9002317443C
:1027C0004B60E4E717441F60F5E70A4604341946F6
:1027D000DBE70A4604341946D7E700BF880E00102D
:1027E00030B4174C00F108026368082A38BF082289
:1027F00003B30732196822F007028A4204D81BE0AB
:1028000001688A4205D9034658680028F8D130BCCF
:10281000704704338C1A072C456808D981184D601D
:102820008450186802601960083030BC704701603D
:102830001D60F9E71846EAE71846231DEAE700BFDE
:10284000880E001010B500F18004204602F004FB51
:1028500038B1034680220021184602F02BFC80305C
:1028600010BD2046FFF7BCFF03460028F2D100F060
:102870004FFC00BF064A80389368984203D9D2685B
:102880001344984201D302F0EFBAFFF765BF00BFCF
:10289000880E001038B54FF41E65074C2846E560D9
:1028A00002F0DAFAA06020B100236060C0E90053B2
:1028B00038BDE060606038BD880E00101EB400F0C6
:1028C0008DF81EBC07F0C8FEF0B5027883B0472A29
:1028D0000D461F461ED00023254C01932368204639
:1028E0009B68984780B10226019B1B6801932B6867
:1028F000214628461C6901AA0123A04730B1304671
:10290000019B3B6003B0F0BD0126F0E70646304670
:1029100003B0F0BD43784E2BDDD18378552BDAD14F
:10292000C378432BD7D10379462B15D00379432B9A
:10293000D1D143792B2BCED183792B2BCBD1C3791A
:10294000012BC8D850F8204C02D058300190C5E770
:10295000204654F8784CF9E743794F2BE6D1837938
:10296000522BE3D1C379002BE0D10193014CB5E7A1
:102970006CC2000064C2000010B5044600F07AF892
:102980002378A4F12002472B04D0836823BB826004
:10299000012010BD63784E2BF7D1A378552BF4D1CD
:1029A000E378432BF1D12379432BEED163792B2BA1
:1029B000EBD1A3792B2BE8D1E379012BE5D854F89F
:1029C000043C0133012B44F8043CE1D1836844F812
:1029D000083C8260012010BD00F09AFB08B500F0B1
:1029E00049F8836883B393F82020472A04D0002253
:1029F000826003F1200008BD93F821204E2AF6D111
:102A000093F82220552AF2D193F82320432AEED1BD
:102A100093F82420432AEAD193F825202B2AE6D1E3
:102A200093F826202B2AE2D193F82720012ADED81A
:102A3000DA69013ADA61002ADBD100229969816002
:102A40009A6103F1200008BD00F062FB704700BFEF
:102A5000704700BF0048704750C2000010B50446E0
:102A60000421FFF777FE204610BD00BF00487047E5
:102A7000980E001000487047980E00105028F8B5C6
:102A80001CD000F00F040C2C56D8DFE804F00741EE
:102A900051071F555555552723071F00144654F855
:102AA000045B45B100F07006102E08BF1146020607
:102AB0000D4448BF2D681D602046F8BD033222F04A
:102AC000030454F8045B1D602046F8BD144654F816
:102AD000085BE6E7144634F9025BE2E7002514469A
:102AE0002F4614F801CB0CF07F06BE401CF0800F7F
:102AF00045EA060507F10707F3D11F2FD1D81CF0CF
:102B0000400FCED04FF0FF3606FA07F73D43C9E736
:102B1000002514462F4614F801CB0CF07F06BE406A
:102B20001CF0800F45EA060507F10707F3D1B8E767
:102B3000144634F8025BB4E701F06CFF00F070005B
:102B4000202811D00BD9402806D050280AD0302890
:102B50000DD1084607F07CBF084607F069BF08B1F1
:102B6000102804D100207047084607F075BF08B54B
:102B700001F050FFF8B50C461546074608B107F0BE
:102B800057FF286026780134FF2E28D1686023780B
:102B9000601CFF2B2B7532D00024102322462B758E
:102BA00010F8011B01F07F039340090644EA030477
:102BB00002F10702F4D40444EC60002422460378B6
:102BC00001306B7510F8011B01F07F0393401C432B
:102BD0000B0602F10702F5D404442C61F8BD394616
:102BE0003046FFF7ABFF224601462B1D3046FFF76C
:102BF00045FF04462378601CFF2B2B75CCD10023A6
:102C0000EB60DAE700232DE9F04F00F0030499B000
:102C1000012C884617460C9300F095800DD3022CAA
:102C200040F05F823946404607F0ECFE002800F095
:102C30009A80092019B0BDE8F08F0207F2D4012371
:102C40000493002318AA42F82C8D009219460C22F6
:102C5000384607F063F9384607F0F0FE0590002883
:102C6000E0D012AB1A46059938460693FFF782FF6B
:102C700005469DF85C00FF2800F0E4803946FFF728
:102C80005DFF044600230DF1440B1946CDF800B05A
:102C90000F223846149407F01FF9119E169B26F058
:102CA00001069D4206F1FF3680F0D3800DF13C0A0B
:102CB0000DF140099DF85D400021FF2C03D0204616
:102CC000FFF73CFF01462A4620465346FFF7D6FE53
:102CD0009DF85D400546FF2C4FF0000103D02046D3
:102CE000FFF72CFF01462A4620464B46FFF7C6FE5B
:102CF0009DF85D400546FF2C4FF0000103D02046B3
:102D0000FFF71CFF01462A4620465B46FFF7B6FE4A
:102D100000240546214615F8012B02F07F038B4065
:102D20001C43130601F10701F5D4129B0F9A1344BB
:102D3000B3421FD9049BDB0700F19180049B1C0761
:102D400015D500F0E5F910F008041CD018AA42F8D7
:102D50002C1D009244F0020419460C2238460494BB
:102D600007F0DCF877E7082019B0BDE8F08F40469F
:102D700000F0DCFB109A1344B34200F28880169BEB
:102D8000AB4297D8D6E712AB009306930D222346A9
:102D900021463846D8F8205007F09EF8129B9D42F5
:102DA00002D0022304934CE718AB43F82C8D009318
:102DB000214623460C22384607F0B0F8D8F83030C8
:102DC0000393002BD3D0D8F828300DF13C0A1A46D3
:102DD000D8F82C300DF1400905931346002B1C4602
:102DE000C0F228810325002318AA42F8288D19462D
:102DF000009238461A4607F091F80023012219463E
:102E0000CDF800A038460F9407F088F800230F2271
:102E10001946CDF80090384607F05EF80023109A66
:102E2000039C02F001021443CDF800903846194685
:102E30000F22109407F072F8022D05D0072019B068
:102E4000BDE8F08F00241DE74046FFF795FD072001
:102E5000F0E6049BD9077FF571AF0DF1400900241E
:102E6000039400230D221946CDF8009038460C9D9E
:102E700007F032F8059A109BC8F82C20039AC8E98D
:102E80000954C8F83020C8F820300620D2E6119B3B
:102E9000002B3FF4C7AE139A9A180392002C00F04F
:102EA000F180169B013C2344002A3FF4BBAE002B6B
:102EB00000F0F980049A12F00802099200F00481EF
:102EC00047254E245520432146224F264FF0520CD1
:102ED0004FF0000E88F8005088F8014088F8020092
:102EE00088F8031088F8042088F8056088F806C080
:102EF00088F807E00022CDE90A7A0792CDF8209001
:102F00000024214600E02B461D4615F8010B00F079
:102F10007F028A40060644EA020401F10701F2D466
:102F20001F2905D8400603D501228A405242144386
:102F30000026A146314613F8010F00F07F028A40B7
:102F40001643020601F10701F5D41F2905D84706EB
:102F500003D501238B405B421E43002C4CD04EDC3A
:102F6000159B04F1010ACAEB8A7203EB820753F83E
:102F70002210B8F1000F01D0099B2BB151B3002EE4
:102F800000F08A80AB19BBE70C9B119329B990E044
:102F900057F8041F002900F08C8039445B4600225A
:102FA0004046FFF791FC0028F2D0E8E7E3005B42DF
:102FB000159A14991A44089BFFF760FD109949B1BE
:102FC000B8F1000FDBD00CAB00224046FFF77CFCD1
:102FD0000028D4D0049B4A46DDE90A7AD807DDF8F8
:102FE00020903FF53EAF099B002B3FF4F6AE002C3E
:102FF000BFF6F8AE00F09AF801230793BFE79DF8FB
:103000005C00FF283AD000F00703042B69D801A226
:1030100052F823F02F300000E33000002930000088
:103020002F300000AD2F000063005B42C0E7A3001B
:103030005B42BDE701331D46DDE905123846FFF767
:1030400099FD9DF85C00FF281AD03946FFF776FD00
:10305000C5EB8572159D92001490AB58154433B1A1
:103060002A46002352F8041F01330029FAD1042212
:10307000C8E90A30C8E90C250325B4E6002397E720
:103080000020E5E7039B002B3FF4CCAD049BDA075F
:103090003FF5C8AD0225A6E6DDE90A7ADDE9073984
:1030A000002B3FF4BFAD049BDD073FF5BBAD002413
:1030B000F0E7049B5546DE070A9FDDF82CA0DDF8FB
:1030C00020903FF5CEAEB7E798F80720012A0CBF55
:1030D00058F8202C08F158020C920BE700F0A6FAE1
:1030E0002FE601F097FC00BF08B5804701F092FC85
:1030F00000F09CFA01F08EFC0D46044600F0D6FA72
:10310000013501D0FFF7DAFB204600F01FFA00BFBF
:1031100008B5034B1868BFF35B8FFFF7E5FF00BFEF
:103120000802001008B58047FFF7F2FF08B5034B0F
:103130001868BFF35B8FFFF7F5FF00BF04020010B4
:10314000024B1868BFF35B8F704700BF0802001086
:10315000024B1868BFF35B8F704700BF040200107A
:10316000012810B51AD8BFF35B8FA1F1280353E8EB
:10317000002F013A43E800200028F8D1BFF35B8F0D
:103180005AB951F81C3C01F158040BB1204698473C
:103190002046BDE81040FFF76DBB10BD51F8140C80
:1031A000FFF7A2FFF8B5002540E91E1240F8805C49
:1031B0000446FFF7CDFF44F8700CFFF7C1FF47212D
:1031C00043222B234E27552604F8581C0A4904F89D
:1031D000515C04F8577C04F8566C44F8501C04F811
:1031E000552C04F8542C04F8533C04F8523C44F891
:1031F0006C0CA4F18000F8BD61310000F8B5054603
:103200000E461746FFF736FC044643683A4601333C
:10321000314663602846FFF7C5FF0123044644F8A2
:10322000283B204607F006FA204600F0FFF9FFF79A
:103230006FFF00BF10B5FFF71DFCD0E9004201325F
:10324000426064B194F82020472A0AD0002202602C
:103250002034204607F012FA204600F0E7F9FFF785
:1032600057FF94F821204E2AF0D194F82220552AB5
:10327000ECD194F82320432AE8D194F82420432A5F
:10328000E4D194F825202B2AE0D194F826202B2A8B
:10329000DCD194F82720012AD8D8626952426261B1
:1032A000D6E700BF10B50446024B036000F0C4F837
:1032B000204610BD40C3000010B50446044B036017
:1032C00000F0BAF820460C21FFF744FA204610BD62
:1032D00040C3000070B582B0069C0E46944205467D
:1032E00009D0A8683146056806942C6AA44602B045
:1032F000BDE87040604719460192009300F064F801
:10330000DDE900320028ECD0062002B070BD00BF1D
:103310002DE9F04F894681B01946DDE90A4ADDE919
:103320000CB81D461646074600F04EF888B1B9F1B4
:10333000000FC8F8004088F804601BDB4C44A3452C
:103340000CBF0624012488F80640002001B0BDE827
:10335000F08F5C4515D0B8682B460568CDE90CB8F0
:10336000CDE90A4AEC6932464946A44601B0BDE8B7
:10337000F04F604719F1020FE7D1012388F80630BA
:10338000E3E75146384600F01FF80028E3D088F8FC
:103390000560DAE72DE9F04107460C4615461E4662
:1033A00000F084F808B1BDE8F081B86833460668DB
:1033B0002146B4692A46A446BDE8F041604700BFF3
:1033C000704700BF0020704781420FD008B54068A9
:1033D00003782A2B0CD049680B782A2B08BF0131BF
:1033E00001F060FFB0FA80F0400908BD012070478D
:1033F000002008BD70B500241026036884B015466F
:10340000CDE9026412689E6900946B468DF8044011
:10341000B0479DF8043003F00603062B09BF0120D6
:103420002046009B2B6004B070BD00BF0098904206
:103430000CBF06200120704710B50446024B036004
:10344000FFF7BEFF204610BDB4C3000010B5044610
:10345000044B0360FFF7B4FF20460821FFF77AF919
:10346000204610BDB4C300002DE9F041069D089927
:1034700090468D421F460646099C0CD03946304680
:10348000FFF7A2FF20B10123256084F80480A37117
:103490000020BDE8F0810799FFF796FF0028EDD0E6
:1034A00084F805800020BDE8F08100BF38B51546DE
:1034B0001C46FFF789FF20B1082206232560E26041
:1034C000237138BD2DE9F04117461C4606460D46CE
:1034D000FFF77AFF08B9032C01D9BDE8F0812B680A
:1034E0003A4631462846BDE8F0415B69184700BFBF
:1034F0000378472B01D00020704743784E2BFAD138
:103500008378552BF7D1C378432BF4D10379432B20
:10351000F1D143792B2BEED183792B2BEBD1C079D1
:1035200001288CBF00200120704700BF10B530B1CA
:10353000044600F07BF82046FFF7DAFF08B9FFF7F2
:10354000E7FD54F8140CFFF7CFFD00BF2DE9F04F55
:1035500085B00246FFF7CCFF60B1D2E90C7452F897
:10356000188C104652F8145C966A00F05FF84046DA
:10357000FFF7D8FD104600F059F8FFF7D7FD00F02F
:1035800055F8FFF7C5FD4FF0000800F04FF8FFF7C2
:103590006DFAC14603680DF1100A93F8272027F051
:1035A000030B012A0CBF1A6803F178022033019340
:1035B0004AF8082DB1451BDA276807B1274453465E
:1035C000002239460198FFF77FF9E8B93B6804AA61
:1035D0001B6942F8040D0093384601231049009FEF
:1035E000B847002818BF804609F101095C44E1E7AB
:1035F000B8F1000F10D00420FFF724F9094B0A4A54
:1036000003600749FFF7FAFDFFF714FE00F04EF8DC
:1036100000F04CF8FFF752F92846FFF765FD00BFB0
:1036200074C20000F8C20000512A000038B50446F8
:10363000FFF720FA22780368472AA4F1200104D07A
:103640008BBB1C460160204638BD62784E2AF7D1FC
:10365000A278552AF4D1E278432AF1D12279432A7B
:10366000EED162792B2AEBD1A2792B2AE8D1E2792B
:10367000012AE5D854F80C2C002A11DB01324568E8
:103680008B4205F1FF3544F80C2C45601CBF44F813
:10369000103C01602046646A06F016FC204638BDE6
:1036A000C2F10102EBE7FFF733FD00BF08B5FFF7FA
:1036B000DDF90246006870B390F82030472B06D041
:1036C000002320301360BDE8084006F0FFBB90F8EF
:1036D00021304E2BF4D190F82230552BF0D190F8B8
:1036E0002330432BECD190F82430432BE8D190F8D1
:1036F00025302B2BE4D190F826302B2BE0D190F8FD
:103700002730012BDCD84369002B05DB013B002B64
:1037100007D00DDB436108BD0133FBD101691160A6
:10372000F8E7036920301360BDE8084006F0CEBB1F
:10373000FFF7EEFC00000000C1F30A522DE9F84348
:10374000A2F2FF36132E0B460D4604468846074666
:103750001DDC002E3DDB384A42FA06F901EA090277
:10376000024319D032A3D3E9002305F02BF800223D
:10377000002305F06DFCD0B3002D04DA4FF4801364
:1037800043FA06F6B04428EA090500272FE0332E55
:1037900006DDB6F5806F2FD019462046BDE8F883C8
:1037A0004FF0FF39A2F2134229FA02F919EA000F89
:1037B000F2D01FA3D3E9002305F004F80022002370
:1037C00005F046FC98B1002D24DB27EA09074546A1
:1037D0000DE017A3D3E9002304F0F4FF0022002337
:1037E00005F036FC18B1002D0BDB00273D463C46AA
:1037F00029462046BDE8F883024604F0E3FF04466C
:10380000CBE725F000430D4A1F43002F18BF154694
:103810000027ECE7142E08D00123C6F1340603FA82
:1038200006F6371928BF9844CFE705F10108CCE721
:103830009C7500883CE4377EFFFF0F000000F0BF5E
:1038400030B5214A21F00043934287B01BDD1F4A67
:10385000934205DD02460B4604F0B2FF07B030BDCF
:1038600002AA00F035F800F00300012813D0022866
:103870001FD0DDE90423A8B1DDE9020100F048FA18
:1038800001F10041EAE7002400220023009400F047
:103890008BFF07B030BDDDE90423DDE9020100F054
:1038A00037FADBE70124DDE90201009400F07CFF38
:1038B000D4E70124DDE90423DDE90201009400F0EE
:1038C00073FF01F10041C9E7FB21E93FFFFFEF7FF3
:1038D0002DE9F04FC84C21F00045A5428FB040F3D0
:1038E0008A801446C54A0E46954226DCB8A3D3E921
:1038F0000023002940F38A8004F062FFC04B064693
:103900009D420F4600F04681B3A3D3E9002304F0A3
:1039100057FF02460B463046C4E90023394604F0FF
:103920004FFFADA3D3E9002304F04AFF0127C4E908
:10393000020138460FB0BDE8F08FB24A954240F31D
:103940008480B14A954200F31B812F15A7F21647D8
:10395000A5EB07518B46824605F09AFB05F07EF8F1
:103960008046894642464B4650465946CDE908892D
:1039700004F026FF0022A54B05F0DAF88B468246BC
:1039800005F086FB05F06AF88046894642464B46BC
:1039900050465946CDE90A8904F012FF00229B4B9C
:1039A00005F0C6F800220023CDE90C0105F028FB44
:1039B000002800F05F81002340464946002205F0C0
:1039C0001FFB002814BF01230223022090493A461E
:1039D000CDE90001214608A800F0BEFA002E0746F6
:1039E00010DA6268E36802F1004203F100434742E3
:1039F0006260E36006E0002400250027C2E902457A
:103A0000C2E9000138460FB0BDE8F08F04F0DAFEDD
:103A10007B4B06469D420F4600F00E816EA3D3E914
:103A2000002304F0CFFE02460B4630463946C4E977
:103A3000002304F0C5FE68A3D3E9002304F0C2FE0E
:103A40004FF0FF37C4E90201DCE700F063FF64A335
:103A5000D3E900238046894605F06AF800226D4BC1
:103A600004F0B0FE05F014FB074604F0F7FF58A37E
:103A7000D3E9002382468B46CDE904AB05F058F824
:103A800002460B464046494604F09AFE52A3D3E94B
:103A90000023CDE902015046594605F049F81F2F91
:103AA0008046894602460B46DDE9020140F3B480B8
:103AB00004F086FE83468A462D15CAF30A53EB1A94
:103AC000102B40F3B48048A3D3E90023DDE90401BF
:103AD00005F02EF88046894602460B46DDE90201D4
:103AE00004F06EFE82468B4602460B46DDE902017B
:103AF00004F066FE42464B4604F062FE3CA3D3E966
:103B0000002380468946DDE9040105F011F84246AC
:103B10004B4604F055FE0B46024680468946504609
:103B20005946CDE906AB04F04BFEC1F30A53ED1A3A
:103B3000312D83468A4600F39F8002460B46DDE91D
:103B40000601C4E90023CDE90201DDE902015A467C
:103B5000534604F035FE42464B4604F031FE024621
:103B60000B46002EC4E90223BFF64CAF0AF1004316
:103B700001F10041C4E900B3C4E902017F4241E719
:103B800002460B4604F01CFE0027C4E90201C4E90A
:103B9000000137E714A3D3E9002304F011FE14A3B6
:103BA000D3E900230F46064604F00AFE02460B4600
:103BB00030463946C4E9002304F002FE0CA3D3E9E1
:103BC000002304F0FDFD0127C4E902011AE700BF4C
:103BD00000004054FB21F93F3163621A61B4D03DCB
:103BE00083C8C96D305FE43F0000601A61B4D03D06
:103BF0007370032E8A19A33BFB21E93F7BD9024056
:103C0000FB21F93FFB213941FFFFEF7F00007041AD
:103C100058C400000000E03F04F0D2FD3A4B7A1E89
:103C200053F822308346AB428A463FF445AF5A46AA
:103C30005346C4E9002388E72BA3D3E9002304F00B
:103C4000C1FD2BA3D3E900230F46064604F0BAFDBD
:103C500002460B4630463946C4E9002304F0B0FD65
:103C600023A3D3E9002304F0ADFD4FF0FF37C4E9EF
:103C70000201C7E60323A8E61FA3D3E90023DDE979
:103C8000040104F055FF8046894602460B46DDE9F3
:103C9000060104F095FD82468B4602460B46DDE99F
:103CA0000601CDE902AB04F08BFD42464B4604F021
:103CB00087FD13A3D3E9002380468946DDE904018B
:103CC00004F036FF42464B4604F07AFD02460B46AE
:103CD000804689465046594604F072FD83468A461E
:103CE000A5E700BFAFF300800000601A61B4D03DCB
:103CF0007370032E8A19A33B0000002E8A19A33B80
:103D0000C14920259A837B39D8C3000000000000F8
:103D10002DE9F04F21F00046B6F1795F85B00C46F1
:103D200092469B4605466BDA05F0B2F9002800F092
:103D3000E1802A4623462846214604F0F9FE74A372
:103D4000D3E900238046894604F0F2FE72A3D3E94A
:103D5000002304F037FD42464B4604F0E9FE70A311
:103D6000D3E9002304F02CFD42464B4604F0E0FE6C
:103D70006DA3D3E9002304F025FD42464B4604F031
:103D8000D7FE6BA3D3E9002304F01AFD42464B464D
:103D900004F0CEFE68A3D3E9002304F013FD4246ED
:103DA0004B4604F0C5FECDE900010022644B4046BD
:103DB000494604F0BDFEDDE9002306460F464046B5
:103DC000494604F0B5FE5246804689465B46284681
:103DD000214604F0ADFE02460B464046494604F03B
:103DE000EFFC02460B463046394604F0E9FC024639
:103DF0000B460020534904F0E3FC05B0BDE8F08F0A
:103E000002460B4604F094FE41A3D3E9002380460A
:103E1000894604F08DFE40A3D3E9002304F0D2FCD0
:103E200042464B4604F084FE3DA3D3E9002304F050
:103E3000C7FC42464B4604F07BFE3BA3D3E900237C
:103E400004F0C0FC42464B4604F072FE38A3D3E9AE
:103E5000002304F0B5FC42464B4604F069FE36A34D
:103E6000D3E9002304F0AEFC4B46424604F060FE6A
:103E7000354BCDE900019E4297DD344B00229E4236
:103E80003DDCA6F5001300202E4916461F4604F01F
:103E900097FCCDE902010022294B4046494604F037
:103EA00047FE32463B4604F08BFCDDE90023064624
:103EB0000F464046494604F03BFE5246804689463E
:103EC0005B462846214604F033FE02460B46404638
:103ED000494604F075FC02460B463046394604F06C
:103EE0006FFC02460B46DDE9020104F069FC05B0F7
:103EF000BDE8F08F0020134905B0BDE8F08F144BEA
:103F00000026CDE90223134FC5E700BFAFF30080C1
:103F1000D43888BEE9FAA8BDC4B1B4BD9EEE213E36
:103F2000AD529C804F7E923E9015CB19A001FA3E77
:103F30007751C1166CC1563F4C5555555555A53F47
:103F40000000E03F0000F03F3233D33F0000E93F84
:103F50000000E73F0000D23F2DE9F04F1F46ADF5CE
:103F6000197DBF4C0793D31E84FB0354DB17C3EBAF
:103F7000A40323EAE375BB4CA29E6B1C54F8266095
:103F8000A3EB83037C1E02EBC3030593331909954E
:103F90000496019407460B91A5EB04081DD44344F5
:103FA000002400255E1C0DF18009DDF88CA209E0DB
:103FB0005AF8280004F052FD08F10108B045E9E87C
:103FC00002010AD0B8F1000FF2DA2046294608F1C2
:103FD0000108B045E9E80201F4D1049B002BC0F2CE
:103FE000B783A7F108021146079B0392DB0020AAC2
:103FF00002EB0309029301EB0308049B72AA02EB94
:10400000C30B0DF5E07A019B002BC0F295814D4664
:1040100000260027039C75E90223F4E9020104F05D
:1040200087FD02460B463046394604F0CBFB44453B
:1040300006460F46EFD1EAE80267DA4509F10809BA
:10404000E1D1DDE90210049B01449B468A469B00B6
:104050000BA9A3F10802CB1808930CAB13440A93E5
:1040600098AB03EBCB03BBF1000F53E9284529DDE7
:1040700070AB0DF1300903EBCB0800227A4B2046E0
:10408000294604F055FD05F003F804F0E7FC002292
:10409000764B06460F4604F04BFD02460B46204683
:1040A000294604F08DFB04F0F3FF78E9022349F878
:1040B000040B3946304604F085FB70AB9845044646
:1040C0000D46DAD1DDF81490204629464A4600F024
:1040D00027FC00224FF07F5304460D4604F028FDD4
:1040E000FFF72AFB0022624B04F022FD02460B463A
:1040F0002046294604F064FB0D46044604F0C8FF40
:10410000804604F0ABFC0B4602462946204604F0EC
:1041100057FB4B46002B06460F4640F3E1800BF160
:10412000FF310CAA52F82150C9F1180345FA03F2E5
:1041300002FA03F3EB1A0CA8C9F1170540F8213075
:10414000904443FA05F5002D2CDDBBF1000F08F17A
:10415000010840F399820C9C002C40F0A780BBF131
:10416000010F0AD001220CA951F8044F531C002C56
:1041700040F09E809B451A46F6D1059B002B0EDD34
:10418000012B00F0B581022B09D10BF1FF320CABF2
:1041900053F822300CA9C3F3150341F82230022D45
:1041A00000F0AF80002200233046394604F028FF9B
:1041B000002800F06B82049B0BF1FF394B4510DCAB
:1041C00000220BF18043013B0CA9089801EB83030B
:1041D00053F80419834242EA0102F9D1002A40F05F
:1041E000B580049B0CAA013B52F82330002B40F011
:1041F000A18001230A9A52F8041901330029FAD048
:104200005B440BF101099945069349DC099A07992A
:1042100009EB020801EB0B0508F1804802EB030BE8
:10422000A39B08F1FF3803EB880870AB03EBC909C7
:10423000A39B20A903EB8B0301EBC505029358F860
:10424000040F04F00BFC019B05F1080B002BC5E9E2
:10425000000128DB039C00260027083D0CE000BF7E
:10426000ABAAAA2AA0C500000000703E0000704161
:104270000000204075E80201F4E9022304F058FC34
:1042800002460B463046394604F09CFA5445064631
:104290000F46EFD1029BE9E8026798455D46CED113
:1042A000DDF818B0DCE600260027F3E70123002242
:1042B000C4F180740CA99B4541F822400EDD51F8F1
:1042C00023206FF07F4001EB830301EB8B0100E0C3
:1042D0001A68821A43F8042B8B42F9D101244CE767
:1042E00006D10BF1FF330CAA52F82350ED152AE743
:1042F0000022874B04F0A2FE002840F0BE81054654
:1043000050E732463B460020824904F059FA0646FF
:104310000F46002C3FF446AF059A00207D4900F07F
:10432000FFFA02460B463046394604F049FA064683
:104330000F4637E7012363E700260027EAE8026714
:10434000DA4509F108097FF45EAE7AE6059A0CAB0E
:1043500053F82930183ACDE9068505926BB909F171
:104360008043013B0CA901EB830353F8041909F1C5
:10437000FF39183A0029F8D00592059A00206549BE
:1043800000F0CEFAB9F1000F04460D46C0F2E78105
:104390004FF0000A4FEAC90370AA02EB0308089322
:1043A0000CAB03EB8906DFF870B108F1080704369F
:1043B00056F8040D04F052FB22462B4604F0B8FBDD
:1043C0005B4667E9020152462046294604F0B0FBED
:1043D0000CAB9E4204460D46EAD1C3464FF0000A9C
:1043E00048AB03930193CDF8149009F10103DDF874
:1043F00010900293B9F1000FC0F23C8142A3D3E9BF
:104400000023DFF818815D4600260027002403E022
:10441000544510DCF8E80223F5E8020104F088FBBB
:1044200002460B463046394604F0CCF90134A1452A
:1044300006460F46ECDA019B0AF1010AE3E802673F
:104440000193029BABF1080B9A45D3D1A29BDDF8F7
:104450001490032B45D8DFE813F0EC0006000600AB
:10446000650048AB03930024B9F1000F21460CDB33
:10447000039B984603EBC905083575E902232046DE
:1044800004F0A0F9A8450446F7D1079B002B40F0A3
:10449000368126460F4622460B460B9C0399C4E9FB
:1044A0000067D1E9000104F08BF9B9F1000F07466C
:1044B0000E4611DD314601244E46039D3846F5E98E
:1044C000022304F07FF90134A6420746F6DA079B7F
:1044D0000E46002B40F025813A4633460B99C1E940
:1044E0000223069B03F007000DF5197DBDE8F08F50
:1044F0000BF1FF320CAB53F822300CA9C3F31603B7
:1045000041F822304BE600BF00000040FB21F93F9C
:104510000000E03F0000F03F0000703E68C5000072
:1045200048AB0393B9F1000F40F33581039A4FEA8A
:10453000C9030193D318CDF808909846D3E900AB8E
:10454000914658E9026752465B463046394604F0C8
:1045500039F904460D4602460B463046394604F00A
:104560002FF952465B4604F02DF9C8E9000168E9CD
:104570000245C145A246AB46E3D1DDF80890B9F14A
:10458000010F40F30881019B039A0DF5947B1344BE
:104590009A46D3E9006701935AE9028932463B46BD
:1045A0004046494604F00EF904460D4602460B46C5
:1045B0004046494604F004F932463B4604F002F90D
:1045C000CAE900016AE90245D34526462F46E3D1F0
:1045D00000231946019C039A083402F110051E4677
:1045E00074E90223304604F0EDF8A5420346F6D103
:1045F0008C46039A1146D2E90082D1E902E9079973
:10460000002900F091800B9C09F100402361069B7A
:1046100002F100420CF10041E06003F0070062602B
:104620006161C4F80080C4F808E00DF5197DBDE8AB
:10463000F08F0023089D039F08353D442E46194600
:104640001C4676E90223204604F0BCF8B742034634
:10465000F6D10C46079A0AB104F1004418462146E7
:104660000B9BC3E90001069B03F007000DF5197DC4
:10467000BDE8F08F00260027DDE6BBF1000F08F152
:1046800001087EDD022566E5002476E5CDE9068594
:10469000059D304639466A4200F042F900223F4B00
:1046A00006460F4604F0CAFC00B300223C4B3046DD
:1046B000394604F03DFA04F0EBFC044604F0CEF970
:1046C0000022364B04F034FA0B4602463946304697
:1046D00004F076F804F0DCFC0BF101090CAB1835A2
:1046E00043F82B00059543F8294046E63046394605
:1046F00004F0CEFC0CABD94643F82B003DE60B464C
:1047000001F100450B9E0399C6E90045D1E900017E
:10471000224604F055F8B9F1000F07460E463FF760
:10472000C9AE06F10046D7E6184646467446174617
:104730004D4661460B9BC3E90401C3E90067C3E929
:104740000245069B03F007000DF5197DBDE8F08FCB
:10475000A7F108030393079BDB00029371E4A29B7C
:10476000032B3FF6BEAE01A252F823F07D470000B6
:1047700063440000634400002145000000231C4600
:1047800068E732463B460020064904F019F8022546
:1047900006460F4606E500239C462AE700007041C6
:1047A0000000703E0000F03F2DE9F04F21F0004680
:1047B000B6F1795F85B00C4690469946054604DA15
:1047C00004F066FC002800F085802A46234628462F
:1047D000214604F0ADF906460F4602460B46284630
:1047E000214604F0A5F93EA3D3E9002382468B4677
:1047F0003046394604F09CF93BA3D3E9002303F08B
:10480000DFFF32463B4604F093F939A3D3E9002396
:1048100003F0D8FF32463B4604F08AF936A3D3E9C9
:10482000002303F0CDFF32463B4604F081F934A368
:10483000D3E9002303F0C6FF0E9BCDE900019BB333
:104840000022334B4046494604F072F9DDE900236B
:10485000CDE902015046594604F06AF902460B467A
:10486000DDE9020103F0ACFF32463B4604F060F99B
:1048700042464B4603F0A4FF23A3D3E90023064698
:104880000F465046594604F053F902460B4630464F
:10489000394603F097FF02460B462846214603F0AF
:1048A0008FFF05B0BDE8F08F02460B463046394613
:1048B00004F03EF914A3D3E9002303F081FF52462C
:1048C0005B4604F035F92A46234603F07BFF05B02A
:1048D000BDE8F08F2846214605B0BDE8F08F00BF47
:1048E0007CD5CF5A3AD9E53DEB9C2B8AE6E55A3E7A
:1048F0007DFEB157E31DC73ED561C119A0012A3F16
:10490000A6F810111111813F495555555555C53F10
:104910000000E03F21F0004319467047000000000E
:10492000F8B5C1F30A5304460D460E4617460BBBB5
:10493000034621F0004633431BD02F4B002204F0E6
:10494000F7F82E4B04469F420D4637DB0E46C1F367
:104950000A53363B40F2FE723B4493421ADC002B72
:1049600011DD26F0FF4626F4E00646EA0355204610
:104970002946F8BD40F2FF729342EBD102460B4646
:1049800003F020FFF8BD13F1350F1DDA4CF2503360
:104990009F420CDD14A1D1E9000122462B4600F014
:1049A00031F811A3D3E9002304F0C2F8F8BD224680
:1049B0000FA1D1E900012B4600F024F80CA3D3E9A4
:1049C000002304F0B5F8F8BD26F0FF4626F4E00613
:1049D000363346EA0355204629460022084B04F0A8
:1049E000A7F8F8BDAFF300809C7500883CE4377EE3
:1049F00059F3F8C21F6EA50100005043B03CFFFF01
:104A00000000903C03F0004321F0004242EA030121
:104A1000704700BF08B5062000F0E2FB0120FCF75C
:104A20004BFA00BF0028B8BF40427047014B1868DE
:104A3000704700BF0C02001070B5002948D0054631
:104A40000C4610B1836B002B48D0626EB4F90C3069
:104A5000D00740D4990530D52146284600F054F8B7
:104A6000E36A064633B1E169284698470028B8BF93
:104A70004FF0FF36A3891A063CD4216B41B104F1F3
:104A80004003994202D0284606F000F80023236331
:104A9000616C21B1284605F0F9FF0023636400F042
:104AA0007BF90022636EA281DB071FD5A06D00F0A9
:104AB000CDF900F077F9304670BDA06D00F0C8F96F
:104AC000B4F90C30002BC7D1666E16F0010616D073
:104AD0000026304670BD002BFAD0BDE700F02CF95F
:104AE000626EB4F90C30D007F5D4B3E7A06D00F0D6
:104AF000B1F9DBE72169284605F0C8FFBDE7A06DE5
:104B000000F0A8F9304670BDB1F90C302DE9F04144
:104B10009AB20C461107804644D4626843F400639D
:104B2000002AA3815ADDA56A002D54D000229BB231
:104B3000D8F80060E169C8F8002013F4805240F012
:104B4000848001234046A847431C4BD0A389A56A13
:104B5000E1695F0705D56268236B801A0BB1E36BCF
:104B6000C01A024600234046A847451C46D00021F3
:104B7000B4F90C30226923F40063A381DB04C4E997
:104B8000002100D52065216BC8F8006019B304F13D
:104B90004003994202D0404605F078FF0020206390
:104BA000BDE8F0812669B6B1920718BF00232568D9
:104BB00008BF63692660AD1BA3600AE02B4632463E
:104BC000676AE1694046B8470028A5EB000506443E
:104BD0002BDD002DF2DC0020BDE8F081E26B002A25
:104BE000A1DCF8E7D8F80030002BAFD01D2B01D0A6
:104BF000162B2CD1C8F800600020EDE7D8F8005043
:104C00001D2D1AD8144BB4F90C20EB40DB4313F0E4
:104C1000010314D1216922F40062C4E90013D10414
:104C2000A281B0D5002DAED1ACE7A3894FF0FF3003
:104C300043F04003A381BDE8F081B4F90C2042F0B9
:104C40004002A2814FF0FF30C6E7206D81E7A389C3
:104C500043F04003A381BFE70100402038B50D4673
:104C6000044608B1836BA3B1B5F90C00B8B16B6E03
:104C7000DB0701D481051AD520462946FFF744FFFA
:104C80006B6E0446DA0702D4AB899B050AD5204631
:104C900038BD00F051F8B5F90C000028E7D1044602
:104CA000204638BDA86D00F0D5F8204638BDA86D67
:104CB00000F0CEF8E0E700BF20B1054B01461868D0
:104CC000FFF7CCBF034B0449186800F071B800BF70
:104CD0000C020010B0C500005D4C0000002310B5B0
:104CE00004468181C281C0E9003383604366C0E924
:104CF00004338361194608225C3000F0DBF9074871
:104D00000749084A084BC4E90740C4E90912E362AD
:104D100004F15800BDE8104000F096B81D520000A4
:104D2000415200007D5200009D520000014900F0F8
:104D30003FB800BF394A000010B50446144800F0DF
:104D400087F8A26BFAB90320124904F53B73C4F843
:104D5000E832C4F8E022C4F8E402E16360680421A8
:104D6000FFF7BCFFA06801220921FFF7B7FFE06849
:104D700002221221FFF7B2FF01230548A363BDE819
:104D8000104000F067B80248BDE8104000F062B87B
:104D9000EC0E00102D4D0000014800F059B800BF86
:104DA000000F0010014800F055B800BF000F0010C0
:104DB0002DE9F84310F538761ED0884607464FF0A7
:104DC0000009D6E90154013D10D4A389013D012B0E
:104DD00008D9B4F90E30013304D021463846C04713
:104DE00049EA00096B1C04F16804EED13668002E14
:104DF000E7D14846BDE8F883B1464846BDE8F883A8
:104E000070B50D4E0D4D761BB61006D00024013442
:104E100055F8043B9847A642F9D1094E094D06F0D2
:104E200011FC761BB61006D00024013455F8043B63
:104E30009847A642F9D170BDB40B0010B40B001016
:104E4000C00B0010B40B0010704700BF704700BFCC
:104E5000704700BF704700BF024B0146186805F05D
:104E600011BE00BF0C020010024B0146186805F08D
:104E70000DBE00BF0C020010830770B4CDB23DD050
:104E8000541E0AB30378AB421FD0431C05E014F153
:104E9000FF3419D30278AA4217D013F0030F184633
:104EA00003F10103F3D1032C11D84CB30378AB42C7
:104EB0000BD00444431C02E00278AA4205D09C4275
:104EC000184603F10103F7D1002070BC7047064675
:104ED0000A0292B22A4342EA024233683046534001
:104EE000A3F1013121EA030313F0803F06F1040628
:104EF000DCD1043C032C3046EFD8D6E71446D2E789
:104F00002046E2E7844641EA000313F0030349D157
:104F1000403A23D30B6803604B6843608B6883601F
:104F2000CB68C3600B6903614B6943618B69836123
:104F3000CB69C3610B6A03624B6A43628B6A83620B
:104F4000CB6AC3620B6B03634B6B43638B6B8363F3
:104F5000CB6BC36340304031403ADBD230320BD3AD
:104F60000B6803604B6843608B688360CB68C360E9
:104F700010301031103AF3D20C3205D351F8043B03
:104F800040F8043B043AF9D2043208D0D2071CBFDF
:104F900011F8013B00F8013B01D30B880380604608
:104FA000704700BF082A13D38B07B1D010F003035A
:104FB000AED0C3F10403D21ADB071CBF11F8013BCA
:104FC00000F8013BA4D331F8023B20F8023B9FE7F5
:104FD000043AD9D3013A11F8013B00F8013BF9D268
:104FE0000B7803704B7843708B7883706046704702
:104FF0008842F0B40DD98B1883420AD9841832B193
:10500000224613F8014D994202F8014DF9D1F0BC46
:1050100070470F2A48D940EA01039B0746D1A2F105
:1050200010031B0901F1200707EB031701F110041E
:1050300000F1100554F8106C103445F8106C54F859
:105040001C6C103545F81C6C54F8186C45F8186C3D
:1050500054F8146CBC4245F8146CEBD1013302F0E7
:105060000F051B01032D1944034421D90F462C467B
:105070001E1F57F804CB043C032C46F804CFF8D885
:105080002C1F24F0030404342344214402F00302BF
:10509000002ABCD0013B0A4411F8014B914203F8AD
:1050A000014FF9D1F0BC70470346F1E70346F1E741
:1050B0002A46EDE7F0B4860743D0541E002A3ED0BE
:1050C000CAB2034602E014F1FF3438D303F8012BCF
:1050D0009D07F8D1032C2BD9CDB245EA05250F2C1D
:1050E00045EA054516D9A4F110073F0903F120064A
:1050F00006EB071603F1100242E9045542E9025596
:105100001032B242F8D104F00F040137032C03EB44
:1051100007130DD91E462246043A032A46F8045BBB
:10512000FAD8221F22F003020432134404F00304CD
:105130002CB1C9B21C4403F8011B9C42FBD1F0BC4A
:10514000704714460346C5E70B4B0C48196830B44A
:10515000D1E92A2300FB02F0094C04FB0300A2FB67
:105160000423541C034443F1000525F00040C1E929
:105170002A4530BC704700BF0C0200102DF4515876
:105180002D7F954C1F2938B524D8D0F8DC32054640
:105190000C4673B153F821205AB1012A13D0511C87
:1051A00014D00025204643F8245090472B4618463B
:1051B00038BD284600F030F8224601462846BDE8B2
:1051C000384000F015B80023184638BD16220123D8
:1051D0000260ECE716224FF0FF330260E7E700BF02
:1051E000024B01461868FFF7CDBF00BF0C0200104C
:1051F00070B50D460023074C06461146284623602D
:1052000005F038FC431C00D070BD2368002BFBD098
:10521000336070BD040F001005F024BC10B50C46BF
:10522000B1F90E1001F0AEFC002803DB236D03443E
:10523000236510BDA38923F48053A38110BD00BF53
:105240002DE9F041B1F90C409846E3050D461746AB
:10525000B1F90E10064607D50223002201F056F9D7
:10526000B5F90C40B5F90E1024F48054AC814346D6
:105270003A463046BDE8F04100F066B910B50C463C
:10528000B1F90E1001F042F9A389421C0EBF23F4BC
:10529000805343F480532065A38110BDB1F90E10F3
:1052A00000F068B980EA010C1CF0030F37D110F050
:1052B000030C20F0030021F0030150F8042B08BF79
:1052C00051F8043B0ED08CF0030C6FF07F434FEA93
:1052D000CC0C23FA0CFC51F8043B42EA0C0243EAE2
:1052E0000C0300BFA2F1013C9A4201BF2CEA020C60
:1052F0001CF0803F50F8042B51F8043BF2D04FEAE9
:1053000002604FEA1222012828BFB0EB036F08BFEA
:105310001B0AF4D003F0FF03000EC01A704710F010
:10532000030F0AD010F8012B11F8013B012A28BF06
:105330009A42F4D0A2EB030070474DF8045D50F898
:10534000042B01F0030521F0030151F8043B022D69
:1053500026D04DD822F07F45B5EB132FA2F1013CAA
:105360002CEA020C0DD11CF0803C08BF51F8043B24
:105370000AD185EA0205B5EB036F0CD150F8042B76
:10538000E8E74FEA13235BE03CF07F4C54D10B7805
:105390004FEA126554E04FEA126503F0FF034FE055
:1053A0004FEA0245A2F1013C4FEA15452CEA020CF6
:1053B000B5EB134F18D11CF0803C08BF51F8043BEB
:1053C00007D185EA0205B5EB034F09D150F8042B4C
:1053D000E6E75FEA0C4C2FD10B884FEA12452FE02D
:1053E0004FEA03434FEA12454FEA134328E000BF58
:1053F00002F0FF05B5EB136FA2F1013C2CEA020CA1
:105400000DD11CF0803C08BF51F8043B0AD185EA5D
:105410000205B5EB032F0AD150F8042BE8E74FEA59
:1054200013630DE012F0FF0F06D051F8043B4FEA72
:10543000122523F07F4303E04FF0000020BC7047AB
:1054400005F0FF0203F0FF00012828BF904204BFCF
:105450002D0A1B0AF4D0A2EB000020BC704700BF4D
:1054600020F0030110F00300C0F1000051F8043BEC
:1054700000F1040C4FEACC0C6FF000021CBF22FAC2
:105480000CF213434FF0010C4CEA0C2C4CEA0C4C80
:10549000A3EB0C0222EA030212EACC1204BF51F879
:1054A000043B0430F4D0C2F1000102EA0102B2FA76
:1054B00082F2C2F11F0200EBD200704770B5141ED9
:1054C0009AB005462ADB1A464FF402730091049104
:1054D000ADF80C304FF6FF7611D0013C1E9B6946AB
:1054E00002940594ADF80E6001F0C6FB421C01DA8F
:1054F0008B232B600022009B1A701AB070BD1E9B7C
:10550000694602940594ADF80E6001F0B5FB431CAA
:1055100001DB1AB070BD8B232B60FAE78B234FF0B1
:10552000FF302B60F5E700BF10B5064C82B000934A
:10553000246813460A4601462046FFF7BFFF02B023
:1055400010BD00BF0C020010F8B50E460025084C37
:10555000114607461A4630462560FBF785FD431C79
:1055600000D0F8BD2368002BFBD03B60F8BD00BF26
:10557000040F001038B50023064C0546084623608A
:10558000FBF756FD431C00D038BD2368002BFBD031
:105590002B6038BD040F00102DE9F04F03690E6930
:1055A00083B0B342C0F28680013E01F1140800F1DD
:1055B000140958F8263059F826700133B7FBF3F771
:1055C000B300009308EB030A4B440193002F3BD038
:1055D0000023C6461C46CC465EF8042BDCF800507F
:1055E0001FFA82FB07FB0B33120C4FEA134B07FB2E
:1055F00002BB9AB2A21AABB21FFA8BF41A44C4EBE4
:10560000154404EB224492B242EA0442F2454CF8BB
:10561000042B4FEA24444FEA1B43DDD2009B59F888
:1056200003308BB9019A131F99450CD252F8043CF0
:105630004BB9A2F1080302E01A68043B1AB9994574
:1056400006F1FF36F8D30661044601F0A7F90028F9
:105650002CDB4D460023013758F8041B28688AB21A
:105660009A1A0B0C81B20A44C3EB104303EB22439A
:1056700092B242EA0342C24545F8042B4FEA234363
:10568000EAD259F8262009EB86037AB91A1F914508
:105690000BD253F8042C42B9083B02E01A68043BD1
:1056A0001AB9994506F1FF36F8D32661384603B09A
:1056B000BDE8F08F002003B0BDE8F08F00000000CF
:1056C0002DE9F04F1F461646036C99B00446CDE90C
:1056D00002674BB10122456C1946AA40C3E9015249
:1056E00000F066FF002323643E1EB4BF01230023A5
:1056F000259AB8BF26F000461360754BB8BF0396D5
:10570000B34300F0A380DDE9028900220023404674
:10571000494603F075FC074678B10123249A1360CB
:10572000269B002B00F0BF806A4B269A03F1FF39BD
:105730001360484619B0BDE8F08F16AA17ABCDE943
:105740000032204642464B4601F0C4F9350D8346EF
:1057500040F09C80DDE91685454405F23243202B5C
:1057600040F33184C3F140039E40029B05F2124096
:1057700023FA00F0304303F061F90122013D0A925F
:10578000A1F1F8710022544B03F01AF84AA3D3E9AF
:10579000002303F0CDF94AA3D3E9002303F012F864
:1057A000064628460F4603F059F947A3D3E90023DC
:1057B00003F0BEF902460B463046394603F002F8C4
:1057C00006460F4603F064FC002205900023304695
:1057D000394603F01FFC002840F07782059E162E04
:1057E00000F26182DDE902233C4901EBC601D1E907
:1057F000000103F02DFC002800F0E183731E0593E7
:1058000000230D93A8EB0505B5F1010A00F15782BD
:1058100000230693059B002BC0F248829A440C9308
:1058200000230B93229B092B60D8052B40F3C983DF
:105830000026043B2293229B023B032B00F2A1840F
:10584000DFE813F0E603C803F003FC0442F20F7331
:10585000249A1360029B83B9C6F313066EB9269B84
:10586000DFF87C90002B3FF464AF09F10803484651
:10587000269A136019B0BDE8F08F269BDFF864907C
:10588000002B3FF456AF09F10303F0E7C9F313030C
:1058900043F07F514046A5F2FF350A9741F440118D
:1058A000DDF858806EE7DFF84090484619B0BDE853
:1058B000F08F00BFAFF3008061436F63A787D23FD3
:1058C000B3C8608B288AC63FFB799F501344D33FEF
:1058D0000000F07FC5C500000000F83F00C60000D2
:1058E000B4C50000C0C50000C4C500004FF0FF35BE
:1058F00001260023CDE90856229323930021149515
:105900006164204600F02EFE0E2D8146206400F2D8
:10591000FE80002E00F0FB80DDE9022316461F46C4
:105920000599CDE90E67002940F3E9839B4B01F00F
:105930000F020D1103EBC203D3E90012CDE90212ED
:10594000EA0640F1A084964B3946D3E90823304655
:1059500003F018FA0327CDE9100105F00F057DB11A
:10596000DDE902018E4EEB0704D5D6E9002303F0F2
:10597000DFF801376D1006F10806F4D1CDE9020118
:10598000DDE90223DDE9100103F0FCF9CDE90201B4
:105990000D9B43B1DDE902010022824B03F03AFB8B
:1059A000002840F00985384603F058F8DDE9022365
:1059B00003F0BEF87C4B002202F004FF089B054672
:1059C000A1F15076002B00F01E84059B1593089BD7
:1059D0001093DDE9020103F05BFB109A6F4B00F1BD
:1059E000300803EBC20353E90212CDE9121203F0AF
:1059F00035F80B460246DDE90201CDE9025602F018
:105A0000DFFE099B5FFA88F806460F4609F101059B
:105A1000002B00F06384DDE912230020634903F0CA
:105A2000B1F9DDE9022302F0CBFE89F800803246AD
:105A30003B46CDE9020103F00BFB002840F00E8548
:105A400032463B460020574902F0BAFE02460B465A
:105A5000DDE9020103F0FCFA002840F00985109A04
:105A6000012A50D04A44CDF848A0CDF840B0A04615
:105A7000DDE902ABCDF8089091460EE032463B4698
:105A80000020484902F09CFE52465B4603F0C2FAF1
:105A9000002840F0E6844D452ED05046594600225D
:105AA000434B03F045F80022414B82468B4630467B
:105AB000394603F03DF80F46064603F0E9FA04467E
:105AC00002F0CCFF02460B463046394602F078FE23
:105AD0003034E4B205F8014B52465B4606460F46A9
:105AE00003F098FA0028C9D0159BDDF840B0DDF826
:105AF00008904446059339E24446DDF848A0DDF8B5
:105B000040B0DDF80890DDE90E23CDE90223179BB4
:105B1000002BC0F2A980059A0E2A00F3A5801F4B26
:105B200003EBC203D3E90023CDE90623239B002B1B
:105B3000C0F2C182DDE90267DDE90623304639465D
:105B400003F020F903F0A4FA804602F087FFDDE9B4
:105B5000062302F0EDFF02460B463046394602F0BE
:105B60002FFE089E08F13005012E89F800500246EC
:105B70000B4609F101054CD000220D4B02F0D8FF75
:105B80000022002306460F4603F03AFA002840F0B0
:105B9000ED81CDF808B0DDE906AB18E000C60000E5
:105BA000D8C500000000F03F00001C400000E03FAE
:105BB000000024400022C64B02F0BAFF002200235E
:105BC00006460F4603F01CFA002840F04183524677
:105BD0005B463046394603F0D5F803F059FA804663
:105BE00002F03CFF52465B4602F0A2FF02460B4623
:105BF0003046394602F0E4FD08F1300605F8016B45
:105C0000089FA5EB0906B74202460B46D2D1DDF844
:105C100008B01046194602F0D5FDDDE90623064618
:105C20000F4603F015FA60B9DDE906233046394620
:105C300003F0E6F9002800F0998118F0010F00F058
:105C4000958115F8018C05E0994500F03A831D46D1
:105C500013F8018CB8F1390F05F1FF33F4D008F1D6
:105C6000010883F8008081E1099A002A3DD0229A38
:105C7000012A40F31282089B03F1FF380B9B434536
:105C8000C0F2E982A3EB0808089B002BC0F20E8348
:105C9000069A9A440A921A4406920121204600F07C
:105CA00023FD064626E001230D93ABE500230C936C
:105CB000DDE90532D21A5B4206920B93B2E5C5F1DB
