:10000000E07F0010A5110000D5110000D7110000FD
:10001000D9110000DB110000DD110000000000001C
:10002000000000000000000000000000DF110000E0
:10003000E111000000000000E3110000E5110000E4
:10004000E7110000E7110000E7110000E7110000D0
:10005000E7110000E7110000E7110000E7110000C0
:10006000E7110000E7110000E7110000E7110000B0
:10007000E7110000E7110000E7110000E7110000A0
:10008000E7110000E7110000E7110000E711000090
:10009000E7110000E7110000E7110000E711000080
:1000A000E7110000E7110000E7110000E711000070
:1000B000E7110000E7110000E7110000E711000060
:1000C000E7110000E7110000E71100000000000048
:1000D0000000000000000000000000000000000020
:1000E0000000000000000000000000000000000010
:1000F0000000000000000000000000000000000000
:1001000000000000000000000000000000000000EF
:1002F000000000000000000000000000FFFFFFFF02
:1003000010B5054C237833B9044B13B10448AFF34F
:1003100000800123237010BD900B0010000000002E
:10032000387C000008B5034B1BB103490348AFF309
:10033000008008BD00000000940B0010387C000015
:10034000154B002B08BF134B9D46A3F5803A0021A7
:100350008B460F461348144A121A01F0C5FE0F4B84
:10036000002B00D098470E4B002B00D09847002060
:10037000002104000D000D48002802D00C4800F0B8
:10038000E4F901F0C1FD2000290000F013FB00F0AA
:10039000D9F900BF00000800E07F00100000000055
:1003A000A5090000900B0010380E00104B0700004C
:1003B00000000000104E08B53446104D336801337C
:1003C00004D124220E490F4801F072F8E3686268F4
:1003D00028461A6001F034FB2368013304D124223B
:1003E0000749084801F064F82369626828461A60E2
:1003F00001F026FBE2E700BFAC0B0010CDCC4C3E79
:100400000C7100004B71000008B5054B0021184627
:10041000182201F069FEBDE80840024900F0D5BF8E
:10042000AC0B001032C00920431C10B5044604D1A7
:1004300015220649064801F03BF82046002100F04D
:10044000C1FA012004F01F04A04010BD6371000038
:100450005071000038B505464B1C0C4629600FD082
:100460000846FFF7E1FF24F01F0404F11803EB60D6
:1004700004F11C032B6104F1140368606B61AC6030
:1004800038BD006800F0C4BA38B5036804460133CB
:100490000D4604D12C220A490A4801F009F815B189
:1004A000012D07D038BDA2686168136823EA0103F3
:1004B000136038BDA268616813680B43F8E700BF9A
:1004C000637100004B71000038B5036804460133C6
:1004D0000D4604D124220549054800F0E9FF636870
:1004E00015B1E268136038BD2269FBE7CC710000EA
:1004F0004B71000010B586B000F0F8FF1449684653
:1005000000F063FF042401216846FFF7DDFF962019
:1005100001F0A2FA00216846FFF7D6FF962001F00D
:100520009BFA013CEFD1042401216846FFF7CCFF80
:100530004FF4C87001F090FA00216846FFF7C4FF3D
:100540004FF4C87001F088FA013CEDD1DAE700BF42
:1005500032C0092070B50D460446A0B000F0C6FFB9
:100560002B4622468021684601F0B0FE051E03DCC2
:1005700000F0D2FF20B070BD094B1B6823B9094AB7
:1005800009490A4800F058FD0024084E1DF80410DF
:100590003046013400F0B4FCA542F7D1E8E700BFD3
:1005A000D80B001003C0092002C00920080E00105B
:1005B0000FB407B504A951F8040B0191FFF7CAFF66
:1005C00003B05DF804EB04B0704700207047036887
:1005D00001221B69002118470022036811461B698C
:1005E000184703681B69184703689B691847036825
:1005F0009B6A184700290CBF6FF018000020704755
:100600000120704770476FF01C0070476FF01500B5
:10061000704701207047002070477047F8B51546B5
:100620000C46064E8F18BC4205D014F8011B30460C
:1006300000F066FCF7E72846F8BD00BF080E001082
:1006400038B58DB215F0010405D0084800F02CFC37
:10065000041C18BF0124EB0605D5044800F02AFC51
:1006600008B144F01004204638BD00BF080E001049
:1006700010B5044601F074FC204610BD10B50C46C0
:100680002AB1044800F0F6FB2070012010BD10468E
:1006900010BD00BF080E001038B51D46074B0446BC
:1006A0000360074B1B6833B9064800F0C5FC2946B8
:1006B000044800F0A9FA204638BD00BF547200007B
:1006C000D80B0010080E0010002070470020704763
:1006D0000C4A10B513681844EFF30881884205D31B
:1006E0000C22094B4FF0FF301A6010BD07490C680F
:1006F00024B10749096821448842F1D210601846A4
:1007000010BD00BFCC010010340E0010CC0B001047
:10071000D00B0010094C08B523680546986801F015
:100720004FFB2368D86801F04BFB01F09AF908B140
:1007300001F099F90DB1FFF7DDFEFEE7DC010010D5
:100740000120704708B5FFF7E5FF012070477047AB
:10075000704708B5FFF7FBFF08BD08B5FFF7F8FFC6
:1007600008BD000010B50378044603F00303012B15
:100770000CD02BB140F24A520549064800F098FED1
:100780002378012043F00203237010BD002010BD28
:100790009C720000F372000010B50378044603F069
:1007A0000303022B05D040F252520549054800F0E0
:1007B0007FFE237823F0030343F00103237010BD71
:1007C0009C720000197300003F2870B504462FDCAE
:1007D000184D55F820305A1C13D1022811DCFFF7B0
:1007E00075FF034658B92046FFF76EFF034630B940
:1007F000114E3378BFF35B8FDB0704D50F4B45F801
:100800002430184670BD3046FFF7ACFF0028F5D005
:100810004FF416530A4A0B490848FFF73DFF30468C
:10082000FFF7BAFF084A09490448FFF789FFE5E7DF
:100830000023E6E7CC000010C40B0010C80B00102A
:1008400003C0092002C00920C80000101B060000D8
:1008500038B505460024FFF7B7FF0B4B43F825409A
:1008600030B901F067F9092303604FF0FF3038BD5C
:1008700003685B699847051E04DA01F05BF96D4275
:100880000560F2E7204638BDCC000010FFF7E0BF5E
:1008900038B50C461546FFF797FF38B901F04AF90D
:1008A000092303604FF0FF34204638BD036821461A
:1008B000DB682A469847041EF6DA01F03BF96442E9
:1008C0000460EFE708B5131E06DA01F033F91623CA
:1008D00003604FF0FF3008BD04D0FFF7D9FF40EAB6
:1008E000E07008BD184608BD38B50C461546FFF740
:1008F0006BFF38B901F01EF9092303604FF0FF3494
:10090000204638BD036821469B682A469847041E46
:10091000F6DA01F00FF964420460EFE7002A08B547
:1009200003DBBDE80840FFF7DFBF01F003F9162342
:1009300003604FF0FF3008BD38B50C461546FFF791
:1009400043FF38B901F0F6F8092303604FF0FF3494
:10095000204638BD036821461B692A469847041E75
:10096000F6DA01F0E7F864420460EFE7FFF7E4BF6E
:100970007047704770470000074B10B59A680749E9
:100980000748043A52F8044F41F8044F8142F9D124
:100990004FF080529A6010BD00ED00E0FCFFFF0FA9
:1009A000C000001008B5FFF7E7FFFFF7E2FFFFF711
:1009B000E1FF08BD08B5FFF7DBFFBDE80840FFF722
:1009C000F9BC000038B5431C04460D4604D115227D
:1009D0000D490E4800F06CFD04F16040A0F51C20AC
:1009E0004200030903209B0003F1804303F53033E9
:1009F000196802F01E02904021EA0001196019688E
:100A000095400D431D6038BD5873000050710000C3
:100A100038B5431C05460C4604D120221749184816
:100A200000F046FD05F16040A0F51C2043099B0045
:100A300003F1804303F530339D6EC4F3800100F071
:100A40001F0201FA02F225EA02059D669D6E2A4305
:100A50009A6691B94200030903209B0003F1804389
:100A600003F53033196C02F01E02904021EA0001B8
:100A70001964196C94400C431C6438BD5873000011
:100A80005071000030B52A4B04689C4224D006DC2B
:100A9000A3F580439C420CD000231D460BE0254B60
:100AA0009C421CD003F580439C42F5D1224B082583
:100AB00001E00525214BAAB10122606802FA01F18B
:100AC000014361601E4905F110008968AA4041F8A0
:100AD00020301C4B1A6030BD1B4B0625EBE71B4B2F
:100AE0000725E8E701290AD042683820184B00FBA7
:100AF000023292F8363092F83520D34216D10123D3
:100B000003FA01F2B1FA81F16068490920EA0200B2
:100B10006060626803FA01F1114207D1094AAB40F3
:100B2000C2F88030BFF34F8FBFF36F8F30BD00BF6F
:100B30000000014000800940F50B0000B90B0000E7
:100B400000ED00E000E100E0CD0B0000E10B000053
:100B5000DC0B0010012810B408D0022808D010BC0B
:100B60007047506820F00100506010E003460EE02E
:100B700038230F4803FB01035868013006D0186979
:100B80009C68046093F83630002BEAD000233822AA
:100B900051430748421840580028E0D01BB992F84A
:100BA0003620002ADBD0034A1946126810BC1047D1
:100BB000DC0B0010D40B0010034A00219068C0F336
:100BC0004200FFF7C7BF00BF00C00040034A012139
:100BD0009068C0F34200FFF7BDBF00BF00000140B6
:100BE000034A02219068C0F34200FFF7B3BF00BF81
:100BF00000800940034A03219068C0F34200FFF7D8
:100C0000A9BF00BF00C009402DE9F04F754A0E464C
:100C100001688DB09142059004DD9B2272497348B2
:100C200000F046FC059B72491A688A4200F09C80DD
:100C300079DCA1F580418A4200F088806D4AD2F8C3
:100C400000903201B9FBF2F5ACB202FB1595002D14
:100C500000F0BF804FEA490308934FEA89030793E6
:100C6000079A01270392002233462146DDF820B07F
:100C7000CDF810900696029701921A464FF00008A0
:100C80005FFA87FABBF1000FABBF0398BBFBF2F42E
:100C9000B0FBF2F42409A8BF64090134C4F34F0483
:100CA0005FFA88F5002C00F09780B8F1000F02D0B1
:100CB000012C08BF022407EB080060430A93049B41
:100CC000C000B3FBF0F00130C6EB50000B9209916D
:100CD00000F02CFF069B099998420B9A0A9B62DA56
:100CE00086425BD10F2F07D12146CDF808A0019590
:100CF0000C46DDF808A0019D059B45EA0A151B6816
:100D0000EDB21A7B42F080021A73C4F30722E4B2F8
:100D10001A711C7083F828501A7B02F07F021A7334
:100D20000DB0BDE8F08F34498A4229D001F58041E9
:100D30008A4283D1314AD2F8AC1121F44021C2F861
:100D4000AC11D2F8AC1141F4802124E02B4AD2F846
:100D5000A81121F0C001C2F8A811D2F8A81141F0E1
:100D60004001C2F8A81169E7244AD2F8A81121F479
:100D70004071C2F8A811D2F8A81141F48071F0E7CF
:100D80001E4AD2F8AC1121F44031C2F8AC11D2F8AD
:100D9000AC1141F48031C2F8AC114FE72146069006
:100DA000CDF808A0019508F101085FFA88F05045D8
:100DB0003244FFF467AF0F2F9AD0049A07984A4441
:100DC0000492089A01379344039A334402440392ED
:100DD00053E74FF0010A8FE7B8F1000F0CBF012471
:100DE000022468E700C00940E47400004F75000069
:100DF00000000140D00100100080094000C00F40F9
:100E0000F8B55E1E012E07460C46154604D9FB2296
:100E10001349144800F04CFB053C032C04D9FC2278
:100E20000F49114800F044FB042D04D9FE220C495F
:100E30000E4800F03DFB013DEDB2032D8BBF0023BA
:100E400001221A460A4B44EA860498BF5B5744EADB
:100E5000C204396844EA0314E4B20C73F8BD00BF5D
:100E6000E4740000687500008D750000B075000026
:100E7000BF73000010B50268137DDB07FCD5382472
:100E800043680848117804FB03035868C9B201306D
:100E900006D058699B680360536843F001035360B0
:100EA000084610BDDC0B00100368187D00F001003F
:100EB000704700003821114A436801FB0323DA69B7
:100EC000013209D01A6B1B6A12681A4214D10368E6
:100ED000187DC0F3801070470268127D920604D519
:100EE0000022012083F83420704793F834000F2843
:100EF0008CBF00200120704700207047DC0B0010E1
:100F000038B504460D462046FFF7D4FF0028FAD036
:100F100038212368EDB21D706368044A01FB032386
:100F200093F83420013283F8342038BDDC0B0010F4
:100F30002DE9F84F9A463C4C03680546A34218BF7A
:100F400000248946904647681CB1237C03F03F0388
:100F5000237438234FF0FF32344E284603FB0763D7
:100F6000DA615A60002283F835201146FFF78AFDC6
:100F7000B9F1000F55D02E49404600F075FA2D49C1
:100F80008346504600F070FAA9F10203012B1BD8EA
:100F9000BAF1FF3F0BD0244B98420DD164B1237CB2
:100FA000244943F080032374504600F01FFAB9F13E
:100FB000030F0CD0BDE8F88F382000FB07605146C6
:100FC0001C3000F0E8F9F2E7B9F1010F29D1B8F1CE
:100FD000FF3F01D1BDE8F88F07222B681A72124B30
:100FE0009B450AD14CB1237C404643F04003237417
:100FF0000F49BDE8F84F00F0F9B9382404FB076049
:1010000041460022043000F0C9F901226B682846ED
:1010100004FB036686F835200021BDE8F84FFFF792
:1010200031BDBDE8F88F00BF00000140DC0B0010AF
:10103000E8730000C47300002DE9F8430F4605462D
:101040004D493846164600F01BFA4C4904463046D6
:1010500000F016FA0146204600F0ECF9411C044667
:1010600004D15C224649474800F022FA464B2C60E6
:101070009C4263D04DD8A3F580439C4256D04FF09C
:1010800001094FF0000884F808904FF416512846E3
:10109000C4F80480FFF7B8FD42464B4608212846B5
:1010A000FFF7AEFE3449384600F0A0F93349304628
:1010B00000F09CF97A1C03D041463846FFF7A8FCA3
:1010C000731C03D000213046FFF7A2FC2E4B9C423C
:1010D0004CD03FD8A3F580439C4244D038216A6865
:1010E0002A4B284601FB02324FF0FF3300215360A8
:1010F000D3611A46FFF71CFF254B9C423AD10122CF
:10110000244B29461A6024480822BDE8F84300F021
:1011100075BF224B9C4217D003F580439C42AED151
:101120001F4AD2F8C43043F0007304E01C4AD2F8DE
:10113000C43043F00803C2F8C430A0E7184AD2F81C
:10114000C43043F01003F6E7154AD2F8C43043F038
:101150008073F0E7114B9C420AD003F580439C4218
:10116000BCD1032300E000236B60B7E70123FBE75A
:101170000223F9E7BDE8F883787400000C740000DE
:10118000E47400003476000000000140DC0B001025
:1011900000C00040D80B0010080E0010008009406D
:1011A00000C00F400649074A074B9A42BEBF51F89C
:1011B000040B42F8040BF8E7044880470448004752
:1011C000447C0000C8000010900B0010E9110000E2
:1011D00041030000FEE7FEE7FEE7FEE7FEE7FEE76D
:1011E000FEE7FEE7FEE7FEE72022264BC3F8A0213C
:1011F000D3F8A021920603D5D3F8A0215006FBD541
:101200000222C3F8042100220120C3F8A821C3F858
:10121000AC210B22C3F80C01AA21C3F8842055226B
:10122000C3F88C10C3F88C20C3F88000C3F88C106E
:10123000C3F88C20134B1A46D3F888104901FBD50C
:101240000321C3F88010AA21C3F88C105521C3F8DC
:101250008C10D2F8883013F0407FFAD00523C2F802
:101260000831094BC2F8C4300023C2F8C8311368F2
:1012700023F4704323F03A0343F4405343F03A031A
:101280001360704700C00F40DE8728040048704795
:1012900044760000014B9868704700BF0040094049
:1012A000034B98615A6942F001025A61704700BFCE
:1012B000004009401022024BC3F80021704700BFD4
:1012C00000E100E0024A536923F0010353617047D3
:1012D00000400940114B187808B1FFF7F3BF012116
:1012E0000F4A1970D2F8C43043F40003C2F8C43076
:1012F000A2F5D022106702200A4B1B6850600A48F2
:10130000B3FBF0F3013BD360084B51609B68084A84
:101310001A651022074B1A60704700BFBC0C001002
:1013200000C00F40D001001000093D0000ED00E0BA
:10133000D913000000E100E00122014B1A60704760
:101340000040094038B50368044601330D4604D116
:1013500024220549054800F0ABF8636815B1E2683E
:10136000136038BD2269FBE7CC7100004B710000AF
:1013700070B50E4604461546FFF76CF8013609D0E5
:1013800020460021FFF780F829462046BDE870403E
:10139000FFF777B870BD0322FFF7EABF70B50E46BE
:1013A00004461546FFF756F801360DD0294620466B
:1013B000FFF7C8FF20460121FFF766F82046BDE889
:1013C00070400221FFF75DB870BD0022FFF7E6BF55
:1013D000004870474C760000024B1B680BB1024876
:1013E00018477047D40100104C76000013B504462E
:1013F00001300FD102B010BD9C420AD1204689684D
:10140000FFF7E0FA0221204602B0BDE81040FFF7E6
:10141000FFBA0C310B685A1CEED100232246009310
:101420000249034800F0E4FAE4E700BFA1760000B7
:1014300030010180884207B502460BD0431C09D019
:1014400001310BD0002306490093064800F0D0FA82
:101450004FF0FF31084603B05DF804FB0146F9E7A1
:1014600070760000300101800B685A1C01D11846CB
:101470007047834201D1486870470C31F4E700009F
:10148000421C13B504460BD0FFF7EEFF431C044685
:1014900006D10023024600930349044800F0A8FA4D
:1014A000204602B010BD00BF8176000030010180EF
:1014B00070B504460D46164600F018F833462A4625
:1014C00021460348FFF774F8BDE87040FFF712B8F3
:1014D000B2760000EFF31080C04300F001007047C7
:1014E000EFF30580003018BF0120704710B5074C9E
:1014F0002368013304D1552205490648FFF7D8FF78
:1015000000F0C4FA23680133236010BD000D001001
:10151000E376000038770000054B1A6832B11A688C
:10152000013A1A601B680BB900F0C2BA704700BFDD
:10153000000D00102DE9F74F90E8080404465B68A1
:10154000984763681B6A98423FD0DAF82030DAF88F
:101550000840A0EB0308CAF82000DAF80C30314844
:1015600008EA0308844246464FF0000727D0DAE92C
:101570000A239AF839B0A8FB0089CDE90023002599
:10158000BBF1000F2BD05A464046494604F02EF8D6
:10159000DDE9002312EB080243EB090390465A46AB
:1015A000994606460F4604F02DF8B8EB000069EBAB
:1015B0000101A94208BFA0420AD2CAE90A01DAE938
:1015C0000C23B6185F41CAE90C6703B0BDE8F08F81
:1015D000013647F10007001B61EB0501EDE72246EC
:1015E0002B464046494604F023FE224606460F4657
:1015F000404649462B4604F01BFEDDE9008918EB06
:10160000020849EB0309A94508BFA04502D2CAE96F
:101610000A89D4E7013647F10007B8EB040869EB03
:101620000509F4E740420F00824206D98A420BD9ED
:10163000884294BF002001207047884206D98A4220
:101640008CBF0020012070470120704700207047A8
:101650002DE9F04707464668FFF76CFF7D68D7F82D
:1016600000A06B68002B49D0D5E90C89D3E90001B3
:10167000894508BF804504D3DAF81430BDE8F04747
:101680001847B0EB080861EB0909D5E906234B457B
:1016900008BF42452C6906D3AB681E4A934219D154
:1016A000444528BF44462A6A336A1444EA68144011
:1016B000A342E1D0DAF81030204698473B685B68D7
:1016C000984722460146306AFFF7AEFF00B33B68F9
:1016D0005B69D3E795F839205AB14046494603F093
:1016E00091FF0C4A002304F0A3FD844228BF044666
:1016F000D9E7A3FB080103FB0911F2E73369306A5C
:10170000F26818441040DAF81030BDE8F047184786
:10171000BDE8F08740420F002DE9F74F054603680A
:101720001B6898472B689B699847066804462EB942
:1017300029222D492D48FFF7BBFE2D4E1F230122E4
:1017400002FA03F1B1425FFA83FB02D0013BF7D109
:101750009B46D4F804A0AAF104031C2B06D9372217
:1017600021492248FFF7A4FE4FF0200A0727AAF1DB
:1017700004039F40002316F1FF301D4C43F1FF315D
:101780003246C4FB070104F053FD00236C68CDE929
:101790000001236063602B684FF000085B68984786
:1017A0004FF0000920626C685246C4E90A89A660BD
:1017B00084F839B00120002103F024FFDDE9002383
:1017C000C4E9062301230138E06027612846C4E903
:1017D0000C8984F83830FFF7ADFE284603B0BDE829
:1017E000F04FFFF735BF00BF69770000BB770000FF
:1017F00040420F0070B50446FFF778FE2368DB68AF
:10180000984763685B68A3B12046FFF793FE65685D
:101810006E68D5E90C01D6E90023994208BF9042D1
:1018200007D3F3686B602B68002BEAD0B068984749
:10183000E7E72046FFF70CFFBDE87040FFF76CBEFE
:10184000436810B593F8383004460BB9FFF764FFCE
:10185000FFF74CFE2046FFF76DFEFFF75DFE636865
:10186000D3E90C0110BD08B5FFF7EAFF08BD000081
:101870002DE9F0411C4C1D4E237836EA200628BF86
:101880000646012B88B0F0460F4600D1FEE7FFF771
:101890002DFE0123164D2370FFF73EFE2B6800221C
:1018A0000133202168462B6000F01EFC2B688DE878
:1018B0004001012B029704D1202269460D4800F017
:1018C0009DFB202269460C4800F098FB684600F01A
:1018D00009F90A4B1B680BB1074898470020207094
:1018E00008B0BDE8F08100BF0C0D00100101FF80C1
:1018F000040D0010100D0010300D0010080D001028
:101900007FB52D4C064621682C48C1F34173032B4B
:101910000CBF4D428DB2C1F307432A46FEF748FE85
:101920006FF49E72AB18032B0CD83046FEF740FEC6
:10193000A1682348FEF73CFE224804B0BDE8704091
:10194000FEF736BE6FF498731D44072D09D8DFE803
:1019500005F0041D2023262C292FA1681A48FEF724
:1019600027FE30460021FEF723FE61681748FEF788
:101970001FFEE36904F108010293A369144801936F
:10198000636900930EC9FEF713FED5E7A1681148FD
:10199000E5E7A1681048E2E7A1681048DFE7A16821
:1019A0000F48DCE7A1680F48D9E7A1680E48D6E7E1
:1019B000A1680E48D3E700BF300D0010BD770000CE
:1019C0000E7800001D7900001F780000AC78000040
:1019D000BC780000347800004378000051780000A3
:1019E000637800007678000089780000977800001E
:1019F00010B50C461146FFF73BFF68B92046FFF7CC
:101A00007FFFFFF76DFD10B9FFF764FD08B930BF28
:101A1000FDE70120FEF796FE004810BD0F01FF8094
:101A200070B50446FFF7D4FC0646FFF71CFF0546D9
:101A30003046FFF718FF401BA042F9D370BD0000ED
:101A400008B5044904F07EFA04F0CCFBBDE8084078
:101A5000FFF7E6BF002474494FF47A735843FFF749
:101A6000DFBF00F00BB830B585B06D4618242046B6
:101A70002946ABBE0446204605B030BD024B18686F
:101A800000F00100704700BFF0ED00E0EFF31083BD
:101A9000DB4372B6044A117829B9044903F0010303
:101AA0000B70012313707047510D0010500D001082
:101AB00008B5EFF31083DB0704D436220549064846
:101AC000FFF7F6FC0022054B1A70054B1B7803B19B
:101AD00062B608BD3779000093790000510D0010FF
:101AE000500D001010B50446B8B1FFF7FFFC0C4ACA
:101AF0000C4813682146013313605A4202F0030276
:101B000003F0030358BF534200EB4310202200F0C0
:101B100075FAFFF701FD002010BD034810BD00BF9E
:101B2000D8010010540D00100101FF800028B8BF3B
:101B300040427047014B1868704700BFDC0100103D
:101B400070B5002948D005460C4610B1836B002BB8
:101B500048D0626EB4F90C30D00740D4990530D526
:101B60002146284600F054F8E36A064633B1E1699D
:101B7000284698470028B8BF4FF0FF36A3891A06B9
:101B80003CD4216B41B104F14003994202D0284674
:101B900004F0D4FC00232363616C21B1284604F0D7
:101BA000CDFC0023636400F07BF90022636EA28108
:101BB000DB071FD5A06D00F0CDF900F077F93046B6
:101BC00070BDA06D00F0C8F9B4F90C30002BC7D17E
:101BD000666E16F0010616D00026304670BD002B4A
:101BE000FAD0BDE700F02CF9626EB4F90C30D007E2
:101BF000F5D4B3E7A06D00F0B1F9DBE72169284621
:101C000004F09CFCBDE7A06D00F0A8F9304670BD63
:101C1000B1F90C302DE9F0419AB20C46110780461B
:101C200044D4626843F40063002AA3815ADDA56AA4
:101C3000002D54D000229BB2D8F80060E169C8F8AA
:101C4000002013F4805240F0848001234046A847CE
:101C5000431C4BD0A389A56AE1695F0705D562687B
:101C6000236B801A0BB1E36BC01A02460023404677
:101C7000A847451C46D00021B4F90C30226923F452
:101C80000063A381DB04C4E9002100D52065216B3A
:101C9000C8F8006019B304F14003994202D04046ED
:101CA00004F04CFC00202063BDE8F0812669B6B149
:101CB000920718BF0023256808BF63692660AD1B23
:101CC000A3600AE02B463246676AE1694046B8479E
:101CD0000028A5EB000506442BDD002DF2DC0020DA
:101CE000BDE8F081E26B002AA1DCF8E7D8F800300B
:101CF000002BAFD01D2B01D0162B2CD1C8F80060C3
:101D00000020EDE7D8F800501D2D1AD8144BB4F977
:101D10000C20EB40DB4313F0010314D1216922F4C2
:101D20000062C4E90013D104A281B0D5002DAED168
:101D3000ACE7A3894FF0FF3043F04003A381BDE837
:101D4000F081B4F90C2042F04002A2814FF0FF3044
:101D5000C6E7206D81E7A38943F04003A381BFE775
:101D60000100402038B50D46044608B1836BA3B18D
:101D7000B5F90C00B8B16B6EDB0701D481051AD53B
:101D800020462946FFF744FF6B6E0446DA0702D46B
:101D9000AB899B050AD5204638BD00F051F8B5F94E
:101DA0000C000028E7D10446204638BDA86D00F09D
:101DB000D5F8204638BDA86D00F0CEF8E0E700BFAA
:101DC00020B1054B01461868FFF7CCBF034B04490F
:101DD000186800F071B800BFDC010010B079000095
:101DE000651D0000002310B504468181C281C0E951
:101DF000003383604366C0E90433836119460822D7
:101E00005C3000F071F907480749084A084BC4E9FB
:101E10000740C4E90912E36204F15800BDE810402C
:101E200000F096B87D210000A1210000DD21000016
:101E3000FD210000014900F03FB800BF411B000038
:101E400010B50446144800F087F8A26BFAB90320D5
:101E5000124904F53B73C4F8E832C4F8E022C4F830
:101E6000E402E16360680421FFF7BCFFA06801227F
:101E70000921FFF7B7FFE06802221221FFF7B2FF46
:101E800001230548A363BDE8104000F067B802488D
:101E9000BDE8104000F062B81C0E0010351E0000B6
:101EA000014800F059B800BF300E0010014800F0A2
:101EB00055B800BF300E00102DE9F84310F5387604
:101EC0001ED0884607464FF00009D6E90154013D6F
:101ED00010D4A389013D012B08D9B4F90E30013388
:101EE00004D021463846C04749EA00096B1C04F17A
:101EF0006804EED13668002EE7D14846BDE8F88385
:101F0000B1464846BDE8F88370B50D4E0D4D761BC1
:101F1000B61006D00024013455F8043B9847A64279
:101F2000F9D1094E094D05F0E5F8761BB61006D03B
:101F30000024013455F8043B9847A642F9D170BDFE
:101F4000840B0010840B00108C0B0010840B00100D
:101F5000704700BF704700BF704700BF704700BFA9
:101F6000024B0146186804F0E9BA00BFDC0100101A
:101F7000830770B4CDB23DD0541E0AB30378AB4290
:101F80001FD0431C05E014F1FF3419D30278AA4294
:101F900017D013F0030F184603F10103F3D1032CFC
:101FA00011D84CB30378AB420BD00444431C02E07D
:101FB0000278AA4205D09C42184603F10103F7D1EA
:101FC000002070BC704706460A0292B22A4342EAD9
:101FD0000242336830465340A3F1013121EA030342
:101FE00013F0803F06F10406DCD1043C032C30469C
:101FF000EFD8D6E71446D2E72046E2E7844641EA26
:10200000000313F0030349D1403A23D30B68036064
:102010004B6843608B688360CB68C3600B69036166
:102020004B6943618B698361CB69C3610B6A03624E
:102030004B6A43628B6A8362CB6AC3620B6B036336
:102040004B6B43638B6B8363CB6BC363403040311B
:10205000403ADBD230320BD30B6803604B684360ED
:102060008B688360CB68C36010301031103AF3D2B4
:102070000C3205D351F8043B40F8043B043AF9D242
:10208000043208D0D2071CBF11F8013B00F8013B15
:1020900001D30B8803806046704700BF082A13D322
:1020A0008B07B1D010F00303AED0C3F10403D21AF2
:1020B000DB071CBF11F8013B00F8013BA4D331F84A
:1020C000023B20F8023B9FE7043AD9D3013A11F8CA
:1020D000013B00F8013BF9D20B7803704B78437059
:1020E0008B78837060467047F0B4860743D0541EE7
:1020F000002A3ED0CAB2034602E014F1FF3438D3BE
:1021000003F8012B9D07F8D1032C2BD9CDB245EA5A
:1021100005250F2C45EA054516D9A4F110073F09FE
:1021200003F1200606EB071603F1100242E90455FD
:1021300042E902551032B242F8D104F00F040137DF
:10214000032C03EB07130DD91E462246043A032A3B
:1021500046F8045BFAD8221F22F00302043213442B
:1021600004F003042CB1C9B21C4403F8011B9C42C7
:10217000FBD1F0BC704714460346C5E710B50C46CA
:10218000B1F90E1001F0CEFB002803DB236D0344F0
:10219000236510BDA38923F48053A38110BD00BF24
:1021A0002DE9F041B1F90C409846E3050D4617467C
:1021B000B1F90E10064607D50223002201F076F889
:1021C000B5F90C40B5F90E1024F48054AC814346A7
:1021D0003A463046BDE8F04100F088B810B50C46EC
:1021E000B1F90E1001F062F8A389421C0EBF23F46E
:1021F000805343F480532065A38110BDB1F90E10C4
:1022000000F08AB820F0030110F00300C0F10000D4
:1022100051F8043B00F1040C4FEACC0C6FF00002C3
:102220001CBF22FA0CF213434FF0010C4CEA0C2CA9
:102230004CEA0C4CA3EB0C0222EA030212EACC1289
:1022400004BF51F8043B0430F4D0C2F1000102EAAB
:102250000102B2FA82F2C2F11F0200EBD200704713
:1022600070B5141E9AB005462ADB1A464FF4027365
:1022700000910491ADF80C304FF6FF7611D0013C7F
:102280001E9B694602940594ADF80E6001F0C4FBF4
:10229000421C01DA8B232B600022009B1A701AB0BB
:1022A00070BD1E9B694602940594ADF80E6001F066
:1022B000B3FB431C01DB1AB070BD8B232B60FAE724
:1022C0008B234FF0FF302B60F5E700BF10B5064CB5
:1022D00082B00093246813460A4601462046FFF761
:1022E000BFFF02B010BD00BFDC010010F8B50E4604
:1022F0000025084C114607461A4630462560FEF771
:10230000E1FA431C00D0F8BD2368002BFBD03B60F2
:10231000F8BD00BF340E001038B50023064C05464A
:1023200008462360FEF7B2FA431C00D038BD23688C
:10233000002BFBD02B6038BD340E00102DE9F04F80
:1023400003690E6983B0B342C0F28680013E01F199
:10235000140800F1140958F8263059F82670013392
:10236000B7FBF3F7B300009308EB030A4B44019368
:10237000002F3BD00023C6461C46CC465EF8042BFB
:10238000DCF800501FFA82FB07FB0B33120C4FEAFC
:10239000134B07FB02BB9AB2A21AABB21FFA8BF423
:1023A0001A44C4EB154404EB224492B242EA0442BC
:1023B000F2454CF8042B4FEA24444FEA1B43DDD28C
:1023C000009B59F803308BB9019A131F99450CD221
:1023D00052F8043C4BB9A2F1080302E01A68043B2E
:1023E0001AB9994506F1FF36F8D30661044601F0A3
:1023F000A5F900282CDB4D460023013758F8041BB3
:1024000028688AB29A1A0B0C81B20A44C3EB1043B3
:1024100003EB224392B242EA0342C24545F8042B41
:102420004FEA2343EAD259F8262009EB86037AB90A
:102430001A1F91450BD253F8042C42B9083B02E015
:102440001A68043B1AB9994506F1FF36F8D326619C
:10245000384603B0BDE8F08F002003B0BDE8F08F30
:102460002DE9F04F1F461646036C99B00446CDE99E
:1024700002674BB10122456C1946AA40C3E90152DB
:1024800000F066FF002323643E1EB4BF0123002337
:10249000259AB8BF26F000461360754BB8BF039667
:1024A000B34300F0A380DDE9028900220023404607
:1024B000494603F0D7FC074678B10123249A1360FC
:1024C000269B002B00F0BF806A4B269A03F1FF3950
:1024D0001360484619B0BDE8F08F16AA17ABCDE9D6
:1024E0000032204642464B4601F0C4F9350D834682
:1024F00040F09C80DDE91685454405F23243202BEF
:1025000040F33184C3F140039E40029B05F2124028
:1025100023FA00F0304303F0C3F90122013D0A928F
:10252000A1F1F8710022544B03F07CF84AA3D3E9DF
:10253000002303F02FFA4AA3D3E9002303F074F831
:10254000064628460F4603F0BBF947A3D3E900230C
:1025500003F020FA02460B463046394603F064F891
:1025600006460F4603F0C6FC0022059000233046C5
:10257000394603F081FC002840F07782059E162E34
:1025800000F26182DDE902233C4901EBC601D1E999
:10259000000103F08FFC002800F0E183731E059317
:1025A00000230D93A8EB0505B5F1010A00F1578250
:1025B00000230693059B002BC0F248829A440C939B
:1025C00000230B93229B092B60D8052B40F3C98372
:1025D0000026043B2293229B023B032B00F2A184A2
:1025E000DFE813F0E603C803F003FC0442F20F73C4
:1025F000249A1360029B83B9C6F313066EB9269B17
:10260000DFF87C90002B3FF464AF09F108034846E3
:10261000269A136019B0BDE8F08F269BDFF864900E
:10262000002B3FF456AF09F10303F0E7C9F313039E
:1026300043F07F514046A5F2FF350A9741F440111F
:10264000DDF858806EE7DFF84090484619B0BDE8E5
:10265000F08F00BFAFF3008061436F63A787D23F65
:10266000B3C8608B288AC63FFB799F501344D33F81
:102670000000F07FC57900000000F83F007A0000FC
:10268000B4790000C0790000C47900004FF0FF3534
:1026900001260023CDE908562293239300211495A7
:1026A0006164204600F02EFE0E2D8146206400F26B
:1026B000FE80002E00F0FB80DDE9022316461F4657
:1026C0000599CDE90E67002940F3E9839B4B01F0A2
:1026D0000F020D1103EBC203D3E90012CDE9021280
:1026E000EA0640F1A084964B3946D3E908233046E8
:1026F00003F07AFA0327CDE9100105F00F057DB14B
:10270000DDE902018E4EEB0704D5D6E9002303F084
:1027100041F901376D1006F10806F4D1CDE9020147
:10272000DDE90223DDE9100103F05EFACDE90201E3
:102730000D9B43B1DDE902010022824B03F09CFBBB
:10274000002840F00985384603F0BAF8DDE9022395
:1027500003F020F97C4B002202F066FF089B05463F
:10276000A1F15076002B00F01E84059B1593089B69
:102770001093DDE9020103F0BDFB109A6F4B00F1ED
:10278000300803EBC20353E90212CDE9121203F041
:1027900097F80B460246DDE90201CDE9025602F048
:1027A00041FF099B5FFA88F806460F4609F10105CB
:1027B000002B00F06384DDE912230020634903F05D
:1027C00013FADDE9022302F02DFF89F8008032467A
:1027D0003B46CDE9020103F06DFB002840F00E8579
:1027E00032463B460020574902F01CFF02460B468A
:1027F000DDE9020103F05EFB002840F00985109A34
:10280000012A50D04A44CDF848A0CDF840B0A046A7
:10281000DDE902ABCDF8089091460EE032463B462A
:102820000020484902F0FEFE52465B4603F024FBBE
:10283000002840F0E6844D452ED0504659460022EF
:10284000434B03F0A7F80022414B82468B463046AB
:10285000394603F09FF80F46064603F04BFB04464B
:1028600003F02EF802460B463046394602F0DAFEF7
:102870003034E4B205F8014B52465B4606460F463B
:1028800003F0FAFA0028C9D0159BDDF840B0DDF856
:1028900008904446059339E24446DDF848A0DDF847
:1028A00040B0DDF80890DDE90E23CDE90223179B47
:1028B000002BC0F2A980059A0E2A00F3A5801F4BB9
:1028C00003EBC203D3E90023CDE90623239B002BAE
:1028D000C0F2C182DDE90267DDE9062330463946F0
:1028E00003F082F903F006FB804602F0E9FFDDE920
:1028F000062303F04FF802460B463046394602F0F5
:1029000091FE089E08F13005012E89F8005002461C
:102910000B4609F101054CD000220D4B03F03AF8AB
:102920000022002306460F4603F09CFA002840F0E0
:10293000ED81CDF808B0DDE906AB18E0007A0000C3
:10294000D87900000000F03F00001C400000E03F8C
:10295000000024400022C64B03F01CF80022002394
:1029600006460F4603F07EFA002840F041835246A7
:102970005B463046394603F037F903F0BBFA804630
:1029800002F09EFF52465B4603F004F802460B46F7
:102990003046394602F046FE08F1300605F8016B74
:1029A000089FA5EB0906B74202460B46D2D1DDF8D7
:1029B00008B01046194602F037FEDDE90623064648
:1029C0000F4603F077FA60B9DDE906233046394651
:1029D00003F048FA002800F0998118F0010F00F088
:1029E000958115F8018C05E0994500F03A831D4664
:1029F00013F8018CB8F1390F05F1FF33F4D008F169
:102A0000010883F8008081E1099A002A3DD0229ACA
:102A1000012A40F31282089B03F1FF380B9B4345C8
:102A2000C0F2E982A3EB0808089B002BC0F20E83DA
:102A3000069A9A440A921A4406920121204600F00E
:102A400023FD064626E001230D93ABE500230C93FE
:102A5000DDE90532D21A5B4206920B93B2E5C5F16D
:102A6000010306934FF0000AA4E5DDF814904846F0
:102A700002F026FF32463B4603F0F4F900287FF4CB
:102A80007DAD09F1FF33059378E5069BDDF82C80D9
:102A9000099E0A930A9900290B460CDDBAF1000F32
:102AA00009DD5145A8BF5346069AAAEB030AD21A7C
:102AB0000692CA1A0A920B9B7BB1099A002A00F06F
:102AC0009082A3EB0807B8F1000F40F09A815946B5
:102AD0003A46204600F088FD83460121204600F05A
:102AE000D3FC0C9A0746002A40F02581229B012B3B
:102AF00040F36B810120504410F01F0000F0198159
:102B0000C0F12003042B40F3B483C0F11C00069BEA
:102B10008244034406930A9B03440A93069B002BBA
:102B200005DD59461A46204600F0AEFD8346BAF14F
:102B3000000F05DD39465246204600F0A5FD074648
:102B40000D9B002B77D1089B002B40F30582099B3E
:102B5000002B00F089800A9B002B00F367810C9BFF
:102B6000002B40F0CA81B246C846029B089A03F087
:102B700001030A9309F1FF331A440692CDF82C9011
:102B800039465846FFF7DAFB3146814609905846E8
:102B900000F0D4FD524602903946204600F0EAFD8E
:102BA000C268054609F130090146002A40F0CF818C
:102BB000584600F0C3FD29460890204600F0C8FBA7
:102BC000089A32B9229B23B90A9B002B00F0248378
:102BD000229A029B002BC0F2198205D1229B1BB9BD
:102BE0000A9B002B00F01282002A08F1010500F375
:102BF0002182069B88F80090434500F02C825946BC
:102C000000230A22204600F0ADFB5645834631469C
:102C10004FF000034FF00A02204600F0928100F0CE
:102C2000A1FB5146064600230A22204600F09AFBEB
:102C3000A8468246A4E73946584600F07FFD0028A2
:102C400081DA059D594600230A222046013D05955B
:102C500000F088FB099B8346002B40F0EE82149B1A
:102C6000002B40F3F98208934D46DDF8208008E000
:102C700000002440594600230A22204600F072FB3F
:102C8000834639465846FFF759FB303005F8010BAB
:102C9000A5EB09029045EDDC00220346029259465D
:102CA00001222046089300F0EFFC3946834600F0ED
:102CB00045FD002815F8012C089B11DC05D1DB0728
:102CC0000ED402E015F8022C1D46302A05F1FF3320
:102CD000F8D00BE0994500F04C811D4613F8012C0B
:102CE000392A05F1FF33F5D001321A7039462046F2
:102CF00000F02EFB56B1029921B1B14202D020461C
:102D000000F026FB3146204600F022FB59462046C3
:102D100000F01EFB0022059B2A70249A01331360E9
:102D2000269B002B3FF4D5AB48461D6019B0BDE88B
:102D3000F08F1C20EBE60146204600F055FC229B5C
:102D40000746012B40F3D48000230C933B6907EB2B
:102D50008303186900F048FBC0F12000CBE60D901A
:102D600020E4012637E4C3F12006029B03FA06F0B3
:102D7000FFF7D1BB00230993059B239A13441493B7
:102D80000133012B1F46B8BF012708930021172FDD
:102D9000089D61647FF785AC012204235B0003F189
:102DA0001400B842114602F10102F7D9616478E4D7
:102DB00000230993239B002B40F3E2801493089394
:102DC0001F46E3E701230993F4E7029B002B7FF4FE
:102DD00091AEDDE90212C2F31303002B40F099819A
:102DE00022F000431B0D1B052BB1069B0AF1010AC3
:102DF0000133069301230C9A0C93002A3FF47AAE18
:102E0000A4E742463146204600F0EEFB5A46014612
:102E10000646204600F042FB80465946204600F018
:102E200097FAC346002F3FF458AE50E631461A4693
:102E3000204600F029FC064691E60A9A002A00F096
:102E40005D81069A03F233430A921A449A44069229
:102E5000DDF82C80F1E5089B002B3FF73BAD40F0FF
:102E6000F881DDE906010022B54B02F093FDDDE9B2
:102E7000022303F015F8089F3E46002874D1312341
:102E8000059A89F800300132059209F101053946A9
:102E9000204600F05DFA002E7FF434AF36E700F0F4
:102EA0004881DDE90E01059B5D42A64B05F00F024E
:102EB00003EBC203D3E9002302F06CFD2D11CDE931
:102EC000020100F0CE81002302279F4EEA0705D5BC
:102ED000D6E9002302F05EFD01231F446D1006F1C8
:102EE0000806F3D1002B3FF423ACCDE902011FE427
:102EF000029B002B3FF46DAF26E77168204600F07F
:102F000001FA0546336906F10C0102339A000C30D0
:102F1000FFF774F829460122204600F0B5FB8246EF
:102F200022E6002520466564294600F0EBF94FF0C3
:102F3000FF3314930893012381462395206409935A
:102F4000B5E400F00FFAA8460646824618E6204689
:102F500000F0FEF901223CE6229B022B7FF7F7AD41
:102F6000089B002B00F0D780239B4D46DB43059345
:102F70008DE73123059A89F8003001320592B5E6D4
:102F8000012523950895FFF789BB384602F098FC88
:102F9000DDE9022302F0FEFC00226C4B02F044FB50
:102FA0000546A1F15076DDE902010022644B02F0F2
:102FB00039FB2A463346CDE9020102F07BFF074682
:102FC000002858D1DDE902012A4606F1004302F04B
:102FD00053FF00283FF467AC3E46C5E70123099341
:102FE000CAE659460B9A204600F0FEFA834674E57D
:102FF000DDF808B08AE60B9B0C9AA8EB03031A4491
:10300000CDF82C800C924FF000080DE5002A4B46BD
:1030100008F10105DDF82C9000F3C580029688F8D0
:103020000030564662E6DDE90E230227CDE9102383
:10303000FFF765BB4B46392BDDF82C9000F0C580BF
:103040000133029688F8003056464FE6069B089AF0
:103050009B1A0A93F1E44B460296DDF82C905646F3
:103060001DE6302389F80030059B15F8018C0133EB
:1030700005934B46C3E400273E4600E7DDE91223F3
:10308000DDE9020102F086FC109BCDE90201012B73
:1030900089F8008021D0109BCDF840A04B449A467F
:1030A00000222B4B3046394602F074FC0F46064690
:1030B00002F020FF804602F003FC02460B46304639
:1030C000394602F0AFFA08F1300805F8018B554592
:1030D00006460F46E4D1DDF840A00022DDE90201FA
:1030E0001C4B02F0A1FA32463B4602F0C5FE002816
:1030F00071D0159B059315F8018C7BE4169B069AFD
:10310000C3F136030A921A449A440692DDF82C80E1
:1031100093E400236FE639460522204600F022F9A9
:1031200001460746584600F009FB00283FF7A7AEC6
:103130001AE7DDE90E230227CDE90223FFF7F8BAEB
:1031400000001440007A0000D879000000001C4004
:10315000000024400000E03F089B002B3FF415AF27
:10316000149B002B7FF79FABDDE902010022454B4A
:1031700002F010FC05460E46781CCDE9025602F01E
:103180009FFB2A46334602F005FC00223E4B02F02C
:103190004BFA059A149B013A05461592A1F1507617
:1031A0001093FFF7E6BA594601222046029300F039
:1031B0006BFA3946834600F0C1FA0028029B36DDDF
:1031C000392B02D0099B313328E73922029688F83F
:1031D0000020564684E5DDE9022300202B4902F059
:1031E00021FA32463B4602F065FE10B9FFF75BBBA1
:1031F000154615F8013C6A1E302BF9D0159B059336
:1032000084E54346A0461C46DDF840B0DDF8089052
:10321000159B0593FFF7EEBB4B46392BDDF82C9041
:1032200008F10105D1D0029A002ACBDCF6E67FF442
:10323000F5AEDA077FF5F2AEC2E7314600230A2287
:10324000204600F08FF8149B0646002B0CDD0893F7
:1032500081E400273E4687E6229B022B0EDC149B6E
:1032600001E50227FFF764BA229B022B06DC149BC0
:10327000EDE73FF453ACC0F13C0048E4149B0893E5
:103280006EE600BF0000244000001C400000E03F4C
:10329000044A054B1268506B002808BF1846F030EE
:1032A000704700BFDC01001008060010F8B50E469C
:1032B0000025084C114607461A4630462560FDF7A2
:1032C00055FB431C00D0F8BD2368002BFBD03B60AE
:1032D000F8BD00BF340E001082B049B15AB16BB1D5
:1032E00013780B601278101C18BF012002B07047D1
:1032F00001A9002AF3D1104602B070476FF0010017
:10330000F4E700BFC36C70B505460C464BB153F8EB
:10331000240080B1026843F824200023C0E903336D
:1033200070BD2122042103F00BF90346E864002854
:10333000EDD1002070BD012101FA04F6721D28466E
:10334000920003F0FDF80028F3D0C0E90146E4E75D
:1033500031B1C36C4A6853F82200086043F8221068
:10336000704700BFF0B54FF0000C0C4605460E69E3
:1033700083B001F1140738680CF1010C81B202FB33
:103380000133010C180C02FB01019BB203EB01435A
:10339000664547F8043B4FEA1143ECDC3BB1A268B9
:1033A000B24207DD04EB86020136536126612046F6
:1033B00003B0F0BD6168284601310193FFF7A2FF19
:1033C0000746226904F10C01023292000C30FEF72C
:1033D00015FEEA6C6168019B52F82100206042F8FA
:1033E00021403C46DEE700BF020C12040346C2B98E
:1033F0000304102013F07F4F04BF1B02083013F0AA
:10340000704F04BF1B01043013F0404F04BF9B00FA
:103410000230002B04DB5B0001D501307047202017
:1034200070470020E6E700BF0368014613F007027B
:1034300007D0DA071FD498071FD55B080B6001205F
:10344000704798B2A0B1104613F0FF0F04BF1B0ADB
:1034500008301A0704BF1B0904309A0704BF9B08F1
:103460000230DA0702D45B080BD001300B607047E2
:103470001B0C1020E8E7002070479B080B6002201F
:1034800070472020704700BF10B50C460121FFF7A0
:1034900039FF0122C0E9042410BD00BF2DE9F04F1F
:1034A0000D69146985B0A5420E46914604DA2A4694
:1034B0004E46254689461446B36805EB04087168F4
:1034C0004345B8BF0131FFF71DFF00F1140B0BEBB3
:1034D000880AD345019005D25B46002243F8042BAD
:1034E0009A45FBD809F1140303EB840406F1140296
:1034F000A34202EB850E62D2A4EB0904153C24F032
:1035000003042344CDE902A809F1100990469A4624
:1035100005E0090C2CD1CA450BF1040B4DD059F82C
:10352000041F1FFA81FCBCF1000FF2D047465E4633
:10353000002100E00646304657F8042B346893B269
:10354000A5B2120C0CFB0353240C0CFB02420B44DF
:1035500002EB13419BB243EA0143BE454FEA1141DE
:1035600040F8043BE6D87160D9F80010090CD2D0BD
:10357000DBF8003040461E465D46002200E025464E
:103580002C460788360C01FB07669BB2324443EA9F
:10359000024344F8043B50F8043B6E681B0CB7B27E
:1035A00001FB0373864503EB12434FEA1342E6D84F
:1035B000CA456B600BF1040BB1D1DDE902A8B8F18B
:1035C000000F0BDD5AF8043CAAF1040A1BB105E018
:1035D0005AF8043D13B9B8F10108F9D10198C0F8BF
:1035E000108005B0BDE8F08F12F003032DE9F04123
:1035F000144607462ED10D46A4101CD0BE6C96B3BF
:10360000E3074FF0000806D4641014D03068A8B166
:103610000646E307F8D5324629463846FFF73EFF0F
:10362000B5B16A68FB6C641053F82210296043F846
:1036300022500546EAD12846BDE8F081324631469F
:103640003846FFF72BFF3060C0F800800646E0E701
:103650000546D9E70B4A013B52F823200023FFF728
:1036600081FE0546C8E701213846FFF74BFE40F2D0
:10367000712101220023C0E904210646B8640360D9
:10368000BEE700BFC87A00000B692DE9F04754116E
:1036900004EB03088B6808F101059D420E46914634
:1036A0000746496804DD5B009D4201F10101FADC37
:1036B0003846FFF727FE002C00F114033CDD002202
:1036C00003EB840143F8042B8B42FBD1346906F1F0
:1036D000140319F01F0903EB840C25D0C9F1200253
:1036E0004FF0000A00E071468E461C6804FA09F4A7
:1036F00044EA0A044EF8044B53F8044B634524FA99
:1037000002FAF0D3C1F804A0BAF1000F01D008F119
:103710000205FB6C7268013D53F8221005613160AF
:1037200043F82260BDE8F087043953F8042B9C4528
:1037300041F8042FF9D8ECE71946C7E730B40B6914
:1037400005460069C01A0FD19B0014351431194485
:103750002B4401E09D4207D253F8044D51F8042D4B
:103760009442F7D002D3012030BC70474FF0FF30B5
:10377000FAE700BF2DE9F84F0C6913698946E41A8E
:10378000002C924601F1140702F1140B14D19B0096
:10379000FA185B4401E0BA4262D952F8045D53F86A
:1037A000041D8D42F7D009D23A464B465F46D146BA
:1037B00093469A46012401E0F6DB0024D9F8041070
:1037C000FFF7A0FD5E464FF00008D9F810C0DAF808
:1037D00010303D46C4600BEB830E07EB8C0700F105
:1037E000140455F8049B56F8042B1FFA89F343443C
:1037F0001FFA82F8120CA3EB0803C2EB194202EB8A
:1038000023429BB243EA0243B64544F8043B4FEAE5
:103810002248E6D8AF4217D9A6462E4656F8043BB2
:1038200099B241440A1402EB134289B241EA0243BD
:10383000B7424EF8043B4FEA2248EFD8ED432F44FD
:1038400027F0030704373C44043C2BB954F8043DEB
:103850000CF1FF3C002BF9D0C0F810C0BDE8F88F88
:103860000021FFF74FFD01220023C0E90423BDE83A
:10387000F88F00BF2DE9F0411C4682B00121DDE93F
:1038800008659046FFF73EFD2346C4F30A540746F9
:10389000C3F313030CB143F48013B8F10002019396
:1038A0001ED002A840F8082DFFF7BEFD70BBDDE971
:1038B00000237A61002B0CBF01210221BB61396119
:1038C000CCB907EB8103A0F2324030601869FFF7F2
:1038D0008BFDC0EB41102860384602B0BDE8F08196
:1038E00001A8FFF7A1FD0122019B11462030C7E985
:1038F0000423002CE5D0A4F233430344C0F1350087
:1039000033602860384602B0BDE8F081019BC0F109
:103910002002009903FA02F20A43C34001937A613C
:10392000C8E700BFF8B50E460025084C114607460B
:103930001A4630462560FCF7F1FF431C00D0F8BD65
:103940002368002BFBD03B60F8BD00BF340E001095
:10395000F8B517460022DFF858C021F00043634550
:1039600004460D463A601EDC844653EA0C0C1AD01D
:10397000B3F5801F0E4609DA00220C4B02F00AF85C
:103980006FF0350204460E4621F0004326F0FF4654
:103990001B1526F4E006A3F2FE3346F07F551344D0
:1039A00045F400153B6020462946F8BD0000504311
:1039B000FFFFEF7F40EA01039B0770B42AD1032A7F
:1039C00028D90C460346214654F8046BA6F101356C
:1039D00025EA060515F0803F06D1043A032A43F88C
:1039E000046B2146EFD89AB10C78013A1C70013370
:1039F0003CB16AB111F8014F013A03F8014B002CB8
:103A0000F7D12AB100211A4403F8011B9342FBD1DC
:103A100070BC70470346E6E72DE9F04FD9B00C467D
:103A20000A9193460D930790FFF732FC03681846FE
:103A30001D93FEF7E7FBA3891C901F0603D523699E
:103A4000002B00F0568700235E46189314931793BB
:103A5000CDE92D331B93CDE91F3321931E93099399
:103A6000CDE919332FAB2C9399463378002B00F016
:103A70009081252B344602D11AE0252B03D014F86F
:103A8000013F002BF9D1A51B75B1DDE92D320133C2
:103A90002A44072BC9E90065CDE92D327CDC09F108
:103AA0000809099B2B4409932378002B00F07181AE
:103AB00000234FF0FF3A98462B2567780B938DF83B
:103AC000933004F1010B0BF1010BA7F120035A2BEA
:103AD00000F2D083DFE813F08C03CE03CE0387031C
:103AE000CE03CE03CE036803CE03CE035B0356039F
:103AF000CE0351033703CE038601B500B500B500F0
:103B0000B500B500B500B500B500B500CE03CE03D5
:103B1000CE03CE03CE03CE03CE03B002CE038B0181
:103B20002103B002B002B002CE03CE03CE03CE0317
:103B30001C03CE03CE038400CE03CE03CE03F502D6
:103B4000CE03AD03CE03CE039703CE03CE03CE0345
:103B5000CE03CE03CE03CE03CE03B002CE038B0141
:103B6000C400B002B002B002C103C4005B00CE03C7
:103B70006901CE034201860076015B00CE03F502A7
:103B80005D001301CE03CE032201CE035D0048F099
:103B900020089BF8007096E72CAA0A99079801F074
:103BA000ABFC80B90DF1BC097BE72CAA5946504605
:103BB00001F0A2FC002801F0C380109B1BB11099FA
:103BC000079802F0BBFC0A9B9B8913F0400F099BEE
:103BD00018BF4FF0FF330993099859B0BDE8F08F33
:103BE00048F0100818F0200F00F06E850D9C073487
:103BF00024F0070303F108020D92D3E900450022E7
:103C000028F480630021BAF1FF3F8DF8931058A982
:103C1000089100F06F8454EA050123F0800845D133
:103C2000BAF1000F40F09287002A40F01B8513F094
:103C300001030C9300F07A85302358AE06F8013D5D
:103C400049E30022A7F130031BF8017B02EB82025B
:103C500003EB4202A7F13003092BF5D90B9234E7AD
:103C600043469E0640F15E820D9C073424F0070413
:103C7000D4E9000104F108020D4604460D92002823
:103C800071F1000205DA2D22644265EB45058DF8DD
:103C9000932058AABAF1FF3F089200F0F48654EA44
:103CA00005014FF0010223F08008B9D0012A00F08D
:103CB0002584022A00F0FC8258A900E03146E2087F
:103CC00042EA4572E80804F007030546144630331B
:103CD00054EA050201F8013C01F1FF36EED118F07B
:103CE000010F00F0F582302B00F0F2823023089AA9
:103CF0000239521A06F8013C0C920E46EBE243469A
:103D00009E0640F19B820D9C073424F0070202F1CD
:103D10000801D2E900450D91012273E7A44B18F088
:103D2000200F1B9300F075820D9C073424F00703CD
:103D300003F108020D92D3E9004518F0010F09D0F4
:103D400054EA050306D030238DF8957048F0020838
:103D50008DF89430022228F4806353E70D9A18F00E
:103D6000200F52F8043B0D9240F0078518F0100F19
:103D700040F0408718F0400F40F0F18718F4007FC2
:103D800000F038875E46099A1A703378002B7FF46A
:103D900070AE2E9B002B3FF416AF0A9C07982CAAFE
:103DA000214601F0A9FBA3890FE79BF800706C2F57
:103DB00003BF9BF8017048F020080BF1010B48F09D
:103DC000100880E647F630020D99ADF894200A1DE0
:103DD0000D92774A0C681B9248F0020300250222DC
:103DE00078270FE748F080089BF800706BE6002307
:103DF00001200D9C1A4621688DF8933010939A4645
:103E00001393CDE91533231D08900C908DF8FC1009
:103E10000D933FAE18F002030E9302D0089B0233BD
:103E2000089318F084032E9C11933FD10B9B0899A3
:103E30005D1A002D3ADD102D2D9A29DD49462046C8
:103E4000B14610232297079C0A9E04E0103D102DD6
:103E500001F1080118DD0132564F1030072ACDE973
:103E60002D20C1E90073F1DD2CAA314620461293C2
:103E700001F042FB00287FF4A0AEDDE92D20103DCB
:103E8000102D2FA9129BE6DC4E4604468946229F40
:103E90000132484B2C44072ACDE92D24C9E90035CD
:103EA00000F367859DF8932009F1080972B101209C
:103EB0002D9A044402440DF19301072ACDE92D24E3
:103EC000C9E9001000F3268309F108090E9B6BB1C4
:103ED00002212D9B0C44013325AA072BCDE92D345B
:103EE000C9E9002100F3228309F10809119B802B05
:103EF00000F059820C9BAAEB0305002D36DD102D36
:103F00002D9A40F35B862C4B49462046B1464FF034
:103F1000100A0A9E1C4604E0103D102D01F1080114
:103F200015DD01321030072ACDE92D20C1E9004A04
:103F3000F2DD2CAA3146079801F0DEFA00287FF462
:103F40003CAEDDE92D20103D102D2FA9E9DC4E46B9
:103F500023468946044601322C44072ACDE92D2404
:103F6000C9E9003500F3268309F1080918F4807FB8
:103F700040F0BE812D9B0C9A01331444072B2E94E4
:103F8000C9E900622D9300F3098309F1080918F0CB
:103F9000040F3AD00B9B089A9D1A002D35DD102D89
:103FA0002D9B28DD1026079FDDF828800BE000BF41
:103FB000E47A0000147B0000247B0000103D102DEB
:103FC00009F1080917DD0133B44A1034072BCDE994
:103FD0002D34C9E90026F1DD2CAA4146384601F00E
:103FE0008BFA00287FF4E9ADDDE92D34103D102D6A
:103FF0000DF1BC09E7DC0133A84A2C44072BCDE9BD
:104000002D34C9E9002500F38783099B0B9A089991
:104010008A42ACBF9B185B180993002C40F0FF81CB
:1040200000232D93109B1BB11099079802F086FA7C
:104030000DF1BC095E46A8E60D9C073424F0070C80
:10404000DCE90023179323F000431892154610462D
:10405000089319460CF108044FF0FF32904B0D9471
:1040600001F032FF002840F09083284608994FF075
:10407000FF328B4B01F00AFF002840F08683DDE918
:1040800018021A9B179901F0F7FE002840F06C8780
:104090009DF8932003200021824E834B08901091BD
:1040A0008A46472FD8BF1E46CDE9151128F0800853
:1040B0000C901391002A3FF4ADAE089B0133089396
:1040C000A8E600250D9B8DF893501E681C1D002E40
:1040D00000F03F84BAF1FF3F00F02B86524629469C
:1040E0003046FDF745FF1090002800F07087AA4683
:1040F000109B9B1BCDE90C3423EAE3730893CDF8A6
:1041000040A0CDF84CA0CDE915AA9DF89320D1E7A9
:1041100048F008089BF80070D5E448F010039E06AC
:104120003FF5A2AD0D99DD0601F1040200F10C830B
:104130005C060D9940F10583B1F900400D92E51739
:10414000204629469BE59BF800700BF101022A2FBF
:1041500001F02781A7F13003092B93464FF0000AA5
:104160003FF6B3AC1BF8017B0AEB8A0A03EB4A0A61
:10417000A7F13003092BF5D9A7E49BF8007048F0AC
:104180000408A0E48DF893509BF800709BE40D9B0D
:104190009BF800701A680433002A0B920D93BFF647
:1041A00092AC53420B93EAE7079F3846FFF770F84B
:1041B000436818461E93FEF725F8219004463846BA
:1041C000FFF766F883682093002C3FF4E2AC9BF87D
:1041D0000070002B3FF477AC1B78002B3FF473ACDE
:1041E00048F480686FE448F001089BF800706AE4C6
:1041F0009DF893309BF80070002B7FF464AC202373
:104200008DF893305FE4294B18F0200F1B937FF457
:104210008BAD0D9A18F0100F02F1040340F08C8260
:1042200018F0400F0D9A00F08382148800250D933A
:1042300083E548F010039E063FF565AD0D9ADD0657
:1042400002F1040100F193825C060D9A40F18C8228
:104250001488002501220D91D4E49BF80070682F8A
:1042600003BF9BF8017048F400780BF1010B48F094
:10427000400828E4002F3FF48CAD002301211A46AA
:1042800008918DF8FC708DF8933010939A46139333
:10429000CDE915330C913FAEBCE500BF147B0000A7
:1042A000FFFFEF7FD87A0000D47A0000F87A000090
:1042B0001B9858AE230943EA0573290904F00F023D
:1042C0000D461C46835C06F8013D54EA0503F1D116
:1042D000089B9B1B0C93002310931393CDE915337C
:1042E0000C9B9DF893205345B8BF53460893E1E6D5
:1042F000652F40F39E80DDE918021A9B179901F0A3
:10430000B1FD002800F0668101212D9BAF4A0B44CE
:104310000C44072B2E942D93C9E9002100F342840D
:1043200009F10809269B149A2E9C934280F2EF8192
:104330002D9B1C9A01331D991444072BC9E90012C7
:10434000CDE92D3400F3F98209F10809149B5D1EB3
:10435000002D7FF71CAE102D2D9A40F3C6879C4B85
:1043600010261946079F2346DDF828A00C4605E0D5
:1043700009F10809103D102D40F307840132103374
:10438000072ACDE92D23C9E90046F1DD2CAA5146C3
:10439000384601F0B1F800287FF40FACDDE92D2399
:1043A0000DF1BC09E6E70B9B089A9D1A002D7FF7DB
:1043B000A1AD102D2D9A864B25DD49462046B146EC
:1043C0001C460A9E04E0103D102D01F1080116DD87
:1043D000102301321030072ACDE92D200C604B60EC
:1043E000F1DD2CAA3146079801F086F800287FF409
:1043F000E4ABDDE92D20103D102D2FA9E8DC4E4661
:1044000023468946044601322C44072ACDE92D244F
:10441000C9E9003500F3AC8309F108096AE52CAA63
:104420000A99079801F068F800283FF4F9ADFFF702
:10443000C4BB621C0C92149A2D9B012A03F1010546
:1044400009F1080740F34F8101230C9A072DC9F8A1
:104450000060CDE92D52C9F8043000F35D831C9B48
:104460000C9901351D9A1944072D0C91CDE92D5158
:10447000C7E9002300F35D8308376C1C11940E9488
:10448000149CDDE918021A9B179904F1FF3A07F111
:10449000080901F0E7FC002840F0E8800C9B0E9C26
:1044A00053440136072C0C933E602E93C7F804A0AA
:1044B0002D9400F3318207F110034F469946AA1C50
:1044C0000E921F9A0C997A6011440E9A28AB072A13
:1044D0000C462E912D923B607FF759AD2CAA0A997C
:1044E000079801F009F800287FF467AB0DF1BC09CB
:1044F0002E9C4CE5012A98467FF4DBAB002D08BFCB
:104500000A2C80F0C682012358AE303406F8014DE3
:104510000C93E0E62CAA0A99079800F0EDFF00281A
:104520007FF44BAB0DF1BC092E9CCFE42CAA0A9969
:10453000079800F0E1FF00287FF43FAB0DF1BC09C4
:104540002E9CD3E42CAA0A99079800F0D5FF0028E6
:104550007FF433AB269B2E9C0DF1BC091BB9149A3A
:10456000002A00F013842D9A1C9901321D980C44E6
:10457000072A2E94C9E900012D9200F3358509F12F
:104580000809002BC0F2D385149B01321C44072A72
:10459000CDE92D24C9E900637FF7F7AC2CAA0A996D
:1045A000079800F0A9FF00287FF407AB2E9C0DF1BF
:1045B000BC09ECE42CAA0A99079800F09DFF00289A
:1045C0007FF4FBAA0DF1BC092E9CCFE4C479000056
:1045D000247B0000269B002B40F37C81DDE9142323
:1045E0009342A8BF1346002B1D460BDD2D9B2C4488
:1045F0000133072B2E94C9E900652D9300F3BA848B
:1046000009F10809159B002DA8BF5B1B002B1D4657
:1046100040F3D781102B2D9A40F39D86BC4B214649
:10462000184610274B46DDF81CA0B1460A9C0646EA
:1046300004E00833103D102D40F3AA8101321031FF
:10464000072ACDE92D21C3E90067F2DD2CAA214616
:10465000504600F051FF00287FF4AFAADDE92D217C
:104660002FABE7E7CDF830A058AE34E6BAF1000F33
:104670007FF727AFBAF1100F40F34C86A44B1026FA
:1046800019460C9A3B46DDF81C900A9C119D0F467A
:1046900007E00833AAF1100ABAF1100F40F3918233
:1046A00001351032072DCDE92D52C3E90076F0DD3A
:1046B0002CAA2146484600F01FFF00287FF47DAA5F
:1046C000DDE92D522FABE5E70D9A18F0100F02F13E
:1046D000040344D118F0400F0D9A3CD014880025F3
:1046E0000D93FFF78CBA18F0010F7FF4ADAE0122E5
:1046F0000C99072DC9F80060CDE92D51C9F80420A7
:1047000000F3538402330E9309F11009D9E618F02F
:10471000010F7FF40DAE3AE42CAA0A99079800F035
:10472000EBFE00287FF449AA2E9C6EE458AED2E539
:1047300018F4007F40F01883146800250D93FFF7EC
:10474000FCBA980500F11A830C680D92E517204613
:104750002946FFF794BA18F4007F40F00A831468E2
:1047600000250D93FFF74BBA980500F1F28214680B
:10477000002501220D91FFF745BA099A5E461046C1
:10478000D117C3E90001FFF700BB189C2246204661
:10479000179C2346214601F097FB002840F0A7858F
:1047A000612F00F0FD83412F00F0F68227F02003F7
:1047B00048F48072BAF1FF3F08931292179D00F0FF
:1047C0002C85472B00F02385002DC0F2E083189B39
:1047D000CDE910000C93662F00F0E384462F00F023
:1047E0006C850220089B2AA9452B06BF0AF101030C
:1047F0000E93CDF838A00E9C0491CDE9000426A9B3
:1048000027A8CDE902100C9A2B460798FDF728FE41
:10481000672F064640F0A28518F0010F40F0F384A0
:104820002A9B40469B1BDDF848801493269B1593DA
:10483000089B472B00F06483089B462B00F00C84F8
:104840000899159BFAB2412908BF0F3203F1FF33D3
:1048500006BFD2B201210021002B8DF8A020B4BFE9
:104860002D222B222693B8BF159B8DF8A120B8BF0F
:10487000C3F10103092B00F3DA84002940F0848599
:1048800030228DF8A2200DF1A30230331370531C97
:1048900028AA9B1A149A1F93012A13440C9340F3DD
:1048A00046850C9B1C9A13440C9300231393CDE96B
:1048B00015330C9B20F4806023EAE37340F4807886
:1048C0000893119B002B40F048839A469DF8932053
:1048D000FFF7F0BB01202D9A0E4902440444072A39
:1048E000CDE92D24C9E900103FF72CAE09F10809E4
:1048F00034E64021079801F01DFE0A9B18601861FC
:10490000002800F06F8540230A9A5361FFF79BB897
:10491000247B0000C47900002CAA0A99079800F0B3
:10492000EBFD00287FF449A9DDE92D3201330C921B
:104930000E930DF1C4092FAFC3E52CAA0A9907986D
:1049400000F0DAFD00287FF438A90DF1BC092E9C97
:10495000FCE45346062B28BF0623B2461396CDE946
:104960001566109632460893CDE90C34A44EFFF735
:10497000A1BB2CAA0A99079800F0BEFD00287FF47D
:104980001CA90DF1BC099DF893202E9CFFF78EBA4F
:104990000C4631464E4699460B4601322C44072AB6
:1049A000CDE92D24C9E9003540F3D0812CAA0A991C
:1049B000079800F0A1FD00287FF4FFA82E9C0DF1C0
:1049C000BC09159B18F4806F33449A4640F01C8153
:1049D000269B149A934247DB18F0010F44D1149A96
:1049E000B518A5EB0A05D31A9D42A8BF1D46002D98
:1049F0000BDD2D9A2C440132072A2E94C9E900A51B
:104A00002D9200F3658309F10809002DB4BF1D46FE
:104A10005D1B002D7FF7BBAA102D2D9A40F36584F6
:104A2000784B10261946079F2346DDF828A00C4630
:104A300005E009F10809103D102D40F3A680013270
:104A40001033072ACDE92D23C9E90046F1DD2CAA50
:104A50005146384600F050FD00287FF4AEA8DDE94D
:104A60002D230DF1BC09E6E72D9A1C9901321D9802
:104A70000C44072A2E94C9E900012D9200F3DF822D
:104A800009F10809ABE7002D08BF0A2C9846FFF48E
:104A90003AAD002208F48063CDF830901097CDF83D
:104AA000388058AE9146DDF880801F460AE02046E7
:104AB000294600230A2201F0BBFB04460D4654EAB6
:104AC000050347D00A2200232046294601F0B0FB07
:104AD000303206F8012C09F10109013E002FE6D021
:104AE00098F800309945E2D1B9F1FF0FDFD0002DE1
:104AF00008BF0A2CDBD3219B1E99F61A1A463046B2
:104B0000FEF758FF98F80130002B00F07A8308F187
:104B100001084FF00009CAE72CAA0A99079800F08B
:104B2000EBFC00287FF449A82E9B2FAF0C932D9D02
:104B300095E42CAA0A99079800F0DEFC00287FF47F
:104B40003CA82E9B2FAF0C932D9D96E4012A7FF459
:104B5000B0A8D8E4089BCDF850909B1BDDF83090AE
:104B6000CDF88080109FDDF838800C93FFF7B3BB41
:104B70002CAA0A99079800F0BFFC00287FF41DA812
:104B80000DF1BC092E9CFFF7B5B921461C460B461A
:104B900001322C44072ACDE92D24C9E900357FF7DD
:104BA000F4A9FBE42CAA0A99079800F0A5FC0028B8
:104BB0007FF403A80DF1BC09FFF7B4BB114BFFF75D
:104BC000CAB90C923A461F4613466A1C0E9207F168
:104BD00008020C99C7E9003A0E9B5144072B0C912F
:104BE0002E912D933FF798AE01330E9302F10809F1
:104BF000174666E4099A5E461A60FFF7C6B800BF1A
:104C00000C7B0000247B0000149B4A46F3180C9395
:104C1000169BCDF838B0CDF844801296BD4F56465D
:104C2000DDF88490DDF880802146DDF828B0DDF8DD
:104C30001CA0002B5DD0139B002B5ED1169B08F1AE
:104C4000FF38013B16932D9B1E9801334944072BD7
:104C50002E91C2E900092D9353DC08320C9898F884
:104C60000030851B9D42A8BF1D46002D0BDD2D9BEE
:104C700029440133072B2E91C2E900652D934BDCAB
:104C800098F800300832002DB4BF1D465D1B002D82
:104C90002BDD102D2D981CDD102404E0103D102D6F
:104CA00002F1080215DD013010310728CDE92D0190
:104CB000C2E90074F2DD2CAA5946504600F01CFCF3
:104CC00000287EF47AAFDDE92D01103D102D2FAACA
:104CD000E9DC013029440728CDE92D01C2E900753E
:104CE0003EF763AF98F8003008321E44169B002B45
:104CF000A1D1139B002B00F0F380139B013B139376
:104D0000A1E72CAA5946504600F0F6FB00287EF495
:104D100054AF2FAA2E99A1E72CAA5946504600F06D
:104D2000EBFB00287EF449AF2FAA98F800302E99AB
:104D3000A9E73046FDF766FAAA460346FFF7DAB957
:104D400098F800302FAA2E991E44CFE709F10809E0
:104D500037E61478002501220D91FEF753BF099A1A
:104D60005E461A80FFF711B8147800250D93FEF700
:104D7000E4BF147800250D93FEF741BF91F9004080
:104D80000D92E51720462946FEF779BF18F0010F6E
:104D90003FF4FDA8FFF7E7BB302258238DF894209D
:104DA000BAF1630F8DF8953048F0020400F3E68104
:104DB00048F48173129327F0200308930023A04640
:104DC000179D10933FAE002DC0F2E280189B179DF7
:104DD0000C9300231193612F00F09381412F7FF4F6
:104DE000FAAC26AA0C982946FEF7B2FD00224FF035
:104DF0007F5300F0CFFDDDE91923CDE90E0101F06D
:104E000031F8002840F04482434B0C93CDE9157AE9
:104E10000AF1FF35CDE9139B2396B146DDE90E6714
:104E2000CDF88880DDF830A005E0DDE9192301F038
:104E300019F8F8B9A1460022384B3046394600F03F
:104E4000A9FD0F46064601F055F8804600F038FDF2
:104E500002460B463046394600F0E4FB4C461AF851
:104E600008C06A1CAB4606460F4604F801CB05F1A4
:104E7000FF35DAD1304639460022294B159F454689
:104E8000CDF85490DDF858A0DDF84C90DDF888801E
:104E9000CDF84CB0239EDDF850B0CDE90E0101F005
:104EA00009F8002840F0AF80DDE90E0100221C4B1C
:104EB00000F0D8FF18B12B46DB0700F1A480139B4C
:104EC000002B07DB3022139B0133234404F8012B12
:104ED000A342FBD1A31B40461493DDF84880A5E410
:104EE000B246149B129ECDF88080F3189A459146E5
:104EF000DDF838B0DDF844800C4628BF9A4667E5F7
:104F0000159BDA1C01DB53450CDD023F27F0200323
:104F1000089395E4247B0000F87A000000003040FC
:104F20000000E03F159B14998B42C0F2E080C2075D
:104F300040F1AB811C9A13440C93470540F1C280A9
:104F4000159B002B00F34C8267270C9B23EAE3732D
:104F50000893002313931693B3E42D224FF0000A15
:104F60008DF89320FFF7A9B82D231A468DF89330BA
:104F7000FFF790B82CAA0A99079800F0BDFA00280C
:104F80007EF41BAE0DF1BC092E9CFFF73BBB1090CD
:104F9000189B0C93179B03F100452D2311931AE7DF
:104FA00030238DF894307823FAE62CAA0A990798D2
:104FB00000F0A2FA00287EF400AEDDE92D320133C4
:104FC0002FAF0C920E930DF1C409FFF77ABACDF80A
:104FD00020A0CDF830A00D9482461390CDE91500A5
:104FE0009DF89320FFF766B82CAA0A99079800F05D
:104FF00083FA00287EF4E1ADDDE92D240DF1BC0932
:10500000269BFFF7BEBA159B2A930C9B14F8012C24
:10501000D97B2346914209D1302003F8010C2A9B09
:105020005A1E2A9213F8012C9142F6D0392A0BBF4E
:105030000C9A0132927AD2B203F8012C4AE72CAAD8
:105040000A99079800F058FA00287EF4B6AD0DF1E1
:10505000BC09269B2E9CC2E4159B002B40F36C815F
:10506000159BBAF1000F40F0DC80C40700F1D98035
:1050700066270C93430526D5002320981393169397
:10508000159A0378FF2B0BD0934209DA4178D21A94
:10509000A1B1169B0130013316930B46FF2BF3D1C0
:1050A0001592169B139A0C991344219A209002FB97
:1050B00003130C9323EAE373089302E41399013179
:1050C0001391DFE767270C9B23EAE373089340E71C
:1050D0002CAA0A99079800F00FFA00287EF46DAD0B
:1050E000269B149A0DF1BC092E9CD31A8DE4149BB7
:1050F0001C9A13440C93159B002B40F30E816727D9
:10510000B8E726AA0C982946FEF722FC00224FF0A9
:105110007F5300F03FFCDDE91923CDE90E0100F0DB
:10512000A1FE08B101232693B64B0C936EE65D42B7
:10513000103380F24F81B44B10271946DDF81CA0C4
:1051400023460C4605E009F10809103D102D40F3F7
:10515000A48001321033072ACDE92D23C9E9004785
:10516000F1DD2CAA0A99504600F0C6F900287EF419
:1051700024ADDDE92D230DF1BC09E6E70AF10101BB
:10518000079801F0D7F90646002800F0338148F46B
:105190008173129327F020030893A046179D109067
:1051A00011E603202AA9CDE9000A049127A826A91F
:1051B000CDE902100C9A2B460798FDF751F90646E7
:1051C000CDF838A000EB0A043378302B00F0CE8005
:1051D000269B1C44199A0C981A9B294600F042FE03
:1051E00010B12346FFF71DBB2A9BA342BFF419ABA6
:1051F00030215A1C2A9219702A9B9C42F9D8FFF739
:1052000010BB994653E40E9B33441C46E2E7BAF1C7
:10521000000F00F09B801090D5E510904FF0060A2B
:10522000D1E51C9A6627134453440C9322E70DF1F1
:10523000AF0C6446754D00E01446A5FB0321C90878
:1052400001EB8102A3EB42023032092904F8012C60
:105250000B4604F1FF32EFDC3033023CDBB2A445F5
:1052600002F8013C40F2B8800DF1A204114601E0C1
:1052700011F8013B8C4504F8013BF9D12CAB9B1A8A
:105280000DF1A2021344FFF703BB159B0C9354E6E8
:10529000012326935E4B0C93B8E521461C460B4632
:1052A00001322C44072ACDE92D24C9E9003500F349
:1052B000838009F10809FFF767B903202AA9CDE91E
:1052C000000A049127A826A9CDE902100C9A2B46C2
:1052D0000798FDF7C5F80646CDF838A00E9B462F77
:1052E00006EB03043FF470AF74E7474B50E4179BA1
:1052F0000320002BB8BF2D234FF00001BABF1A4680
:105300008DF893309DF8932008901091414E424BB8
:10531000FEF7C6BE4A463C4B5BE40C9AC3F1010360
:105320001A4422EAE2730C920893672711E6C50734
:105330007FF5BBAAFFF7B5BABAF1000F28D1C107B4
:1053400026D40123662708930C9302E6CDF840A0EB
:105350004FF0010A37E52C4BFFF71FBB472F7FF4B7
:1053600052AF18F0010F3FF45BAAB7E7199A0C98F7
:105370001A9B294600F076FD00287FF429AF0E9B8A
:10538000C3F10103269324E70DF1A202FFF77DBAD2
:105390001C9B6627013353440C9323EAE373089361
:1053A000D7E50D999BF801700B68934643EAE37AC1
:1053B0000B1D0D93FEF787BB2CAA0A99079800F0E6
:1053C0009BF800287EF4F9ABDDE92D240DF1BC0932
:1053D000FFF7DAB80C4B63E70DF1A203FFF758BAF9
:1053E000672749E64FF0FF320C230992079A1360B2
:1053F000FEF7F2BB0A9A938943F040039381FEF7CC
:10540000E4BB00BFE47A0000247B0000CDCCCCCC10
:10541000F87A0000E07A0000DC7A000019B1FF2A77
:1054200003D80A700121084670478A234FF0FF31E4
:105430000360F8E78842F0B40DD98B1883420AD98B
:10544000841832B1224613F8014D994202F8014DF9
:10545000F9D1F0BC70470F2A48D940EA01039B07F5
:1054600046D1A2F110031B0901F1200707EB031736
:1054700001F1100400F1100554F8106C103445F8D7
:10548000106C54F81C6C103545F81C6C54F8186CF2
:1054900045F8186C54F8146CBC4245F8146CEBD108
:1054A000013302F00F051B01032D1944034421D9D8
:1054B0000F462C461E1F57F804CB043C032C46F81D
:1054C00004CFF8D82C1F24F00304043423442144CF
:1054D00002F00302002ABCD0013B0A4411F8014B40
:1054E000914203F8014FF9D1F0BC70470346F1E750
:1054F0000346F1E72A46EDE72DE9F04F936883B0C4
:105500009046002B6CD0176882460C460868083716
:105510008D6842E0A38913F4906F2DD0D4E904156F
:1055200005EB4505A0EB010B05EBD575701C6D1067
:105530005844A8422A4684BF05462A465B0536D50C
:105540001146504600F0F6FF00283AD05A4621692D
:105550000190FCF753FDA289019B22F4906242F076
:105560008002A281A5EB0B0203EB0B006561B34641
:10557000354623612060A2605A464946FFF75AFF2C
:10558000D8F80830A2682068551B58449E1BA560B7
:105590002060C8F808601EB3083757E90296AB468A
:1055A000002EF9D0AE42B5D23546B346E4E75046B8
:1055B00000F0C2FF03460028D4D12169504600F014
:1055C000BDFF0C2300224FF0FF30CAF80030A38942
:1055D00043F04003A381C8E9012203B0BDE8F08F86
:1055E0000020C8F8040003B0BDE8F08FD0400B1CC9
:1055F000D1409C46203AD3401843524263469340E0
:10560000184370479140031C90409C46203A9340B9
:10561000194352426346D3401943704781F0004119
:1056200002E000BF83F0004330B54FEA41044FEA87
:10563000430594EA050F08BF90EA020F1FBF54EA22
:10564000000C55EA020C7FEA645C7FEA655C00F0BE
:10565000E2804FEA5454D4EB5555B8BF6D420CDD8F
:105660002C4480EA020281EA030382EA000083EA12
:10567000010180EA020281EA0303362D88BF30BDB2
:1056800011F0004F4FEA01314FF4801C4CEA113108
:1056900002D0404261EB410113F0004F4FEA033367
:1056A0004CEA133302D0524263EB430394EA050FF2
:1056B00000F0A780A4F10104D5F1200E0DDB02FA61
:1056C0000EFC22FA05F2801841F1000103FA0EF2F5
:1056D000801843FA05F359410EE0A5F120050EF1BB
:1056E000200E012A03FA0EFC28BF4CF0020C43FAEC
:1056F00005F3C01851EBE37101F0004507D54FF0F9
:10570000000EDCF1000C7EEB00006EEB0101B1F548
:10571000801F1BD3B1F5001F0CD349085FEA30008E
:105720004FEA3C0C04F101044FEA445212F5800F99
:1057300080F09A80BCF1004F08BF5FEA500C50F136
:10574000000041EB045141EA050130BD5FEA4C0C19
:10575000404141EB010111F4801FA4F10104E9D1A2
:1057600091F0000F04BF01460020B1FA81F308BF99
:105770002033A3F10B03B3F120020CDA0C3208DD65
:1057800002F1140CC2F10C0201FA0CF021FA02F140
:105790000CE002F11402D8BFC2F1200C01FA02F1B0
:1057A00020FA0CFCDCBF41EA0C019040E41AA2BFD5
:1057B00001EB0451294330BD6FEA04041F3C1CDA9D
:1057C0000C340EDC04F11404C4F1200220FA04F0BD
:1057D00001FA02F340EA030021FA04F345EA030167
:1057E00030BDC4F10C04C4F1200220FA02F001FA29
:1057F00004F340EA0300294630BD21FA04F02946AB
:1058000030BD94F0000F83F4801306BF81F4801143
:105810000134013D4EE77FEA645C18BF7FEA655CB6
:1058200029D094EA050F08BF90EA020F05D054EA88
:10583000000C04BF1946104630BD91EA030F1EBF8D
:105840000021002030BD5FEA545C05D14000494191
:1058500028BF41F0004130BD14F580043CBF01F584
:10586000801130BD01F0004545F0FE4141F470016A
:105870004FF0000030BD7FEA645C1ABF1946104645
:105880007FEA655C1CBF0B46024650EA013406BF46
:1058900052EA033591EA030F41F4002130BD00BF05
:1058A00090F0000F04BF0021704730B54FF48064C2
:1058B00004F132044FF000054FF0000150E700BF43
:1058C00090F0000F04BF0021704730B54FF48064A2
:1058D00004F1320410F0004548BF40424FF000018F
:1058E0003EE700BF42004FEAE2014FEA31014FEAD2
:1058F00002701FBF12F07F4393F07F4F81F0605121
:10590000704732F07F4208BF704793F07F4F04BF6B
:1059100041F40021704730B54FF4607401F0004548
:1059200021F000411CE700BF50EA010208BF7047A8
:1059300030B54FF000050AE050EA010208BF704799
:1059400030B511F0004502D5404261EB41014FF402
:10595000806404F132045FEA915C3FF4D8AE4FF00A
:1059600003025FEADC0C18BF03325FEADC0C18BFED
:10597000033202EBDC02C2F1200300FA03FC20FA3E
:1059800002F001FA03FE40EA0E0021FA02F114448B
:10599000BDE600BF70B54FF0FF0C4CF4E06C1CEAA4
:1059A00011541DBF1CEA135594EA0C0F95EA0C0F15
:1059B00000F0DEF82C4481EA030621EA4C5123EA88
:1059C0004C5350EA013518BF52EA033541F48011B7
:1059D00043F4801338D0A0FB02CE4FF00005E1FB6A
:1059E00002E506F00042E0FB03E54FF00006E1FBB4
:1059F00003569CF0000F18BF4EF0010EA4F1FF04F7
:105A0000B6F5007F64F5407404D25FEA4E0E6D4136
:105A100046EB060642EAC62141EA55514FEAC52047
:105A200040EA5E504FEACE2EB4F1FD0C88BFBCF5C3
:105A3000E06F1ED8BEF1004F08BF5FEA500E50F174
:105A4000000041EB045170BD06F0004646EA01013A
:105A500040EA020081EA0301B4EB5C04C2BFD4EB6C
:105A60000C0541EA045170BD41F480114FF0000E65
:105A7000013C00F3AB8014F1360FDEBF002001F0D3
:105A8000004170BDC4F10004203C35DA0C341BDC4D
:105A900004F11404C4F1200500FA05F320FA04F01F
:105AA00001FA05F240EA020001F0004221F0004153
:105AB00010EBD37021FA04F642EB06015EEA430EC6
:105AC00008BF20EAD37070BDC4F10C04C4F12005F6
:105AD00000FA04F320FA05F001FA04F240EA0200A9
:105AE00001F0004110EBD37041F100015EEA430E7A
:105AF00008BF20EAD37070BDC4F1200500FA05F29A
:105B00004EEA020E20FA04F301FA05F243EA020318
:105B100021FA04F001F0004121FA04F220EA020027
:105B200000EBD3705EEA430E08BF20EAD37070BD6D
:105B300094F0000F0FD101F00046400041EB01014D
:105B400011F4801F08BF013CF7D041EA060195F02F
:105B5000000F18BF704703F00046520043EB0303E9
:105B600013F4801F08BF013DF7D043EA06037047D6
:105B700094EA0C0F0CEA135518BF95EA0C0F0CD0E1
:105B800050EA410618BF52EA4306D1D181EA030127
:105B900001F000414FF0000070BD50EA410606BF21
:105BA0001046194652EA430619D094EA0C0F02D166
:105BB00050EA013613D195EA0C0F05D152EA0336AB
:105BC0001CBF104619460AD181EA030101F00041C9
:105BD00041F0FE4141F470014FF0000070BD41F012
:105BE000FE4141F4780170BD70B54FF0FF0C4CF4EC
:105BF000E06C1CEA11541DBF1CEA135594EA0C0F0B
:105C000095EA0C0F00F0A7F8A4EB050481EA030E57
:105C100052EA03354FEA013100F088804FEA03333E
:105C20004FF0805545EA131343EA12634FEA02220C
:105C300045EA111545EA10654FEA00260EF00041CD
:105C40009D4208BF964244F1FD0404F5407402D21F
:105C50005B084FEA3202B61A65EB03055B084FEAB0
:105C600032024FF480104FF4002CB6EB020E75EBAD
:105C7000030E22BFB61A754640EA0C005B084FEAD5
:105C80003202B6EB020E75EB030E22BFB61A754652
:105C900040EA5C005B084FEA3202B6EB020E75EB9D
:105CA000030E22BFB61A754640EA9C005B084FEA15
:105CB0003202B6EB020E75EB030E22BFB61A754622
