:10000000E07F0010D9140000091500000B15000056
:100010000D1500000F150000111500000000000074
:1000200000000000000000000000000013150000A8
:10003000151500000000000017150000191500003C
:100040001B1500001B1500001B1500001B150000F0
:100050001B1500001B1500001B1500001B150000E0
:100060001B1500001B1500001B1500001B150000D0
:100070001B1500001B1500001B1500001B150000C0
:100080001B1500001B1500001B1500001B150000B0
:100090001B1500001B1500001B1500001B150000A0
:1000A0001B1500001B1500001B1500001B15000090
:1000B0001B1500001B1500001B1500001B15000080
:1000C0001B1500001B1500001B15000000000000A0
:1000D0000000000000000000000000000000000020
:1000E0000000000000000000000000000000000010
:1000F0000000000000000000000000000000000000
:1001000000000000000000000000000000000000EF
:1002F000000000000000000000000000FFFFFFFF02
:1003000010B5054C237833B9044B13B10448AFF34F
:1003100000800123237010BD900B0010000000002E
:100320002095000008B5034B1BB103490348AFF308
:10033000008008BD00000000940B00102095000014
:10034000154B002B08BF134B9D46A3F5803A0021A7
:100350008B460F461348144A121A02F05FFF0F4BE8
:10036000002B00D098470E4B002B00D09847002060
:10037000002104000D000D48002802D00C4800F0B8
:1003800004FA02F079FD2000290000F093FC00F04F
:10039000F9F900BF00000800E07F00100000000035
:1003A000A50C0000900B0010840E00108B070000BD
:1003B0000000000010B50446074B303003F1200266
:1003C00040F8303C80330260436001F07DFF2046FE
:1003D00001F048FD204610BD4C8C0000A0F130001B
:1003E000E8E7A0F13400E5E708B5044C204601F049
:1003F00091FF0146204601F079FFF7E7DC0B001082
:1004000010B50446FFF7D6FF204600F02AFB204631
:1004100010BDA0F13000F3E7A0F13400F0E70000D8
:100420004FF4165313B5084C0093084A00230849AB
:10043000204601F07DF92046064A074902B0BDE892
:10044000104000F09DB900BFAC0B001003C00920A4
:1004500002C00920C8000010B5030000431C10B5FD
:10046000044604D115220649064801F0E9F9204660
:10047000002100F027FC012004F01F04A04010BD63
:10048000D0860000BD86000038B505464B1C0C46E2
:1004900029600FD00846FFF7E1FF24F01F0404F1A4
:1004A0001803EB6004F11C032B6104F11403686072
:1004B0006B61AC6038BD006800F02ABC38B50368D9
:1004C000044601330D4604D12C220A490A4801F0A2
:1004D000B7F915B1012D07D038BDA268616813685E
:1004E00023EA0103136038BDA268616813680B43F7
:1004F000F8E700BFD0860000B886000038B5036872
:10050000044601330D4604D124220549054801F073
:1005100097F9636815B1E268136038BD2269FBE79B
:1005200039870000B886000010B586B001F0A6F942
:100530001449684601F0E3F8042401216846FFF7F6
:10054000DDFF962001F01FFE00216846FFF7D6FF71
:10055000962001F018FE013CEFD1042401216846E9
:10056000FFF7CCFF4FF4C87001F00DFE0021684684
:10057000FFF7C4FF4FF4C87001F005FE013CEDD158
:10058000DAE700BF32C0092070B50D460446A0B0BE
:1005900001F074F92B4622468021684603F038FAB0
:1005A000051E03DC01F080F920B070BD094B1B680B
:1005B00023B9094A09490A4800F0D8FE0024084E28
:1005C0001DF804103046013400F034FEA542F7D186
:1005D000E8E700BF140C001003C0092002C0092086
:1005E000540E00100FB407B504A951F8040B019183
:1005F000FFF7CAFF03B05DF804EB04B070470020BA
:100600007047036801221B69002118470022036814
:1006100011461B69184703681B69184703689B69E3
:10062000184703689B6A184700290CBF6FF0180031
:1006300000207047012070471120704770476FF00D
:100640001C0070476FF015007047012070470020B4
:1006500070477047F8B515460C46064E8F18BC42D9
:1006600005D014F8011B304600F0E4FDF7E72846FA
:10067000F8BD00BF540E001038B58DB215F001045E
:1006800005D0084800F0AAFD041C18BF0124EB06A1
:1006900005D5044800F0A8FD08B144F01004204638
:1006A00038BD00BF540E001010B5044602F090FC97
:1006B000204610BD10B50C462AB1044800F074FD68
:1006C0002070012010BD104610BD00BF540E001058
:1006D00038B51D46074B04460360074B1B6833B90A
:1006E000064800F043FE2946044800F00DFC204671
:1006F00038BD00BF34880000140C0010540E0010E8
:10070000002070470020704708B5012000F03AF83B
:100710000C4A10B513681844EFF30881884205D3DA
:100720000C22094B4FF0FF301A6010BD07490C68CE
:1007300024B10749096821448842F1D21060184663
:1007400010BD00BFCC010010800E0010080C00107E
:100750000C0C0010094C08B523680546986801F098
:10076000E7FF2368D86801F0E3FF01F011FD08B14D
:1007700001F010FD0DB1FFF7D7FEFEE7DC01001020
:100780000120704708B5FFF7E5FF01207047002101
:1007900002F08CBE01F0DEBF7047704708B5FFF76E
:1007A000FBFF08BD08B5FFF7F8FF08BD10B50378DB
:1007B000044603F00303012B0CD02BB140F24A5244
:1007C0000549064801F03CF82378012043F0020374
:1007D000237010BD002010BD7C880000D38800006D
:1007E00010B50378044603F00303022B05D040F252
:1007F00052520549054801F023F8237823F00303FA
:1008000043F00103237010BD7C880000F9880000CC
:100810003F2870B504462FDC184D55F820305A1C7F
:1008200013D1022811DCFFF76DFF034658B92046AB
:10083000FFF766FF034630B9114E3378BFF35B8F85
:10084000DB0704D50F4B45F82430184670BD304601
:10085000FFF7ACFF0028F5D04FF416530A4A0B49B6
:100860000848FFF735FF3046FFF7BAFF084A094945
:100870000448FFF785FFE5E70023E6E7CC0000101A
:10088000F80B0010040C001003C0092002C009205E
:10089000C80000105306000038B505460024FFF7D5
:1008A000B7FF0B4B43F8254030B901F0F3FD0923A6
:1008B00003604FF0FF3038BD03685B699847051E41
:1008C00004DA01F0E7FD6D420560F2E7204638BD2D
:1008D000CC000010FFF7E0BF38B50C461546FFF717
:1008E00097FF38B901F0D6FD092303604FF0FF34BC
:1008F000204638BD03682146DB682A469847041E17
:10090000F6DA01F0C7FD64420460EFE708B5131E94
:1009100006DA01F0BFFD162303604FF0FF3008BD7B
:1009200004D0FFF7D9FF40EAE07008BD184608BDC3
:1009300038B50C461546FFF76BFF38B901F0AAFD34
:10094000092303604FF0FF34204638BD0368214679
:100950009B682A469847041EF6DA01F09BFD644224
:100960000460EFE7002A08B503DBBDE80840FFF7A5
:10097000DFBF01F08FFD162303604FF0FF3008BD8D
:1009800010B5FFF745FF044628B901F083FD0923A0
:100990000360204610BD0368DB699847041EF8DA3F
:1009A00001F078FD644204600024F2E71FB50422E0
:1009B0000C4640230DEB020101900DF109008DF86A
:1009C000083002F053FB214602A802F02BF804463F
:1009D00030B10198FFF7D4FF10B12046FFF7D7FEE2
:1009E000204604B010BDFFF7CBBF38B50C46154606
:1009F000FFF70EFF38B901F04DFD092303604FF0FA
:100A0000FF34204638BD036821461B692A469847B3
:100A1000041EF6DA01F03EFD64420460EFE7FFF7E2
:100A2000E4BF38B50D46FFF7F3FE044630B901F0D8
:100A300031FD092303604FF0FF3038BD0368DB69E7
:100A40009847002814BF4FF400534FF400436B60E5
:100A5000236820469B6A98472861002038BDFFF72D
:100A6000E0BF02F0B5BA0000034653F8042B10B5FE
:100A7000044602B9036022689A4204D05D22034909
:100A8000034800F0DDFE206810BD00BFB7870000FE
:100A90001688000010B504460948FFF7E5FF00235B
:100AA0001946084A52F82300A04208BF42F8231012
:100AB0000133402BF6D10248FFF7D6FF10BD00BF2F
:100AC000FC0B0010CC00001010B503240E48FFF7FB
:100AD000CBFF0E4B53F824206AB10134402CF9D1DE
:100AE00001F0D8FC182303600748FFF7BDFF4FF063
:100AF000FF34204610BD4FF0FF32034843F8242056
:100B0000FFF7B2FFF5E700BFFC0B0010CC000010B0
:100B100010B50446FFF7D8FF0028A4BF014B43F8E7
:100B2000204010BDCC00001070B506460C46FFF703
:100B3000EFFF054690B12146FFF738FF044630B974
:100B4000074B53F82520964203D143F82500204651
:100B500070BD01F09FFC09230360F8E70446F6E747
:100B6000CC0000100EB42DE9F04185B00546FFF72A
:100B7000ABFF041E13DB0023294602A8019300F0FB
:100B8000B5FE02A800F004FF1B4D064668B901F04F
:100B900081FC1323036045F824604FF0FF342046A6
:100BA00005B0BDE8F04103B0704702A800F0DEFEDA
:100BB000074602A837B100F0E2FE0190019B45F81C
:100BC0002430ECE700F0C9FE06460028DFD00368B9
:100BD00002A8D3F8088000F0B5FE0B9B024601A9DD
:100BE0003046C04706460028E8D001F053FC764264
:100BF000066045F82470D0E7CC00001073B50E46AF
:100C00001849054602F05EFD044620B9FFF700FED4
:100C1000204602B070BD1449284602F053FD20B9A9
:100C20000120FFF7F5FD0124F2E71049284602F004
:100C300049FD20B90220FFF7EBFD0224E8E72B78FD
:100C4000402B07D10422691C0DEB020002F00EFAC2
:100C5000019CDDE726F400412846FFF783FF0446A8
:100C6000D6E700BF408900004789000038890000AE
:100C70007047704770470000074B10B59A680749E6
:100C80000748043A52F8044F41F8044F8142F9D121
:100C90004FF080529A6010BD00ED00E0FCFFFF0FA6
:100CA000C000001008B5FFF7E7FFFFF7E2FFFFF70E
:100CB000E1FF08BD08B5FFF7DBFFBDE80840FFF71F
:100CC00093BB000038B5431C04460D4604D11522E1
:100CD0000D490E4800F0B4FD04F16040A0F51C2061
:100CE0004200030903209B0003F1804303F53033E6
:100CF000196802F01E02904021EA0001196019688B
:100D000095400D431D6038BD4F890000BD86000031
:100D100038B5431C05460C4604D120221749184813
:100D200000F08EFD05F16040A0F51C2043099B00FA
:100D300003F1804303F530339D6EC4F3800100F06E
:100D40001F0201FA02F225EA02059D669D6E2A4302
:100D50009A6691B94200030903209B0003F1804386
:100D600003F53033196C02F01E02904021EA0001B5
:100D70001964196C94400C431C6438BD4F89000001
:100D8000BD86000030B52A4B04689C4224D006DCA6
:100D9000A3F580439C420CD000231D460BE0254B5D
:100DA0009C421CD003F580439C42F5D1224B082580
:100DB00001E00525214BAAB10122606802FA01F188
:100DC000014361601E4905F110008968AA4041F89D
:100DD00020301C4B1A6030BD1B4B0625EBE71B4B2C
:100DE0000725E8E701290AD042683820184B00FBA4
:100DF000023292F8363092F83520D34216D10123D0
:100E000003FA01F2B1FA81F16068490920EA0200AF
:100E10006060626803FA01F1114207D1094AAB40F0
:100E2000C2F88030BFF34F8FBFF36F8F30BD00BF6C
:100E30000000014000800940F50E0000B90E0000DE
:100E400000ED00E000E100E0CD0E0000E10E00004A
:100E5000180C0010012810B408D0022808D010BCCB
:100E60007047506820F00100506010E003460EE02B
:100E700038230F4803FB01035868013006D0186976
:100E80009C68046093F83630002BEAD000233822A7
:100E900051430748421840580028E0D01BB992F847
:100EA0003620002ADBD0034A1946126810BC1047CE
:100EB000180C0010100C0010034A00219068C0F3B9
:100EC0004200FFF7C7BF00BF00C00040034A012136
:100ED0009068C0F34200FFF7BDBF00BF00000140B3
:100EE000034A02219068C0F34200FFF7B3BF00BF7E
:100EF00000800940034A03219068C0F34200FFF7D5
:100F0000A9BF00BF00C009402DE9F04F754A0E4649
:100F100001688DB09142059004DD9B2272497348AF
:100F200000F08EFC059B72491A688A4200F09C8092
:100F300079DCA1F580418A4200F088806D4AD2F8C0
:100F400000903201B9FBF2F5ACB202FB1595002D11
:100F500000F0BF804FEA490308934FEA89030793E3
:100F6000079A01270392002233462146DDF820B07C
:100F7000CDF810900696029701921A464FF000089D
:100F80005FFA87FABBF1000FABBF0398BBFBF2F42B
:100F9000B0FBF2F42409A8BF64090134C4F34F0480
:100FA0005FFA88F5002C00F09780B8F1000F02D0AE
:100FB000012C08BF022407EB080060430A93049B3E
:100FC000C000B3FBF0F00130C6EB50000B9209916A
:100FD00001F05CFA069B099998420B9A0A9B62DA27
:100FE00086425BD10F2F07D12146CDF808A001958D
:100FF0000C46DDF808A0019D059B45EA0A151B6813
:10100000EDB21A7B42F080021A73C4F30722E4B2F5
:101010001A711C7083F828501A7B02F07F021A7331
:101020000DB0BDE8F08F34498A4229D001F58041E6
:101030008A4283D1314AD2F8AC1121F44021C2F85E
:10104000AC11D2F8AC1141F4802124E02B4AD2F843
:10105000A81121F0C001C2F8A811D2F8A81141F0DE
:101060004001C2F8A81169E7244AD2F8A81121F476
:101070004071C2F8A811D2F8A81141F48071F0E7CC
:101080001E4AD2F8AC1121F44031C2F8AC11D2F8AA
:10109000AC1141F48031C2F8AC114FE72146069003
:1010A000CDF808A0019508F101085FFA88F05045D5
:1010B0003244FFF467AF0F2F9AD0049A07984A443E
:1010C0000492089A01379344039A334402440392EA
:1010D00053E74FF0010A8FE7B8F1000F0CBF01246E
:1010E000022468E700C00940DC8A0000478B00004A
:1010F00000000140D00100100080094000C00F40F6
:10110000F8B55E1E012E07460C46154604D9FB2293
:101110001349144800F094FB053C032C04D9FC222D
:101120000F49114800F08CFB042D04D9FE220C4914
:101130000E4800F085FB013DEDB2032D8BBF00236F
:1011400001221A460A4B44EA860498BF5B5744EAD8
:10115000C204396844EA0314E4B20C73F8BD00BF5A
:10116000DC8A0000608B0000858B0000A88B0000EB
:10117000B6890000034B1960382341684B4302498C
:10118000CA507047100C0010180C001030B431B960
:1011900038254368034C05FB034383F8362030BCF5
:1011A000FFF7F0BD180C001010B50268137DDB07C7
:1011B000FCD5382443680848117804FB03035868B9
:1011C000C9B2013006D058699B680360536843F088
:1011D00001035360084610BD180C00100368187D09
:1011E00000F00100704700003821114A436801FBFC
:1011F0000323DA69013209D01A6B1B6A12681A429A
:1012000014D10368187DC0F3801070470268127D06
:10121000920604D50022012083F83420704793F809
:1012200034000F288CBF0020012070470020704739
:10123000180C001038B504460D462046FFF7D4FFC1
:101240000028FAD038212368EDB21D706368044A83
:1012500001FB032393F83420013283F8342038BD96
:10126000180C00102DE9F84F9A463C4C03680546CF
:10127000A34218BF00248946904647681CB1237CCE
:1012800003F03F03237438234FF0FF32344E2846D7
:1012900003FB0763DA615A60002283F835201146A8
:1012A000FFF770FDB9F1000F55D02E49404600F010
:1012B000A3FA2D498346504600F09EFAA9F1020395
:1012C000012B1BD8BAF1FF3F0BD0244B98420DD114
:1012D00064B1237C244943F080032374504600F01A
:1012E0004DFAB9F1030F0CD0BDE8F88F382000FBA0
:1012F000076051461C3000F0E8F9F2E7B9F1010F40
:1013000029D1B8F1FF3F01D1BDE8F88F07222B6842
:101310001A72124B9B450AD14CB1237C404643F0D4
:10132000400323740F49BDE8F84F00F027BA382472
:1013300004FB076041460022043000F0C9F9012295
:101340006B68284604FB036686F835200021BDE85B
:10135000F84FFFF717BDBDE8F88F00BF0000014050
:10136000180C0010E0890000BC8900002DE9F8434A
:101370000F4605464D493846164600F049FA4C4995
:101380000446304600F044FA0146204600F01AFABE
:10139000411C044604D15C224649474800F050FAFB
:1013A000464B2C609C4263D04DD8A3F580439C42B1
:1013B00056D04FF001094FF0000884F808904FF420
:1013C00016512846C4F80480FFF79EFD42464B465E
:1013D00008212846FFF794FE3449384600F0CEF93C
:1013E0003349304600F0CAF97A1C03D041463846EA
:1013F000FFF78EFC731C03D000213046FFF788FCFA
:101400002E4B9C424CD03FD8A3F580439C4244D005
:1014100038216A682A4B284601FB02324FF0FF331D
:1014200000215360D3611A46FFF71CFF254B9C42F5
:101430003AD10122244B29461A6024480822BDE8EB
:10144000F84301F013BE224B9C4217D003F58043B2
:101450009C42AED11F4AD2F8C43043F0007304E07E
:101460001C4AD2F8C43043F00803C2F8C430A0E7E5
:10147000184AD2F8C43043F01003F6E7154AD2F800
:10148000C43043F08073F0E7114B9C420AD003F55F
:1014900080439C42BCD1032300E000236B60B7E78C
:1014A0000123FBE70223F9E7BDE8F883708A000017
:1014B000048A0000DC8A00002C8C0000000001403F
:1014C000180C001000C00040140C0010540E001046
:1014D0000080094000C00F400649074A074B9A4266
:1014E000BEBF51F8040B42F8040BF8E704488047EC
:1014F000044800472C950000C8000010900B001015
:101500001D15000041030000FEE7FEE7FEE7FEE7D1
:10151000FEE7FEE7FEE7FEE7FEE7FEE72022264BBA
:10152000C3F8A021D3F8A021920603D5D3F8A021B7
:101530005006FBD50222C3F8042100220120C3F883
:10154000A821C3F8AC210B22C3F80C01AA21C3F8CF
:1015500084205522C3F88C10C3F88C20C3F8800077
:10156000C3F88C10C3F88C20134B1A46D3F888109C
:101570004901FBD50321C3F88010AA21C3F88C10C0
:101580005521C3F88C10D2F8883013F0407FFAD080
:101590000523C2F80831094BC2F8C4300023C2F851
:1015A000C831136823F4704323F03A0343F44053E3
:1015B00043F03A031360704700C00F40DE872804F1
:1015C000004870473C8C0000014B9868704700BF92
:1015D00000400940034B98615A6942F001025A6188
:1015E000704700BF004009401022024BC3F80021A1
:1015F000704700BF00E100E0024A536923F0010395
:101600005361704700400940114B187808B1FFF74B
:10161000F3BF01210F4A1970D2F8C43043F400031C
:10162000C2F8C430A2F5D022106702200A4B1B6812
:1016300050600A48B3FBF0F3013BD360084B5160A4
:101640009B68084A1A651022074B1A60704700BF52
:10165000F80C001000C00F40D001001000093D0040
:1016600000ED00E06917000000E100E00122014BFD
:101670001A6070470040094038B5036804460133DA
:101680000D4604D124220549054800F0D9F86368C5
:1016900015B1E268136038BD2269FBE739870000A5
:1016A000B886000070B50E4604461546FEF7ECFEFF
:1016B000013609D020460021FEF700FF29462046CA
:1016C000BDE87040FEF7F7BE70BD0322FFF7EABF2A
:1016D00070B50E4604461546FEF7D6FE01360DD00F
:1016E00029462046FFF7C8FF20460121FEF7E6FE07
:1016F0002046BDE870400221FEF7DDBE70BD00222D
:10170000FFF7E6BF7047A0F13000FFF7FBBFA0F185
:101710003000FFF7F7BF00F0FDBAA0F13000FFF78F
:10172000FABF00F0FABAA0F13000FFF7FABF0000EC
:1017300038B504461D46049B00F010FB294604F111
:10174000300000F095FD054B204603F108022260B1
:1017500003F1280288332263636338BD448C0000A0
:1017600000487047D48C0000024B1B680BB1024844
:1017700018477047D4010010D48C000013B50446FC
:1017800001300FD102B010BD9C420AD120468968B9
:10179000FFF798FA0221204602B0BDE81040FFF79B
:1017A000B7BA0C310B685A1CEED1002322460093C5
:1017B0000249034800F050FCE4E700BF298D000017
:1017C00030010180884207B502460BD0431C09D086
:1017D00001310BD0002306490093064800F03CFC81
:1017E0004FF0FF31084603B05DF804FB0146F9E70E
:1017F000F88C0000300101800B685A1C01D118469A
:101800007047834201D1486870470C31F4E700000B
:10181000421C13B504460BD0FFF7EEFF431C0446F1
:1018200006D10023024600930349044800F014FC4B
:10183000204602B010BD00BF098D000030010180BC
:1018400070B504460D46164600F018F833462A4691
:1018500021460348FEF7C6FEBDE87040FEF764BEB1
:101860003A8D0000EFF31080C04300F00100704794
:10187000EFF30580003018BF0120704710B5074C0A
:101880002368013304D1552205490648FFF7D8FFE4
:1018900000F052FD23680133236010BD400D00109D
:1018A0006B8D0000C08D0000054B1A6832B11A68BC
:1018B000013A1A601B680BB900F050BD704700BFB9
:1018C000400D0010D0E85F3F0B449BB2C0E8523F90
:1018D000002AF7D118467047D0E85F3F5B1A9BB2E9
:1018E000C0E8523F002AF7D11846704770B50E463F
:1018F00000250446056045600F49304602F038F87F
:101900000644266023681A782F2A0ED101332360FB
:1019100025B9282209490A48FFF792FF294630468F
:1019200000F002FC6060204670BD002AF0D0013358
:1019300001352360E6E700BFF18D0000F38D000064
:10194000458E000000687047406808B520B100F07F
:101950009BFB431E5842584108BD10B50446FFF793
:10196000F3FF10B1606800B1043810BD406808B5DD
:1019700020B100F089FBB0FA80F0400908BD10B535
:101980000446FFF7F3FF10B1606800B1043810BDE2
:101990004068003018BF0120704700002DE9F74F64
:1019A00090E8080404465B68984763681B6A98429D
:1019B0003FD0DAF82030DAF80840A0EB0308CAF884
:1019C0002000DAF80C30314808EA03088442464621
:1019D0004FF0000727D0DAE90A239AF839B0A8FBBC
:1019E0000089CDE900230025BBF1000F2BD05A461A
:1019F0004046494605F046FADDE9002312EB0802AD
:101A000043EB090390465A46994606460F4605F0B1
:101A100045FAB8EB000069EB0101A94208BFA042FA
:101A20000AD2CAE90A01DAE90C23B6185F41CAE909
:101A30000C6703B0BDE8F08F013647F10007001BCB
:101A400061EB0501EDE722462B464046494605F08D
:101A5000C5FE224606460F46404649462B4605F03F
:101A6000BDFEDDE9008918EB020849EB0309A94531
:101A700008BFA04502D2CAE90A89D4E7013647F176
:101A80000007B8EB040869EB0509F4E740420F00D2
:101A9000824206D98A420BD9884294BF0020012095
:101AA0007047884206D98A428CBF002001207047C7
:101AB00001207047002070472DE9F047074646682F
:101AC000FFF76CFF7D68D7F800A06B68002B49D04A
:101AD000D5E90C89D3E90001894508BF804504D3C5
:101AE000DAF81430BDE8F0471847B0EB080861EBAE
:101AF0000909D5E906234B4508BF42452C6906D3A1
:101B0000AB681E4A934219D1444528BF44462A6A0D
:101B1000336A1444EA681440A342E1D0DAF8103082
:101B2000204698473B685B68984722460146306AE2
:101B3000FFF7AEFF00B33B685B69D3E795F8392048
:101B40005AB14046494605F0A9F90C4A002305F070
:101B500045FE844228BF0446D9E7A3FB080103FBE6
:101B60000911F2E73369306AF26818441040DAF874
:101B70001030BDE8F0471847BDE8F08740420F003D
:101B80002DE9F74F054603681B6898472B689B694A
:101B90009847066804462EB929222D492D48FFF79B
:101BA0004FFE2D4E1F23012202FA03F1B1425FFACC
:101BB00083FB02D0013BF7D19B46D4F804A0AAF1E5
:101BC00004031C2B06D9372221492248FFF738FE8F
:101BD0004FF0200A0727AAF104039F40002316F1C3
:101BE000FF301D4C43F1FF313246C4FB070105F0C5
:101BF000F5FD00236C68CDE90001236063602B686C
:101C00004FF000085B6898474FF0000920626C684D
:101C10005246C4E90A89A66084F839B0012000213F
:101C200005F03CF9DDE90023C4E90623012301386E
:101C3000E06027612846C4E90C8984F83830FFF752
:101C4000ADFE284603B0BDE8F04FFFF735BF00BF3B
:101C50004E8E00004C8E000040420F0070B50446CE
:101C6000FFF70CFE2368DB68984763685B68A3B1E5
:101C70002046FFF793FE65686E68D5E90C01D6E94A
:101C80000023994208BF904207D3F3686B602B682A
:101C9000002BEAD0B0689847E7E72046FFF70CFF33
:101CA000BDE87040FFF700BE436810B593F83830C8
:101CB00004460BB9FFF764FFFFF7E0FD2046FFF78E
:101CC0006DFEFFF7F1FD6368D3E90C0110BD08B5A7
:101CD000FFF7EAFF08BD704770470000090170B5C3
:101CE00001F10C050544EB6873B14418A3692BB9E5
:101CF0004FF4047205490648FFF7A2FDA369284680
:101D0000BDE870401B68184770BD00BFA08E000082
:101D1000FB8E00000430FFF747BA10B50C460430C4
:101D2000FFF788FA204610BDC36810B504460BB112
:101D30009B689847204610BD884238B504460D463A
:101D40000AD0FFF7F1FF3CB1EB681BB15B68294695
:101D500020469847EB68E360204638BD2DE9FF47F1
:101D6000044600259A46884691461F4B00F10C0711
:101D7000036045608560294604F11C061022384640
:101D800001F04CFA29461022304601F047FA1022A1
:101D90002946C4F82CA0684601F040FA6946384646
:101DA000FFF7CAFF6846FFF7BFFF102229466846C3
:101DB00001F034FA69463046FFF7BEFF251D68463C
:101DC000FFF7B2FF4A4641462846FFF7CFFAE16ADD
:101DD0002846FFF799F8284622460449FFF7CAF932
:101DE000204604B0BDE8F087088F0000DD1C00002D
:101DF0002DE9FF41064688461746054656F8043B3E
:101E00003C011B689847FFF739FDD8F80C300C34BB
:101E10002C44ABB1E3680BB900F0BAFA4146204656
:101E2000FFF78AFF012239463046FFF7AFF9FFF787
:101E30003BFD2B6828465B68984704B0BDE8F081FD
:101E4000E3680BB100F0C6FA10220021684601F0E9
:101E5000E5F969462046FFF76FFF6846FFF764FF24
:101E60000022E0E77FB50446154B102203600021F5
:101E7000684601F0D3F9002269462046FFF7B8FF13
:101E80006846FFF751FF10220021684601F0C6F9AD
:101E9000012269462046FFF7ABFF6846FFF744FF83
:101EA00014F10C0608D004F12C05B54204D0103D05
:101EB0002846FFF739FFF8E7204604B070BD00BFA1
:101EC000088F000010B50446FFF7CCFF2046FEF750
:101ED000C8FD204610BD00002DE9F0411C4C1D4EF0
:101EE000237836EA200628BF0646012B88B0F04644
:101EF0000F4600D1FEE7FFF7C1FC0123164D23700A
:101F0000FFF7D2FC2B6800220133202168462B60AA
:101F100001F084F92B688DE84001012B029704D170
:101F2000202269460D4801F0A1F8202269460C489C
:101F300001F09CF8684600F06BFA0A4B1B680BB185
:101F4000074898470020207008B0BDE8F08100BF26
:101F50004C0D00100101FF80440D0010500D0010C9
:101F6000700D0010480D00107FB52D4C06462168FD
:101F70002C48C1F34173032B0CBF4D428DB2C1F30A
:101F800007432A46FEF72EFB6FF49E72AB18032B15
:101F90000CD83046FEF726FBA1682348FEF722FB4B
:101FA000224804B0BDE87040FEF71CBB6FF4987384
:101FB0001D44072D09D8DFE805F0041D2023262C39
:101FC000292FA1681A48FEF70DFB30460021FEF7C5
:101FD00009FB61681748FEF705FBE36904F1080196
:101FE0000293A36914480193636900930EC9FEF735
:101FF000F9FAD5E7A1681148E5E7A1681048E2E7DA
:10200000A1681048DFE7A1680F48DCE7A1680F4826
:10201000D9E7A1680E48D6E7A1680E48D3E700BF0C
:10202000700D0010188F0000698F0000789000007C
:102030007A8F000007900000179000008F8F00003B
:102040009E8F0000AC8F0000BE8F0000D18F00007B
:10205000E48F0000F28F000010B50C461146FFF728
:102060003BFF68B92046FFF77FFFFFF701FC10B97F
:10207000FFF7F8FB08B930BFFDE70120FEF782FB50
:10208000004810BD0F01FF80007B704738B50B4B37
:102090000446036000230D464360A16002730848B4
:1020A000FEF7E2FC45B1074B1A681C606260044809
:1020B000FEF7DAFC204638BD6560F8E79C9000002A
:1020C000940D0010900D001010B504460E4B0360E7
:1020D0000E48FEF7C9FCA3682BB10D4A13689C4259
:1020E0000CD1636813600948FEF7BEFC237B13B96B
:1020F000201FFEF7CFFC204610BD13465A689442BD
:10210000FBD162685A60EEE79C900000940D0010CD
:10211000900D001010B50446FFF7D6FF2046FEF7DD
:10212000A0FC204610BD000070B506460C480D46C8
:10213000FEF79AFC0B4B1C685CB1A06870B12A4694
:10214000314601F0CBFB48B9A06801F099FB85420C
:1021500004D10348FEF788FC204670BD6468EBE7B5
:10216000940D0010900D001070B50446FFF7F8FABA
:102170000646FFF7ACFD05463046FFF7A8FD401BBD
:10218000A042F9D370BD4FF47A735843FFF7ECBF08
:1021900000F00CB830B585B06D46182420462946AD
:1021A000ABBE0446204605B030BD0000024B1868A7
:1021B00000F00100704700BFF0ED00E00020704724
:1021C00070477047F8B50E46036804461B6D8F18BC
:1021D00035469847BD4207D0236815F8011B9B6C14
:1021E000204698470130F5D1236820465B6D98471B
:1021F000A81BF8BDF8B50E46036804461B6D8F1882
:1022000035469847BD4208D023682046DB6C984786
:10221000431C02D005F8010BF4E7236820465B6DF0
:102220009847A81BF8BD00207047704700207047F2
:102230000020704710B50446044B0360503340F84B
:10224000043FFFF741FF204610BD00BFAC900000E7
:10225000A0F10400EEE700BF10B50446FFF7EAFF67
:102260002046FEF7FEFB204610BDA0F10400F3E778
:1022700013B504460F4B002240F8043BFFF706FF5E
:102280000D4B0E4923606033636000232046636179
:10229000FEF74AFC0346606120B1FEF778FA20465B
:1022A00002B010BD0090024605490648FFF7D4FE73
:1022B000F5E700BF50920000249100000491000057
:1022C000079100001901018010B50446064B03F187
:1022D0000802683302604360406900F049F9204613
:1022E000FFF7A8FF204610BD1C91000038B504463A
:1022F0000D4603681B6D9847606900F019FA616923
:10230000284600F097FB0546236820465B6D9847FA
:10231000284638BD38B5044603681B6D9847606988
:1023200000F006FA6069FEF735FA05462368204694
:102330005B6D9847284638BDEFF31083DB4372B6D8
:10234000044A117829B9044903F001030B700123F1
:10235000137070479D0D00109C0D001008B5EFF331
:102360001083DB0704D4362205490648FFF768FAD4
:102370000022054B1A70054B1B7803B162B608BDED
:102380008C910000E89100009D0D00109C0D001044
:1023900013B5FFF773FA4FF6FF730B4C22889A427E
:1023A00008D1FFF781FA00232288009307490848E3
:1023B000FFF752FE01210448FFF784FA02B0BDE89E
:1023C0001040FFF771BA00BF9E0D0010029200008E
:1023D0002301048037B50B4DFFF750FA2C8844B920
:1023E000FFF762FA2A880094234607490748FFF757
:1023F00033FE01210348FFF76FFA03B0BDE8304018
:10240000FFF752BA9E0D00102792000024010480AD
:1024100010B50446B8B1FFF731FA0C4A0C481368FE
:102420002146013313605A4202F0030203F0030312
:1024300058BF534200EB4310202200F017FEFFF775
:1024400033FA002010BD034810BD00BFD8010010B2
:10245000A00D00100101FF80036870B51B69012207
:10246000002104469847051E0DDB236802221B69E4
:102470000021204698470646236829461B6900220A
:10248000204698473546284670BD00000028B8BF52
:1024900040427047014B1868704700BFDC010010D4
:1024A00070B5002948D005460C4610B1836B002B4F
:1024B00048D0626EB4F90C30D00740D4990530D5BD
:1024C0002146284600F05CF8E36A064633B1E1692C
:1024D000284698470028B8BF4FF0FF36A3891A0650
:1024E0003CD4216B41B104F14003994202D028460B
:1024F00005F0FAFA00232363616C21B1284605F048
:10250000F3FA0023636400F021FA0022636EA281D3
:10251000DB071FD5A06D00F0D5FC00F01DFA30469A
:1025200070BDA06D00F0D0FCB4F90C30002BC7D109
:10253000666E16F0010616D00026304670BD002BE0
:10254000FAD0BDE700F080F9626EB4F90C30D00724
:10255000F5D4B3E7A06D00F0B9FCDBE721692846AC
:1025600005F0C2FABDE7A06D00F0B0FC304670BDCA
:10257000024B01461868FFF793BF00BFDC01001053
:10258000B1F90C302DE9F0419AB20C4611078046A2
:1025900044D4626843F40063002AA3815ADDA56A2B
:1025A000002D54D000229BB2D8F80060E169C8F831
:1025B000002013F4805240F0848001234046A84755
:1025C000431C4BD0A389A56AE1695F0705D5626802
:1025D000236B801A0BB1E36BC01A024600234046FE
:1025E000A847451C46D00021B4F90C30226923F4D9
:1025F0000063A381DB04C4E9002100D52065216BC1
:10260000C8F8006019B304F14003994202D0404673
:1026100005F06AFA00202063BDE8F0812669B6B1B2
:10262000920718BF0023256808BF63692660AD1BA9
:10263000A3600AE02B463246676AE1694046B84724
:102640000028A5EB000506442BDD002DF2DC002060
:10265000BDE8F081E26B002AA1DCF8E7D8F8003091
:10266000002BAFD01D2B01D0162B2CD1C8F8006049
:102670000020EDE7D8F800501D2D1AD8144BB4F9FE
:102680000C20EB40DB4313F0010314D1216922F449
:102690000062C4E90013D104A281B0D5002DAED1EF
:1026A000ACE7A3894FF0FF3043F04003A381BDE8BE
:1026B000F081B4F90C2042F04002A2814FF0FF30CB
:1026C000C6E7206D81E7A38943F04003A381BFE7FC
:1026D0000100402038B50D46044608B1836BA3B114
:1026E000B5F90C00B8B16B6EDB0701D481051AD5C2
:1026F00020462946FFF744FF6B6E0446DA0702D4F2
:10270000AB899B050AD5204638BD00F09DF8B5F988
:102710000C000028E7D10446204638BDA86D00F023
:10272000D5FB204638BDA86D00F0CEFBE0E700BF2A
:1027300020B1054B01461868FFF7CCBF034B044995
:10274000186800F071BB00BFDC0100109892000017
:10275000D526000038B5184B04461D680DB1AB6B8B
:10276000B3B1636ED80702D4A38999051FD56368F6
:10277000013B002B63600FDB23685A1C22601D782D
:10278000636EDA0702D4A3899B050BD5284638BDB2
:10279000284600F059F8E4E72846214600F06CFE90
:1027A0000546EDE7A06D00F091FB284638BDA06D11
:1027B00000F08AFBDBE700BFDC010010002310B54E
:1027C00004468181C281C0E9003383604366C0E969
:1027D00004338361194608225C3000F01FFD07486E
:1027E0000749084A084BC4E90740C4E90912E362F3
:1027F00004F15800BDE8104000F062BB3D36000017
:10280000613600009D360000BD360000014900F031
:102810000BBB00BFA124000070B568254A1E05FB54
:1028200002F50E4605F1740105F05AF9044640B16F
:1028300000210C30666005F168022160A06000F0A4
:10284000EDFC204670BD00BF10B50446144800F0F2
:102850003BFBA26BFAB90320124904F53B73C4F8A1
:10286000E832C4F8E022C4F8E402E16360680421BD
:10287000FFF7A4FFA06801220921FFF79FFFE0688E
:1028800002221221FFF79AFF01230548A363BDE846
:10289000104000F01BBB0248BDE8104000F016BB22
:1028A000680E00100D28000070B50646244800F0A0
:1028B0000BFB244B1D68AB6B83B305F53875D5E96D
:1028C0000134013B05D525E0013B5A1C04F16804A5
:1028D00020D0B4F90C20002AF6D100251A4B04F1BF
:1028E0005800E360656600F0EBFA154800F0EEFA78
:1028F0002560C4E90155C4E90455A56129460822AB
:1029000004F15C0000F08AFCC4E90C55C4E91155DF
:10291000204670BD2C682CB12546D0E72846FFF72D
:1029200093FFCAE704213046FFF776FF044628608C
:102930000028F1D1024800F0C9FA0C233360E7E720
:102940007C0E0010989200000100FFFF014800F08B
:10295000BBBA00BF7C0E0010014800F0B7BA00BF40
:102960007C0E00101346F0B583B00F4601AA19463D
:10297000064602F0EDF8002836D005463046FFF74F
:1029800093FF044600282FD039464FF4DB73019A99
:10299000304600F08DFC071E30DB636EDB0715D57B
:1029A0001C4B1D491D4AC4E907431D4BC4E90912CC
:1029B000E905E781A581E3620FD4636EDA0702D4EB
:1029C000A3899B0514D5204603B0F0BDA3899805C3
:1029D000E6D4A06D00F078FAE2E730460223002248
:1029E000214600F053F8E8E70024204603B0F0BD8C
:1029F000A06D00F06BFA204603B0F0BD0025FFF794
:102A0000A5FFA581A06D00F05DFA2C46FFF7A4FF9D
:102A1000D9E700BF3D360000613600009D3600005A
:102A2000BD360000024B0A4601461868FFF79ABF00
:102A3000DC010010144B70B51D6806460C460DB144
:102A4000AB6B9BB1636ED80702D4A389990516D5E9
:102A500028462246314600F041FC636E0546DA07FF
:102A600002D4A3899B0505D5284670BD2846FFF7EB
:102A7000EBFEE7E7A06D00F029FA284670BDA06DD7
:102A800000F022FAE4E700BFDC01001000F000B81B
:102A90002DE9F04F0C4697B091461F46064618B1F7
:102AA000836B002B00F09480626EA389D20702D45E
:102AB0009D0540F1A68003F48473B3F5847F00F094
:102AC0009B80D4F82880B8F1000F00F08480012F9B
:102AD00013D0022F00F08B80002F00F08880162288
:102AE000636E3260D90702D4A3899A057BD54FF073
:102AF000FF35284617B0BDE8F08F21463046FFF776
:102B0000E9FDA38913F4805240F03781E1693B4627
:102B10003046C047411C054600F0E280A3895F07AC
:102B2000226940F1EE80D4F804E0236BA5EB0E059A
:102B30001BB1D4F83CC0A5EB0C054FF0010A0027EF
:102B4000A944002A00F0E78040F61A01B4F90C30DD
:102B50009AB20A4208D1520565D4964A904500F0CF
:102B6000FD8043F40063A38121463046FFF7B2FDA8
:102B7000002840F0C1803B464A46E1693046C047E4
:102B8000013000F0B980216B41B104F1400399425A
:102B900002D0304604F0A8FF0023236300212269FD
:102BA000A389C4E90021082223F40263A38104F16C
:102BB0005C0000F033FB656E15F0010503D1A389BD
:102BC0009B0540F195800025284617B0BDE8F08FA1
:102BD000FFF73AFE68E71D22636E3260D80786D49D
:102BE000A3899A0583D4A06D00F070F97FE74FF0B8
:102BF000000A22695546A4E721463046FFF76AFDE0
:102C00005FE7A06D00F060F9A38954E7019AB4F979
:102C10000C3002F47042B2F5004FA2D14FF4806242
:102C20001343A381E264002F40F08B80CB46BAF1BE
:102C3000000F75D1A389DB0400F181805246012386
:102C4000E1693046C047451C8ED0D4F804E0216BC2
:102C5000A0EB0E05734600296AD0D4F83CC0A5EB62
:102C60000C05A36B206975441B1AED1A6344AB4530
:102C700080F28580E26C0023524202EA0B052A466C
:102C8000E1693046C04701303FF46EAF002223694E
:102C9000216B6260236041B104F14003994202D08C
:102CA000304604F021FF00232363A389BBEB050B0F
:102CB00023F02003A38110D02146304600F050FBC2
:102CC00000287FF451AF63685B45FFF44DAF226885
:102CD000A3EB0B035A44C4E900230822002166E752
:102CE000636EDA073FF503AFA3899B053FF5FFAE9F
:102CF000A06D00F0EBF8FCE6636ED9077FF5F4AE4B
:102D0000F5E618077FF519AF2368002B3FF415AFE0
:102D10009B1A1D4411E72146304600F007F913E7DE
:102D2000216B21B1D4F804E0D4F83CC099E7636882
:102D3000226820690021121AAD1A134497E7206D0A
:102D400083E76A46B4F90E10304600F035F80028E3
:102D50007FF40AAF049B09EB030B68E7B4F90E108C
:102D60000029FFF6FEAE6A46304600F025F800283E
:102D70003FF44CAFB4F90C30F3E6256DCFE6EA181A
:102D80005A457FF677AFABEB050528445B1BC4E9DA
:102D9000000341B104F14003994202D0304604F0EF
:102DA000A3FE00232363A389082223F02003A38129
:102DB00094E700BF9D36000070B50D460023074C18
:102DC0000646114628462360FDF749FE431C00D005
:102DD00070BD2368002BFBD0336070BD800E0010E7
:102DE0002DE9F04110F538771AD088460026D7E94A
:102DF0000154013D0ED4A389013D012B06D9B4F93C
:102E00000E30013302D02046C04706436B1C04F14C
:102E10006804F0D13F68002FE9D13046BDE8F08169
:102E20003E463046BDE8F0812DE9F84310F538768E
:102E30001ED0884607464FF00009D6E90154013DEF
:102E400010D4A389013D012B08D9B4F90E30013308
:102E500004D021463846C04749EA00096B1C04F1FA
:102E60006804EED13668002EE7D14846BDE8F88305
:102E7000B1464846BDE8F88370B50D4E0D4D761B42
:102E8000B61006D00024013455F8043B9847A642FA
:102E9000F9D1094E094D05F003FC761BB61006D09A
:102EA0000024013455F8043B9847A642F9D170BD7F
:102EB000840B0010840B00108C0B0010840B00108E
:102EC000704700BF704700BF704700BF704700BF2A
:102ED00070B50C46B1F90E1096B0002915461E4685
:102EE0000FDA0023A289336012F0800004D14FF47E
:102EF00080632B6016B070BD402218462A6016B061
:102F000070BD6A46FFF758FF0028EADB019B4FF4CB
:102F1000806203F47043A3F50053B3FA83F34FF4D4
:102F200000605B0933602A6016B070BD8A890B4669
:102F3000920706D5012103F1430259611A601A6113
:102F4000704770B582B001AB6A460C460546FFF784
:102F5000BFFF00990646284604F0C2FDB4F90C30C4
:102F6000D8B1164A0099EA63019A43F08003A3811D
:102F70002060C4E904011AB93343A38102B070BDD3
:102F80002846B4F90E1001F01FFEA0B1A38923F06A
:102F9000030343F001031BB2EEE79A05EED40121CF
:102FA00023F0030304F1430243F00203A3816161B0
:102FB00022602261E2E7B4F90C30DDE70D28000061
:102FC000024B0146186804F08BBD00BFDC01001005
:102FD000024B0146186804F087BD00BFDC010010F9
:102FE000830770B4CDB23DD0541E0AB30378AB4210
:102FF0001FD0431C05E014F1FF3419D30278AA4214
:1030000017D013F0030F184603F10103F3D1032C7B
:1030100011D84CB30378AB420BD00444431C02E0FC
:103020000278AA4205D09C42184603F10103F7D169
:10303000002070BC704706460A0292B22A4342EA58
:103040000242336830465340A3F1013121EA0303C1
:1030500013F0803F06F10406DCD1043C032C30461B
:10306000EFD8D6E71446D2E72046E2E7844641EAA5
:10307000000313F0030349D1403A23D30B680360E4
:103080004B6843608B688360CB68C3600B690361E6
:103090004B6943618B698361CB69C3610B6A0362CE
:1030A0004B6A43628B6A8362CB6AC3620B6B0363B6
:1030B0004B6B43638B6B8363CB6BC363403040319B
:1030C000403ADBD230320BD30B6803604B6843606D
:1030D0008B688360CB68C36010301031103AF3D234
:1030E0000C3205D351F8043B40F8043B043AF9D2C2
:1030F000043208D0D2071CBF11F8013B00F8013B95
:1031000001D30B8803806046704700BF082A13D3A1
:103110008B07B1D010F00303AED0C3F10403D21A71
:10312000DB071CBF11F8013B00F8013BA4D331F8C9
:10313000023B20F8023B9FE7043AD9D3013A11F849
:10314000013B00F8013BF9D20B7803704B784370D8
:103150008B788370604670478842F0B40DD98B1825
:1031600083420AD9841832B1224613F8014D99429C
:1031700002F8014DF9D1F0BC70470F2A48D940EA56
:1031800001039B0746D1A2F110031B0901F120079F
:1031900007EB031701F1100400F1100554F8106C4F
:1031A000103445F8106C54F81C6C103545F81C6C44
:1031B00054F8186C45F8186C54F8146CBC4245F877
:1031C000146CEBD1013302F00F051B01032D1944E0
:1031D000034421D90F462C461E1F57F804CB043C4C
:1031E000032C46F804CFF8D82C1F24F00304043431
:1031F0002344214402F00302002ABCD0013B0A44CC
:1032000011F8014B914203F8014FF9D1F0BC70471E
:103210000346F1E70346F1E72A46EDE7F0B48607F7
:1032200043D0541E002A3ED0CAB2034602E014F135
:10323000FF3438D303F8012B9D07F8D1032C2BD989
:10324000CDB245EA05250F2C45EA054516D9A4F16E
:1032500010073F0903F1200606EB071603F11002E1
:1032600042E9045542E902551032B242F8D104F065
:103270000F040137032C03EB07130DD91E4622461A
:10328000043A032A46F8045BFAD8221F22F003020C
:103290000432134404F003042CB1C9B21C4403F8F3
:1032A000011B9C42FBD1F0BC704714460346C5E7A6
:1032B000F8B50E460025084C114607461A4630461A
:1032C0002560FDF79BFC431C00D0F8BD2368002B54
:1032D000FBD03B60F8BD00BF800E0010F8B50E4675
:1032E0001446074608B1836BBBB1636ED80702D49E
:1032F000A389990526D5A368013B002BA3600FDBAA
:10330000F5B223685A1C22601E70636EDA0702D47D
:10331000A3899B0511D52846F8BDFFF795FAE4E788
:10332000A269934202DBF5B20A2DEAD13146384652
:10333000224600F07DFB0546E7E7A06DFFF7C6FDDE
:103340002846F8BDA06DFFF7BFFDD4E7838903F0E1
:103350000903092B01D000207047FFF7E9B900BF2E
:10336000F8B50C46054610B1836B002B40D0B4F97C
:103370000C309AB2970407D4626E43F4005322F4DF
:1033800000526266A3819AB200219606616038D429
:1033900050071AD4D10662D512074ED443F0040365
:1033A000A3812369002B55D0B4F90C70BEB2B307CA
:1033B0002AD1226928462260256A6369E169A84703
:1033C0000028606017DD0020F8BD216B0029E8D0DF
:1033D00004F14003994202D0284604F085FB002006
:1033E000E36B20636360002BDBD0A36B2360F8BD2D
:1033F000FFF72AFABBE7B4F90C3016D143F02003EB
:10340000A3814FF0FF30F8BD0122194BA28118684B
:10341000184906F00906FFF7E3FC092EA781C8D179
:1034200021462846FFF7ACF8C3E7002243F04003EB
:10343000A38162604FF0FF30F8BD21462846FFF7B8
:1034400049F90028DDD1B4F90C30A060A06123F067
:103450000803A3E721462846FFF768FDA4E70922F1
:1034600043F040032A604FF0FF30A381F8BD00BF56
:10347000989200004D33000038B50C46054608B15F
:10348000836B63B128462146FFF76AFF50B9D4E940
:103490000023013B511CC4E90013107838BDFFF72D
:1034A000D3F9EFE74FF0FF3038BD00BF00290CBF64
:1034B000022200224FF4806300F000B82DE9F043AF
:1034C0005D4D83B02D680446884616461F4615B1EB
:1034D000AB6B002B7DD0022E05D0012E00F2A88010
:1034E000002FC0F2A580636EDA0734D52146284646
:1034F000FFF7F0F8216B41B104F14003994202D08B
:10350000284604F0F1FA002323630022B4F90C30BA
:10351000A2611806626060D423F44A6323F00303B7
:10352000022EA3811ED1002500220120616E43F0EE
:103530000203A260C90704F14302A3816061226013
:10354000226104D49B0502D4A06DFFF7BFFC28467E
:1035500003B0BDE8F083A3899B05C7D4A06DFFF736
:10356000B3FCC3E701AB6A4621462846FFF7B0FC2F
:10357000A3891843A081002F36D1009F3846FFF75A
:103580001FFD8046002842D0A38943F08003A38119
:10359000AB6B7BB3009AB4F90C30BA421CBF43F456
:1035A0000063A381012E04BF43F00103A3819BB2FA
:1035B00013F00802C4F80080C4E904871ED1A26099
:1035C000656E15F00105BDD00025284603B0BDE8A5
:1035D000F0832846FFF738F97DE72169284604F093
:1035E00083FAB4F90C3097E7B8F1000FC6D0AB6B93
:1035F000002BCFD12846FFF727F9CBE7DA0704D510
:1036000000227F42A761A260DAE7A760D8E7DDF871
:103610000090B94504D1B4F90C304FF0FF3583E781
:103620004846FFF7CDFC80460028F4D04F46ABE774
:103630004FF0FF358BE700BFDC01001010B50C46E2
:10364000B1F90E1001F01CFE002803DB236D0344CA
:10365000236510BDA38923F48053A38110BD00BF4F
:103660002DE9F041B1F90C409846E3050D461746A7
:10367000B1F90E10064607D50223002201F0C4FA64
:10368000B5F90C40B5F90E1024F48054AC814346D2
:103690003A463046BDE8F04100F022BA10B50C467B
:1036A000B1F90E1001F0B0FAA389421C0EBF23F449
:1036B000805343F480532065A38110BDB1F90E10EF
:1036C00000F08ABA80EA010C1CF0030F37D110F029
:1036D000030C20F0030021F0030150F8042B08BF75
:1036E00051F8043B0ED08CF0030C6FF07F434FEA8F
:1036F000CC0C23FA0CFC51F8043B42EA0C0243EADE
:103700000C0300BFA2F1013C9A4201BF2CEA020C5B
:103710001CF0803F50F8042B51F8043BF2D04FEAE4
:1037200002604FEA1222012828BFB0EB036F08BFE6
:103730001B0AF4D003F0FF03000EC01A704710F00C
:10374000030F0AD010F8012B11F8013B012A28BF02
:103750009A42F4D0A2EB030070474DF8045D50F894
:10376000042B01F0030521F0030151F8043B022D65
:1037700026D04DD822F07F45B5EB132FA2F1013CA6
:103780002CEA020C0DD11CF0803C08BF51F8043B20
:103790000AD185EA0205B5EB036F0CD150F8042B72
:1037A000E8E74FEA13235BE03CF07F4C54D10B7801
:1037B0004FEA126554E04FEA126503F0FF034FE051
:1037C0004FEA0245A2F1013C4FEA15452CEA020CF2
:1037D000B5EB134F18D11CF0803C08BF51F8043BE7
:1037E00007D185EA0205B5EB034F09D150F8042B48
:1037F000E6E75FEA0C4C2FD10B884FEA12452FE029
:103800004FEA03434FEA12454FEA134328E000BF53
:1038100002F0FF05B5EB136FA2F1013C2CEA020C9C
:103820000DD11CF0803C08BF51F8043B0AD185EA59
:103830000205B5EB032F0AD150F8042BE8E74FEA55
:1038400013630DE012F0FF0F06D051F8043B4FEA6E
:10385000122523F07F4303E04FF0000020BC7047A7
:1038600005F0FF0203F0FF00012828BF904204BFCB
:103870002D0A1B0AF4D0A2EB000020BC704700BF49
:1038800020F0030110F00300C0F1000051F8043BE8
:1038900000F1040C4FEACC0C6FF000021CBF22FABE
:1038A0000CF213434FF0010C4CEA0C2C4CEA0C4C7C
:1038B000A3EB0C0222EA030212EACC1204BF51F875
:1038C000043B0430F4D0C2F1000102EA0102B2FA72
:1038D00082F2C2F11F0200EBD2007047002A3FD0F3
:1038E00040EA010313F00303F0B425D1032A23D9DE
:1038F00004680D68AC421FD1043A33D0A4F10135FD
:1039000025EA040414F0803F2FD1071D0D1D0DE0A2
:1039100057F8043B0E68A3F10134B34224EA0304D0
:103920000AD1043A1ED014F0803F1BD1032A294645
:10393000384605F10405EBD803780C78013A9C422F
:103940000BD17AB114B90DE062B173B110F8013F37
:1039500011F8014F013AA342F6D0181BF0BC704792
:10396000104670470020F0BC70471846F6E700BFCD
:1039700070B40478A4B106460D784DB1A5420AD0C2
:103980000A4601E0A34206D012F8013F002BF9D10C
:10399000801B70BC704710F8014F002CEDD1F7E789
:1039A0002046F6E770B5141E9AB005462ADB1A4683
:1039B0004FF4027300910491ADF80C304FF6FF768E
:1039C00011D0013C1E9B694602940594ADF80E602F
:1039D00001F0D0FC421C01DA8B232B600022009BFB
:1039E0001A701AB070BD1E9B694602940594ADF81A
:1039F0000E6001F0BFFC431C01DB1AB070BD8B23CD
:103A00002B60FAE78B234FF0FF302B60F5E700BF08
:103A100010B5064C82B00093246813460A4601464E
:103A20002046FFF7BFFF02B010BD00BFDC01001051
:103A3000F8B50D461446064610B1836B002B43D0F3
:103A4000B4F90C20A36991B20807A3601BD52369C0
:103A5000CBB1EDB289042F4622D522686169D31A11
:103A6000994229DD0133A168501C0139A160206011
:103A7000157062699A422AD0A389DB0701D50A2D05
:103A800025D03846F8BD2146304600F03FF820BB2F
:103A9000B4F90C20EDB291B2890423692F46DCD42D
:103AA000616E42F4005221F40051A28122686166E5
:103AB0006169D31A9942D5DC21463046FEF70AFEE9
:103AC00058B901232268CEE7FEF7BEFEB8E72146CB
:103AD0003046FEF7FFFD0028D3D04FF0FF37D0E788
:103AE000F8B50E460025084C114607461A463046E2
:103AF0002560FCF70BFF431C00D0F8BD2368002BAA
:103B0000FBD03B60F8BD00BF800E001038B5314BD4
:103B1000054618680C4610B1836B002B3AD0B4F9F7
:103B20000C2093B218070CD52069A8B113F001023C
:103B300020D000226369A2605B42A36100B3002031
:103B400038BDD9063DD5580727D4206942F008036F
:103B5000A3819BB20028E9D103F42072B2F5007F63
:103B6000E4D028462146FFF7E1F9A389206913F044
:103B70000102DED1990758BF6269A2600028DED138
:103B8000B4F90C301A06DBD543F04003A3814FF0A3
:103B9000FF3038BDFEF758FEC1E7216B51B104F18B
:103BA0004003994204D0284603F09EFFB4F90C204C
:103BB000002323630023206922F02402C4E90003C8
:103BC000C4E7092342F040022B604FF0FF30A2818E
:103BD00038BD00BFDC01001038B50023064C054697
:103BE00008462360FCF776FE431C00D038BD2368EE
:103BF000002BFBD02B6038BD800E00102DE9F04F5C
:103C000003690E6983B0B342C0F28680013E01F1C0
:103C1000140800F1140958F8263059F826700133B9
:103C2000B7FBF3F7B300009308EB030A4B4401938F
:103C3000002F3BD00023C6461C46CC465EF8042B22
:103C4000DCF800501FFA82FB07FB0B33120C4FEA23
:103C5000134B07FB02BB9AB2A21AABB21FFA8BF44A
:103C60001A44C4EB154404EB224492B242EA0442E3
:103C7000F2454CF8042B4FEA24444FEA1B43DDD2B3
:103C8000009B59F803308BB9019A131F99450CD248
:103C900052F8043C4BB9A2F1080302E01A68043B55
:103CA0001AB9994506F1FF36F8D30661044601F0CA
:103CB000F3F900282CDB4D460023013758F8041B8C
:103CC00028688AB29A1A0B0C81B20A44C3EB1043DB
:103CD00003EB224392B242EA0342C24545F8042B69
:103CE0004FEA2343EAD259F8262009EB86037AB932
:103CF0001A1F91450BD253F8042C42B9083B02E03D
:103D00001A68043B1AB9994506F1FF36F8D32661C3
:103D1000384603B0BDE8F08F002003B0BDE8F08F57
:103D20002DE9F04F1F461646036C99B00446CDE9C5
:103D300002674BB10122456C1946AA40C3E9015202
:103D400000F0B4FF002323643E1EB4BF0123002310
:103D5000259AB8BF26F000461360754BB8BF03968E
:103D6000B34300F0A380DDE902890022002340462E
:103D7000494603F0C3FC074678B10123249A136037
:103D8000269B002B00F0BF806A4B269A03F1FF3977
:103D90001360484619B0BDE8F08F16AA17ABCDE9FD
:103DA0000032204642464B4601F012FA350D83465A
:103DB00040F09C80DDE91685454405F23243202B16
:103DC00040F33184C3F140039E40029B05F2124050
:103DD00023FA00F0304303F0AFF90122013D0A92CB
:103DE000A1F1F8710022544B03F068F84AA3D3E91B
:103DF000002303F01BFA4AA3D3E9002303F060F881
:103E0000064628460F4603F0A7F947A3D3E9002347
:103E100003F00CFA02460B463046394603F050F8E0
:103E200006460F4603F0B2FC002205900023304600
:103E3000394603F06DFC002840F07782059E162E6F
:103E400000F26182DDE902233C4901EBC601D1E9C0
:103E5000000103F07BFC002800F0E183731E059352
:103E600000230D93A8EB0505B5F1010A00F1578277
:103E700000230693059B002BC0F248829A440C93C2
:103E800000230B93229B092B60D8052B40F3C98399
:103E90000026043B2293229B023B032B00F2A184C9
:103EA000DFE813F0E603C803F003FC0442F20F73EB
:103EB000249A1360029B83B9C6F313066EB9269B3E
:103EC000DFF87C90002B3FF464AF09F1080348460B
:103ED000269A136019B0BDE8F08F269BDFF8649036
:103EE000002B3FF456AF09F10303F0E7C9F31303C6
:103EF00043F07F514046A5F2FF350A9741F4401147
:103F0000DDF858806EE7DFF84090484619B0BDE80C
:103F1000F08F00BFAFF3008061436F63A787D23F8C
:103F2000B3C8608B288AC63FFB799F501344D33FA8
:103F30000000F07FAD9200000000F83FE892000022
:103F40009C920000A8920000AC9200004FF0FF3558
:103F500001260023CDE908562293239300211495CE
:103F60006164204600F07CFE0E2D8146206400F244
:103F7000FE80002E00F0FB80DDE9022316461F467E
:103F80000599CDE90E67002940F3E9839B4B01F0C9
:103F90000F020D1103EBC203D3E90012CDE90212A7
:103FA000EA0640F1A084964B3946D3E9082330460F
:103FB00003F066FA0327CDE9100105F00F057DB186
:103FC000DDE902018E4EEB0704D5D6E9002303F0AC
:103FD0002DF901376D1006F10806F4D1CDE9020183
:103FE000DDE90223DDE9100103F04AFACDE902011F
:103FF0000D9B43B1DDE902010022824B03F088FBF7
:10400000002840F00985384603F0A6F8DDE90223D0
:1040100003F00CF97C4B002202F052FF089B05468E
:10402000A1F15076002B00F01E84059B1593089B90
:104030001093DDE9020103F0A9FB109A6F4B00F128
:10404000300803EBC20353E90212CDE9121203F068
:1040500083F80B460246DDE90201CDE9025602F083
:104060002DFF099B5FFA88F806460F4609F1010506
:10407000002B00F06384DDE912230020634903F084
:10408000FFF9DDE9022302F019FF89F800803246CA
:104090003B46CDE9020103F059FB002840F00E85B4
:1040A00032463B460020574902F008FF02460B46C5
:1040B000DDE9020103F04AFB002840F00985109A6F
:1040C000012A50D04A44CDF848A0CDF840B0A046CF
:1040D000DDE902ABCDF8089091460EE032463B4652
:1040E0000020484902F0EAFE52465B4603F010FB0E
:1040F000002840F0E6844D452ED050465946002217
:10410000434B03F093F80022414B82468B463046E6
:10411000394603F08BF80F46064603F037FB04469A
:1041200003F01AF802460B463046394602F0C6FE46
:104130003034E4B205F8014B52465B4606460F4662
:1041400003F0E6FA0028C9D0159BDDF840B0DDF891
:1041500008904446059339E24446DDF848A0DDF86E
:1041600040B0DDF80890DDE90E23CDE90223179B6E
:10417000002BC0F2A980059A0E2A00F3A5801F4BE0
:1041800003EBC203D3E90023CDE90623239B002BD5
:10419000C0F2C182DDE90267DDE906233046394617
:1041A00003F06EF903F0F2FA804602F0D5FFDDE984
:1041B000062303F03BF802460B463046394602F030
:1041C0007DFE089E08F13005012E89F80050024658
:1041D0000B4609F101054CD000220D4B03F026F8E7
:1041E0000022002306460F4603F088FA002840F01C
:1041F000ED81CDF808B0DDE906AB18E0E8920000EB
:10420000C09200000000F03F00001C400000E03FB2
:10421000000024400022C64B03F008F800220023CF
:1042200006460F4603F06AFA002840F041835246E2
:104230005B463046394603F023F903F0A7FA80467F
:1042400002F08AFF52465B4602F0F0FF02460B4640
:104250003046394602F032FE08F1300605F8016BAF
:10426000089FA5EB0906B74202460B46D2D1DDF8FE
:1042700008B01046194602F023FEDDE90623064683
:104280000F4603F063FA60B9DDE90623304639468C
:1042900003F034FA002800F0998118F0010F00F0C3
:1042A000958115F8018C05E0994500F03A831D468B
:1042B00013F8018CB8F1390F05F1FF33F4D008F190
:1042C000010883F8008081E1099A002A3DD0229AF2
:1042D000012A40F31282089B03F1FF380B9B4345F0
:1042E000C0F2E982A3EB0808089B002BC0F20E8302
:1042F000069A9A440A921A4406920121204600F036
:1043000071FD064626E001230D93ABE500230C93D7
:10431000DDE90532D21A5B4206920B93B2E5C5F194
:10432000010306934FF0000AA4E5DDF81490484617
:1043300002F012FF32463B4603F0E0F900287FF41A
:104340007DAD09F1FF33059378E5069BDDF82C8000
:10435000099E0A930A9900290B460CDDBAF1000F59
:1043600009DD5145A8BF5346069AAAEB030AD21AA3
:104370000692CA1A0A920B9B7BB1099A002A00F096
:104380009082A3EB0807B8F1000F40F09A815946DC
:104390003A46204600F0D6FD83460121204600F033
:1043A00021FD0C9A0746002A40F02581229B012B13
:1043B00040F36B810120504410F01F0000F0198180
:1043C000C0F12003042B40F3B483C0F11C00069B12
:1043D0008244034406930A9B03440A93069B002BE2
:1043E00005DD59461A46204600F0FCFD8346BAF129
:1043F000000F05DD39465246204600F0F3FD074622
:104400000D9B002B77D1089B002B40F30582099B65
:10441000002B00F089800A9B002B00F367810C9B26
:10442000002B40F0CA81B246C846029B089A03F0AE
:1044300001030A9309F1FF331A440692CDF82C9038
:1044400039465846FFF7DAFB31468146099058460F
:1044500000F022FE524602903946204600F038FE17
:10446000C268054609F130090146002A40F0CF81B3
:10447000584600F011FE29460890204600F016FC30
:10448000089A32B9229B23B90A9B002B00F024839F
:10449000229A029B002BC0F2198205D1229B1BB9E4
:1044A0000A9B002B00F01282002A08F1010500F39C
:1044B0002182069B88F80090434500F02C825946E3
:1044C00000230A22204600F0FBFB56458346314676
:1044D0004FF000034FF00A02204600F0928100F0F6
:1044E000EFFB5146064600230A22204600F0E8FB77
:1044F000A8468246A4E73946584600F0CDFD00287C
:1045000081DA059D594600230A222046013D059582
:1045100000F0D6FB099B8346002B40F0EE82149BF3
:10452000002B40F3F98208934D46DDF8208008E027
:1045300000002440594600230A22204600F0C0FB18
:10454000834639465846FFF759FB303005F8010BD2
:10455000A5EB09029045EDDC002203460292594684
:1045600001222046089300F03DFD3946834600F0C5
:1045700093FD002815F8012C089B11DC05D1DB0701
:104580000ED402E015F8022C1D46302A05F1FF3347
:10459000F8D00BE0994500F04C811D4613F8012C32
:1045A000392A05F1FF33F5D001321A703946204619
:1045B00000F07CFB56B1029921B1B14202D02046F5
:1045C00000F074FB3146204600F070FB594620464F
:1045D00000F06CFB0022059B2A70249A01331360C3
:1045E000269B002B3FF4D5AB48461D6019B0BDE8B3
:1045F000F08F1C20EBE60146204600F0A3FC229B36
:104600000746012B40F3D48000230C933B6907EB52
:104610008303186900F096FBC0F12000CBE60D90F3
:1046200020E4012637E4C3F12006029B03FA06F0DA
:10463000FFF7D1BB00230993059B239A13441493DE
:104640000133012B1F46B8BF012708930021172F04
:10465000089D61647FF785AC012204235B0003F1B0
:104660001400B842114602F10102F7D9616478E4FE
:1046700000230993239B002B40F3E28014930893BB
:104680001F46E3E701230993F4E7029B002B7FF425
:1046900091AEDDE90212C2F31303002B40F09981C1
:1046A00022F000431B0D1B052BB1069B0AF1010AEA
:1046B0000133069301230C9A0C93002A3FF47AAE3F
:1046C000A4E742463146204600F03CFC5A460146EB
:1046D0000646204600F090FB80465946204600F0F2
:1046E000E5FAC346002F3FF458AE50E631461A466D
:1046F000204600F077FC064691E60A9A002A00F070
:104700005D81069A03F233430A921A449A44069250
:10471000DDF82C80F1E5089B002B3FF73BAD40F026
:10472000F881DDE906010022B54B02F07FFDDDE9ED
:10473000022303F001F8089F3E46002874D131237C
:10474000059A89F800300132059209F101053946D0
:10475000204600F0ABFA002E7FF434AF36E700F0CD
:104760004881DDE90E01059B5D42A64B05F00F0275
:1047700003EBC203D3E9002302F058FD2D11CDE96C
:10478000020100F0CE81002302279F4EEA0705D5E3
:10479000D6E9002302F04AFD01231F446D1006F103
:1047A0000806F3D1002B3FF423ACCDE902011FE44E
:1047B000029B002B3FF46DAF26E77168204600F0A6
:1047C0004FFA0546336906F10C0102339A000C30AA
:1047D000FEF74CFC29460122204600F003FC8246ED
:1047E00022E6002520466564294600F039FA4FF09C
:1047F000FF33149308930123814623952064099382
:10480000B5E400F05DFAA8460646824618E6204662
:1048100000F04CFA01223CE6229B022B7FF7F7AD19
:10482000089B002B00F0D780239B4D46DB4305936C
:104830008DE73123059A89F8003001320592B5E6FB
:10484000012523950895FFF789BB384602F084FCC3
:10485000DDE9022302F0EAFC00226C4B02F030FB9F
:104860000546A1F15076DDE902010022644B02F019
:1048700025FB2A463346CDE9020102F067FF0746D1
:10488000002858D1DDE902012A4606F1004302F072
:104890003FFF00283FF467AC3E46C5E7012309937C
:1048A000CAE659460B9A204600F04CFB834674E555
:1048B000DDF808B08AE60B9B0C9AA8EB03031A44B8
:1048C000CDF82C800C924FF000080DE5002A4B46E5
:1048D00008F10105DDF82C9000F3C580029688F8F8
:1048E0000030564662E6DDE90E230227CDE91023AB
:1048F000FFF765BB4B46392BDDF82C9000F0C580E7
:104900000133029688F8003056464FE6069B089A17
:104910009B1A0A93F1E44B460296DDF82C9056461A
:104920001DE6302389F80030059B15F8018C013312
:1049300005934B46C3E400273E4600E7DDE912231A
:10494000DDE9020102F072FC109BCDE90201012BAE
:1049500089F8008021D0109BCDF840A04B449A46A6
:1049600000222B4B3046394602F060FC0F460646CB
:1049700002F00CFF804602F0EFFB02460B46304689
:10498000394602F09BFA08F1300805F8018B5545CD
:1049900006460F46E4D1DDF840A00022DDE9020121
:1049A0001C4B02F08DFA32463B4602F0B1FE002865
:1049B00071D0159B059315F8018C7BE4169B069A24
:1049C000C3F136030A921A449A440692DDF82C8009
:1049D00093E400236FE639460522204600F070F983
:1049E00001460746584600F057FB00283FF7A7AEA0
:1049F0001AE7DDE90E230227CDE90223FFF7F8BA13
:104A000000001440E8920000C092000000001C402A
:104A1000000024400000E03F089B002B3FF415AF4E
:104A2000149B002B7FF79FABDDE902010022454B71
:104A300002F0FCFB05460E46781CCDE9025602F05A
:104A40008BFB2A46334602F0F1FB00223E4B02F07C
:104A500037FA059A149B013A05461592A1F1507652
:104A60001093FFF7E6BA594601222046029300F060
:104A7000B9FA3946834600F00FFB0028029B36DD69
:104A8000392B02D0099B313328E73922029688F866
:104A90000020564684E5DDE9022300202B4902F080
:104AA0000DFA32463B4602F051FE10B9FFF75BBBF0
:104AB000154615F8013C6A1E302BF9D0159B05935D
:104AC00084E54346A0461C46DDF840B0DDF808907A
:104AD000159B0593FFF7EEBB4B46392BDDF82C9069
:104AE00008F10105D1D0029A002ACBDCF6E67FF46A
:104AF000F5AEDA077FF5F2AEC2E7314600230A22AF
:104B0000204600F0DDF8149B0646002B0CDD0893D0
:104B100081E400273E4687E6229B022B0EDC149B95
:104B200001E50227FFF764BA229B022B06DC149BE7
:104B3000EDE73FF453ACC0F13C0048E4149B08930C
:104B40006EE600BF0000244000001C400000E03F73
:104B50000B7830B4722B32D0772B2BD0612B05D051
:104B6000044616230020236030BC70474FF40275C2
:104B700001244FF4847011F8013F8BB1622B16D0E1
:104B8000782B11D02B2BF6D111F8013F20F01C000F
:104B900024F0030440F0100044F00204002BEDD197
:104BA0002C43146030BC704744F40064E3E744F4E1
:104BB0008034E0E74FF4C06501240820DBE70025DE
:104BC00004202C46D7E700BF38B50023064C054625
:104BD00008462360FBF707FF431C00D038BD23685D
:104BE000002BFBD02B6038BD800E0010044A054B13
:104BF0001268506B002808BF1846F030704700BF9D
:104C0000DC01001008060010F8B50E460025084C1F
:104C1000114607461A4630462560FBF700FF431C45
:104C200000D0F8BD2368002BFBD03B60F8BD00BF6F
:104C3000800E001082B049B15AB16BB113780B608D
:104C40001278101C18BF012002B0704701A9002A79
:104C5000F3D1104602B070476FF00100F4E700BFD7
:104C6000C36C70B505460C464BB153F8240080B1B7
:104C7000026843F824200023C0E9033370BD2122D9
:104C8000042102F033FF0346E8640028EDD1002040
:104C900070BD012101FA04F6721D2846920002F04F
:104CA00025FF0028F3D0C0E90146E4E731B1C36C29
:104CB0004A6853F82200086043F82210704700BF8A
:104CC000F0B54FF0000C0C4605460E6983B001F1BB
:104CD000140738680CF1010C81B202FB0133010C9E
:104CE000180C02FB01019BB203EB0143664547F838
:104CF000043B4FEA1143ECDC3BB1A268B24207DD52
:104D000004EB8602013653612661204603B0F0BDF4
:104D10006168284601310193FFF7A2FF0746226927
:104D200004F10C01023292000C30FEF79FF9EA6C9C
:104D30006168019B52F82100206042F821403C4606
:104D4000DEE700BF020C12040346C2B903041020C0
:104D500013F07F4F04BF1B02083013F0704F04BFE5
:104D60001B01043013F0404F04BF9B000230002BA6
:104D700004DB5B0001D50130704720207047002024
:104D8000E6E700BF0368014613F0070207D0DA0721
:104D90001FD498071FD55B080B600120704798B29D
:104DA000A0B1104613F0FF0F04BF1B0A08301A070A
:104DB00004BF1B0904309A0704BF9B080230DA07BE
:104DC00002D45B080BD001300B6070471B0C102025
:104DD000E8E7002070479B080B6002207047202006
:104DE000704700BF10B50C460121FFF739FF0122C3
:104DF000C0E9042410BD00BF2DE9F04F0D6914690E
:104E000085B0A5420E46914604DA2A464E4625460E
:104E100089461446B36805EB040871684345B8BF7A
:104E20000131FFF71DFF00F1140B0BEB880AD3458E
:104E3000019005D25B46002243F8042B9A45FBD82B
:104E400009F1140303EB840406F11402A34202EBFC
:104E5000850E62D2A4EB0904153C24F0030423441C
:104E6000CDE902A809F1100990469A4605E0090C1F
:104E70002CD1CA450BF1040B4DD059F8041F1FFA71
:104E800081FCBCF1000FF2D047465E46002100E0F5
:104E90000646304657F8042B346893B2A5B2120C7C
:104EA0000CFB0353240C0CFB02420B4402EB13419A
:104EB0009BB243EA0143BE454FEA114140F8043B2F
:104EC000E6D87160D9F80010090CD2D0DBF80030B8
:104ED00040461E465D46002200E025462C460788D7
:104EE000360C01FB07669BB2324443EA024344F8A6
:104EF000043B50F8043B6E681B0CB7B201FB037314
:104F0000864503EB12434FEA1342E6D8CA456B606D
:104F10000BF1040BB1D1DDE902A8B8F1000F0BDDF4
:104F20005AF8043CAAF1040A1BB105E05AF8043D02
:104F300013B9B8F10108F9D10198C0F8108005B093
:104F4000BDE8F08F12F003032DE9F0411446074647
:104F50002ED10D46A4101CD0BE6C96B3E3074FF0C3
:104F6000000806D4641014D03068A8B10646E307E0
:104F7000F8D5324629463846FFF73EFFB5B16A6894
:104F8000FB6C641053F82210296043F82250054648
:104F9000EAD12846BDE8F081324631463846FFF76F
:104FA0002BFF3060C0F800800646E0E70546D9E7F1
:104FB0000B4A013B52F823200023FFF781FE0546F0
:104FC000C8E701213846FFF74BFE40F2712101226C
:104FD0000023C0E904210646B8640360BEE700BFB1
:104FE000B09300000B692DE9F047541104EB03085E
:104FF0008B6808F101059D420E46914607464968B7
:1050000004DD5B009D4201F10101FADC3846FFF747
:1050100027FE002C00F114033CDD002203EB840189
:1050200043F8042B8B42FBD1346906F1140319F0C9
:105030001F0903EB840C25D0C9F120024FF0000AB0
:1050400000E071468E461C6804FA09F444EA0A043A
:105050004EF8044B53F8044B634524FA02FAF0D39C
:10506000C1F804A0BAF1000F01D008F10205FB6CF1
:105070007268013D53F822100561316043F82260E7
:10508000BDE8F087043953F8042B9C4541F8042F00
:10509000F9D8ECE71946C7E730B40B690546006953
:1050A000C01A0FD19B001435143119442B4401E070
:1050B0009D4207D253F8044D51F8042D9442F7D085
:1050C00002D3012030BC70474FF0FF30FAE700BF39
:1050D0002DE9F84F0C6913698946E41A002C9246B1
:1050E00001F1140702F1140B14D19B00FA185B4470
:1050F00001E0BA4262D952F8045D53F8041D8D42B2
:10510000F7D009D23A464B465F46D14693469A4677
:10511000012401E0F6DB0024D9F80410FFF7A0FD1C
:105120005E464FF00008D9F810C0DAF810303D465E
:10513000C4600BEB830E07EB8C0700F1140455F8E9
:10514000049B56F8042B1FFA89F343441FFA82F894
:10515000120CA3EB0803C2EB194202EB23429BB2F1
:1051600043EA0243B64544F8043B4FEA2248E6D8F6
:10517000AF4217D9A6462E4656F8043B99B2414491
:105180000A1402EB134289B241EA0243B7424EF8D5
:10519000043B4FEA2248EFD8ED432F4427F00307A2
:1051A00004373C44043C2BB954F8043D0CF1FF3C5B
:1051B000002BF9D0C0F810C0BDE8F88F0021FFF730
:1051C0004FFD01220023C0E90423BDE8F88F00BF92
:1051D0002DE9F0411C4682B00121DDE908659046C9
:1051E000FFF73EFD2346C4F30A540746C3F31303F7
:1051F0000CB143F48013B8F1000201931ED002A851
:1052000040F8082DFFF7BEFD70BBDDE900237A6191
:10521000002B0CBF01210221BB613961CCB907EB26
:105220008103A0F2324030601869FFF78BFDC0EBBC
:1052300041102860384602B0BDE8F08101A8FFF7B0
:10524000A1FD0122019B11462030C7E90423002C57
:10525000E5D0A4F233430344C0F135003360286045
:10526000384602B0BDE8F081019BC0F120020099F0
:1052700003FA02F20A43C34001937A61C8E700BF10
:10528000F8B50E460025084C114607461A4630462A
:105290002560FBF767FB431C00D0F8BD2368002B9B
:1052A000FBD03B60F8BD00BF800E0010F8B517467C
:1052B0000022DFF858C021F00043634504460D4644
:1052C0003A601EDC844653EA0C0C1AD0B3F5801FFA
:1052D0000E4609DA00220C4B01F0A8FF6FF03502F0
:1052E00004460E4621F0004326F0FF461B1526F427
:1052F000E006A3F2FE3346F07F55134445F4001553
:105300003B6020462946F8BD00005043FFFFEF7F79
:1053100040EA01039B0770B42AD1032A28D90C461E
:105320000346214654F8046BA6F1013525EA06052B
:1053300015F0803F06D1043A032A43F8046B214656
:10534000EFD89AB10C78013A1C7001333CB16AB1C4
:1053500011F8014F013A03F8014B002CF7D12AB1A3
:1053600000211A4403F8011B9342FBD170BC704723
:105370000346E6E72DE9F04FD9B00C460A91934673
:105380000D930790FFF732FC036818461D93FEF754
:1053900077FAA3891C901F0603D52369002B00F020
:1053A000568700235E46189314931793CDE92D3347
:1053B0001B93CDE91F3321931E930993CDE9193334
:1053C0002FAB2C9399463378002B00F09081252B3E
:1053D000344602D11AE0252B03D014F8013F002BEC
:1053E000F9D1A51B75B1DDE92D3201332A44072B14
:1053F000C9E90065CDE92D327CDC09F10809099B7A
:105400002B4409932378002B00F0718100234FF087
:10541000FF3A98462B2567780B938DF8933004F16B
:10542000010B0BF1010BA7F120035A2B00F2D083E3
:10543000DFE813F08C03CE03CE038703CE03CE0345
:10544000CE036803CE03CE035B035603CE035103A2
:105450003703CE038601B500B500B500B500B50031
:10546000B500B500B500B500CE03CE03CE03CE0324
:10547000CE03CE03CE03B002CE038B012103B002D4
:10548000B002B002CE03CE03CE03CE031C03CE0384
:10549000CE038400CE03CE03CE03F502CE03AD03CC
:1054A000CE03CE039703CE03CE03CE03CE03CE03AB
:1054B000CE03CE03CE03B002CE038B01C400B002F4
:1054C000B002B002C103C4005B00CE036901CE0389
:1054D0004201860076015B00CE03F5025D001301F8
:1054E000CE03CE032201CE035D0048F020089BF8D6
:1054F000007096E72CAA0A99079801F049FC80B938
:105500000DF1BC097BE72CAA5946504601F040FC3E
:10551000002801F0C380109B1BB11099079802F07E
:10552000E3FA0A9B9B8913F0400F099B18BF4FF0C9
:10553000FF330993099859B0BDE8F08F48F010087F
:1055400018F0200F00F06E850D9C073424F007033F
:1055500003F108020D92D3E90045002228F480638C
:105560000021BAF1FF3F8DF8931058A9089100F07F
:105570006F8454EA050123F0800845D1BAF1000F89
:1055800040F09287002A40F01B8513F001030C9332
:1055900000F07A85302358AE06F8013D49E3002239
:1055A000A7F130031BF8017B02EB820203EB4202FE
:1055B000A7F13003092BF5D90B9234E743469E0639
:1055C00040F15E820D9C073424F00704D4E9000109
:1055D00004F108020D4604460D92002871F1000204
:1055E00005DA2D22644265EB45058DF8932058AA13
:1055F000BAF1FF3F089200F0F48654EA05014FF03B
:10560000010223F08008B9D0012A00F02584022A83
:1056100000F0FC8258A900E03146E20842EA4572F7
:10562000E80804F0070305461446303354EA05023F
:1056300001F8013C01F1FF36EED118F0010F00F046
:10564000F582302B00F0F2823023089A0239521A88
:1056500006F8013C0C920E46EBE243469E0640F1F2
:105660009B820D9C073424F0070202F10801D2E965
:1056700000450D91012273E7A44B18F0200F1B93F6
:1056800000F075820D9C073424F0070303F1080233
:105690000D92D3E9004518F0010F09D054EA050333
:1056A00006D030238DF8957048F002088DF89430BC
:1056B000022228F4806353E70D9A18F0200F52F865
:1056C000043B0D9240F0078518F0100F40F0408722
:1056D00018F0400F40F0F18718F4007F00F0388791
:1056E0005E46099A1A703378002B7FF470AE2E9BB9
:1056F000002B3FF416AF0A9C07982CAA214601F014
:1057000047FBA3890FE79BF800706C2F03BF9BF842
:10571000017048F020080BF1010B48F0100880E6FA
:1057200047F630020D99ADF894200A1D0D92774A84
:105730000C681B9248F002030025022278270FE72D
:1057400048F080089BF800706BE6002301200D9C58
:105750001A4621688DF8933010939A461393CDE939
:105760001533231D08900C908DF8FC100D933FAE5F
:1057700018F002030E9302D0089B0233089318F02E
:1057800084032E9C11933FD10B9B08995D1A002D29
:105790003ADD102D2D9A29DD49462046B1461023C9
:1057A0002297079C0A9E04E0103D102D01F108018C
:1057B00018DD0132564F1030072ACDE92D20C1E9FE
:1057C0000073F1DD2CAA31462046129301F0E0FA75
:1057D00000287FF4A0AEDDE92D20103D102D2FA96B
:1057E000129BE6DC4E4604468946229F0132484B16
:1057F0002C44072ACDE92D24C9E9003500F367853B
:105800009DF8932009F1080972B101202D9A0444F2
:1058100002440DF19301072ACDE92D24C9E90010B6
:1058200000F3268309F108090E9B6BB102212D9B21
:105830000C44013325AA072BCDE92D34C9E90021F9
:1058400000F3228309F10809119B802B00F0598293
:105850000C9BAAEB0305002D36DD102D2D9A40F38D
:105860005B862C4B49462046B1464FF0100A0A9EF3
:105870001C4604E0103D102D01F1080115DD013238
:105880001030072ACDE92D20C1E9004AF2DD2CAA0B
:105890003146079801F07CFA00287FF43CAEDDE940
:1058A0002D20103D102D2FA9E9DC4E4623468946B8
:1058B000044601322C44072ACDE92D24C9E90035DC
:1058C00000F3268309F1080918F4807F40F0BE81B7
:1058D0002D9B0C9A01331444072B2E94C9E90062C6
:1058E0002D9300F3098309F1080918F0040F3AD049
:1058F0000B9B089A9D1A002D35DD102D2D9B28DD60
:105900001026079FDDF828800BE000BFCC93000035
:10591000FC9300000C940000103D102D09F10809C3
:1059200017DD0133B44A1034072BCDE92D34C9E912
:105930000026F1DD2CAA4146384601F029FA00285C
:105940007FF4E9ADDDE92D34103D102D0DF1BC09DA
:10595000E7DC0133A84A2C44072BCDE92D34C9E9F3
:10596000002500F38783099B0B9A08998A42ACBFF4
:105970009B185B180993002C40F0FF8100232D93A6
:10598000109B1BB11099079802F0AEF80DF1BC09FD
:105990005E46A8E60D9C073424F0070CDCE90023E2
:1059A000179323F0004318921546104608931946A2
:1059B0000CF108044FF0FF32904B0D9401F0D0FE33
:1059C000002840F09083284608994FF0FF328B4B17
:1059D00001F0A8FE002840F08683DDE918021A9B3A
:1059E000179901F095FE002840F06C879DF89320F0
:1059F00003200021824E834B089010918A46472F46
:105A0000D8BF1E46CDE9151128F080080C901391DF
:105A1000002A3FF4ADAE089B01330893A8E60025A9
:105A20000D9B8DF893501E681C1D002E00F03F84C6
:105A3000BAF1FF3F00F02B86524629463046FDF76B
:105A4000CFFA1090002800F07087AA46109B9B1B8D
:105A5000CDE90C3423EAE3730893CDF840A0CDF8E8
:105A60004CA0CDE915AA9DF89320D1E748F008088D
:105A70009BF80070D5E448F010039E063FF5A2ADF8
:105A80000D99DD0601F1040200F10C835C060D990D
:105A900040F10583B1F900400D92E51720462946F3
:105AA0009BE59BF800700BF101022A2F01F0278182
:105AB000A7F13003092B93464FF0000A3FF6B3AC31
:105AC0001BF8017B0AEB8A0A03EB4A0AA7F13003B1
:105AD000092BF5D9A7E49BF8007048F00408A0E46E
:105AE0008DF893509BF800709BE40D9B9BF8007021
:105AF0001A680433002A0B920D93BFF692AC5342FE
:105B00000B93EAE7079F3846FFF770F8436818469B
:105B10001E93FDF7B5FE219004463846FFF766F860
:105B200083682093002C3FF4E2AC9BF80070002BBC
:105B30003FF477AC1B78002B3FF473AC48F48068DB
:105B40006FE448F001089BF800706AE49DF8933018
:105B50009BF80070002B7FF464AC20238DF8933009
:105B60005FE4294B18F0200F1B937FF48BAD0D9A47
:105B700018F0100F02F1040340F08C8218F0400F6F
:105B80000D9A00F08382148800250D9383E548F078
:105B900010039E063FF565AD0D9ADD0602F1040186
:105BA00000F193825C060D9A40F18C8214880025E6
:105BB00001220D91D4E49BF80070682F03BF9BF87D
:105BC000017048F400780BF1010B48F0400828E41C
:105BD000002F3FF48CAD002301211A4608918DF867
:105BE000FC708DF8933010939A461393CDE91533DA
:105BF0000C913FAEBCE500BFFC930000FFFFEF7FC0
:105C0000C0930000BC930000E09300001B9858AEC6
:105C1000230943EA0573290904F00F020D461C46C7
:105C2000835C06F8013D54EA0503F1D1089B9B1BF8
:105C30000C93002310931393CDE915330C9B9DF81F
:105C400093205345B8BF53460893E1E6652F40F3D0
:105C50009E80DDE918021A9B179901F04FFD00287C
:105C600000F0668101212D9BAF4A0B440C44072BA9
:105C70002E942D93C9E9002100F3428409F108090B
:105C8000269B149A2E9C934280F2EF812D9B1C9AA6
:105C900001331D991444072BC9E90012CDE92D34B5
:105CA00000F3F98209F10809149B5D1E002D7FF7AE
:105CB0001CAE102D2D9A40F3C6879C4B102619461A
