:10000000E07F0010D9160000091700000B17000050
:100010000D1700000F17000011170000000000006E
:1000200000000000000000000000000013170000A6
:100030001517000000000000171700001917000036
:100040001B1700001B1700001B1700001B170000E8
:100050001B1700001B1700001B1700001B170000D8
:100060001B1700001B1700001B1700001B170000C8
:100070001B1700001B1700001B1700001B170000B8
:100080001B1700001B1700001B1700001B170000A8
:100090001B1700001B1700001B1700001B17000098
:1000A0001B1700001B1700001B1700001B17000088
:1000B0001B1700001B1700001B1700001B17000078
:1000C0001B1700001B1700001B170000000000009A
:1000D0000000000000000000000000000000000020
:1000E0000000000000000000000000000000000010
:1000F0000000000000000000000000000000000000
:1001000000000000000000000000000000000000EF
:1002F000000000000000000000000000FFFFFFFF02
:1003000010B5054C237833B9044B13B10448AFF34F
:1003100000800123237010BD900B0010000000002E
:10032000A8BB000008B5034B1BB103490348AFF35A
:10033000008008BD00000000940B0010A8BB000066
:10034000154B002B08BF134B9D46A3F5803A0021A7
:100350008B460F461348144A121A03F05DFA0F4BEE
:10036000002B00D098470E4B002B00D09847002060
:10037000002104000D000D48002802D00C4800F0B8
:10038000F2FA03F077F82000290000F093FD00F066
:10039000E7FA00BF00000800E07F00100000000046
:1003A000A50E0000900B00104C0F00106709000014
:1003B00000000000036810B50133044604D12C226C
:1003C0000549064801F0E2FB63691A6863681A424E
:1003D00014BF0120002010BDA0AC0000DFAC000065
:1003E00038B50368044601330D4604D1242205497B
:1003F000054801F0CBFB636815B1E268136038BDB6
:100400002269FBE7A0AC0000DFAC000010B5044699
:10041000074B303003F1200240F8303C803302605B
:10042000436002F03DF9204601F0C2FE204610BDB7
:10043000B4B20000A0F13000E8E7A0F13400E5E735
:100440002DE9F34100262E4D2E4FDFF8D8802B6882
:100450001F2B24DC3846002E47D1FFF7ABFFD0B16D
:1004600001212948FFF7BCFF2848FFF7A3FF284CCC
:1004700001462848FFF7B4FF236824485B00236047
:10048000FFF798FF0126236800F001000343236073
:100490002B6801332B60404602F056F8D7E7002462
:1004A0001B4B1D4819681D4D64EA010261EAE173A6
:1004B00002AC64E902231A4902F004F9204602F072
:1004C00011F803F009FA4FF07C5403F00DFA43429F
:1004D00003F00F0300F00F0158BF5942284601F006
:1004E000B1FA204602F030F8EFE7FFF763FF044669
:1004F0000028D0D121460448FFF772FF2646CAE7FC
:10050000100C0010F80B00102C0C0010140C001034
:10051000A80C0010440C00108C0C0010AC0B001048
:10052000F7AC0000CDCC4C3D10B50446FFF76EFF94
:10053000204600F097FB204610BDA0F13000F3E705
:10054000A0F13400F0E700004FF41653F0B52A4C48
:100550008FB00093294A00232949204601F08EFAE2
:1005600020461824274D28492A4600F0F7F9274B42
:1005700022461846002103F04FF9254901F0A5F95C
:10058000244B22461846002103F046F9224901F087
:100590009CF9224B224E22461846002103F03CF9DA
:1005A000314601F0ACF91F4B1F4F2246184600217F
:1005B00003F032F9394601F0A2F94FF0FF331B4C3A
:1005C000CDE90B33CDE90933CDE90733CDE9053367
:1005D000CDE90333CDE90133154B3A46009331465B
:1005E000023B204601F0AEF92A46204611490FB0E1
:1005F000BDE8F04000F0B2B95C0C001003C0092067
:1006000002C00920C80000100D040000F80B001003
:100610003EC00920140C00103FC009202C0C001013
:1006200032C00920440C001034C00920AC0B00106B
:1006300037C0092009190000431C10B5044604D135
:1006400015220649064801F0A1FA2046002100F0D3
:1006500039FC012004F01F04A04010BD06AD0000CD
:10066000E4AC000038B505464B1C0C4629600FD0A1
:100670000846FFF7E1FF24F01F0404F11803EB60C4
:1006800004F11C032B6104F1140368606B61AC601E
:1006900038BD006800F03CBC38B50368044601333F
:1006A0000D4604D12C220A490A4801F06FFA15B10F
:1006B000012D07D038BDA2686168136823EA0103E1
:1006C000136038BDA268616813680B43F8E700BF88
:1006D00006AD0000DFAC000038B503680446013306
:1006E0000D4604D124220549054801F04FFA6368FC
:1006F00015B1E268136038BD2269FBE76FAD0000F9
:10070000DFAC000010B586B001F05EFA144968460F
:1007100001F0F5F8042401216846FFF7DDFF96207B
:1007200001F01EFF00216846FFF7D6FF962001F07A
:1007300017FF013CEFD1042401216846FFF7CCFFED
:100740004FF4C87001F00CFF00216846FFF7C4FFAA
:100750004FF4C87001F004FF013CEDD1DAE700BFAF
:1007600032C0092070B50D460446A0B001F02CFA45
:100770002B4622468021684605F0CCF9051E03DC95
:1007800001F038FA20B070BD094B1B6823B9094A43
:1007900009490A4800F0EAFE0024084E1DF804103A
:1007A0003046013400F046FEA542F7D1E8E700BF2D
:1007B000C80C001003C0092002C009201C0F001043
:1007C0000FB407B504A951F8040B0191FFF7CAFF54
:1007D00003B05DF804EB04B0704700207047036875
:1007E00001221B69002118470022036811461B697A
:1007F000184703681B69184703689B691847036813
:100800009B6A184700290CBF6FF018000020704742
:10081000012070471120704770476FF01C0070472F
:100820006FF0150070470120704700207047704737
:10083000F8B515460C46064E8F18BC4205D014F884
:10084000011B304600F0F6FDF7E72846F8BD00BF73
:100850001C0F001038B58DB215F0010405D0084802
:1008600000F0BCFD041C18BF0124EB0605D50448AC
:1008700000F0BAFD08B144F01004204638BD00BFB6
:100880001C0F001010B5044602F0A0FE204610BD5B
:1008900010B50C462AB1044800F086FD20700120F6
:1008A00010BD104610BD00BF1C0F001038B51D460E
:1008B000074B04460360074B1B6833B9064800F03A
:1008C00055FE2946044800F01FFC204638BD00BFF5
:1008D00068AE0000C80C00101C0F0010002070470C
:1008E0000020704708B5012000F03AF80C4A10B516
:1008F00013681844EFF30881884205D30C22094B92
:100900004FF0FF301A6010BD07490C6824B1074949
:10091000096821448842F1D21060184610BD00BF1A
:10092000CC010010480F0010BC0C0010C00C0010CF
:10093000094C08B523680546986802F0DDF823687D
:10094000D86802F0D9F801F010FE08B101F00FFEEE
:100950000DB1FFF7D7FEFEE7DC0100100120704764
:1009600008B5FFF7E5FF01207047002103F070B8DC
:100970007047704708B5FFF7FBFF08BD08B5FFF7E4
:10098000F8FF08BD10B50378044603F00303012BFC
:100990000CD02BB140F24A520549064801F0F6F856
:1009A0002378012043F00203237010BD002010BD06
:1009B000CDAE000024AF000010B50378044603F06C
:1009C0000303022B05D040F252520549054801F0BD
:1009D000DDF8237823F0030343F00103237010BDF7
:1009E000CDAE00004AAF00003F2870B504462FDCB2
:1009F000184D55F820305A1C13D1022811DCFFF78E
:100A00006FFF034658B92046FFF768FF034630B929
:100A1000114E3378BFF35B8FDB0704D50F4B45F8DE
:100A20002430184670BD3046FFF7ACFF0028F5D0E3
:100A30004FF416530A4A0B490848FFF737FF304670
:100A4000FFF7BAFF084A09490448FFF787FFE5E7BF
:100A50000023E6E7CC000010AC0C0010B80C00102E
:100A600003C0092002C00920C80000102F080000A0
:100A700038B505460024FFF7B7FF0B4B43F8254078
:100A800030B901F0EBFE092303604FF0FF3038BDB1
:100A900003685B699847051E04DA01F0DFFE6D42CA
:100AA0000560F2E7204638BDCC000010FFF7E0BF3C
:100AB00038B50C461546FFF797FF38B901F0CEFE62
:100AC000092303604FF0FF34204638BD03682146F8
:100AD000DB682A469847041EF6DA01F0BFFE64423E
:100AE0000460EFE708B5131E06DA01F0B7FE16231F
:100AF00003604FF0FF3008BD04D0FFF7D9FF40EA94
:100B0000E07008BD184608BD38B50C461546FFF71D
:100B10006BFF38B901F0A2FE092303604FF0FF34E8
:100B2000204638BD036821469B682A469847041E24
:100B3000F6DA01F093FE64420460EFE7002A08B59C
:100B400003DBBDE80840FFF7DFBF01F087FE162397
:100B500003604FF0FF3008BD10B5FFF745FF0446B6
:100B600028B901F07BFE09230360204610BD03680D
:100B7000DB699847041EF8DA01F070FE64420460F5
:100B80000024F2E71FB504220C4640230DEB0201BE
:100B900001900DF109008DF8083002F065FD214645
:100BA00002A802F0EFF8044630B10198FFF7D4FF35
:100BB00010B12046FFF7D9FE204604B010BDFFF764
:100BC000CBBF38B50C461546FFF70EFF38B901F01C
:100BD00045FE092303604FF0FF34204638BD03680B
:100BE00021461B692A469847041EF6DA01F036FEB4
:100BF00064420460EFE7FFF7E4BF38B50D46FFF746
:100C0000F3FE044630B901F029FE092303604FF0DA
:100C1000FF3038BD0368DB699847002814BF4FF4E4
:100C200000534FF400436B60236820469B6A98474B
:100C30002861002038BDFFF7E0BF000037B505464A
:100C400002F0BCFC044630B9009003462A46034932
:100C5000034801F0A7FB204603B030BDB0AE000052
:100C60001F01018002F0B2BC034653F8042B10B5FB
:100C7000044602B9036022689A4204D05D22034907
:100C8000034800F083FF206810BD00BFEDAD0000F9
:100C90004CAE000010B504460948FFF7E5FF0023FD
:100CA0001946084A52F82300A04208BF42F8231010
:100CB0000133402BF6D10248FFF7D6FF10BD00BF2D
:100CC000B00C0010CC00001010B503240E48FFF744
:100CD000CBFF0E4B53F824206AB10134402CF9D1DC
:100CE00001F0BCFD182303600748FFF7BDFF4FF07C
:100CF000FF34204610BD4FF0FF32034843F8242054
:100D0000FFF7B2FFF5E700BFB00C0010CC000010F9
:100D100010B50446FFF7D8FF0028A4BF014B43F8E5
:100D2000204010BDCC00001070B506460C46FFF701
:100D3000EFFF054690B12146FFF724FF044630B986
:100D4000074B53F82520964203D143F8250020464F
:100D500070BD01F083FD09230360F8E70446F6E760
:100D6000CC0000100EB42DE9F04185B00546FFF728
:100D7000ABFF041E13DB0023294602A8019300F0F9
:100D80005BFF02A800F0AAFF1B4D064668B901F000
:100D900065FD1323036045F824604FF0FF342046BF
:100DA00005B0BDE8F04103B0704702A800F084FF31
:100DB000074602A837B100F088FF0190019B45F873
:100DC0002430ECE700F06FFF06460028DFD0036810
:100DD00002A8D3F8088000F05BFF0B9B024601A934
:100DE0003046C04706460028E8D001F037FD76427D
:100DF000066045F82470D0E7CC00001073B50E46AD
:100E00001849054602F030FF044620B9FFF7ECFD13
:100E1000204602B070BD1449284602F025FF20B9D3
:100E20000120FFF7E1FD0124F2E71049284602F016
:100E30001BFF20B90220FFF7D7FD0224E8E72B783B
:100E4000402B07D10422691C0DEB020002F00CFCC0
:100E5000019CDDE726F400412846FFF783FF0446A6
:100E6000D6E700BF91AF000098AF000089AF000047
:100E70007047704770470000074B10B59A680749E4
:100E80000748043A52F8044F41F8044F8142F9D11F
:100E90004FF080529A6010BD00ED00E0FCFFFF0FA4
:100EA000C000001008B5FFF7E7FFFFF7E2FFFFF70C
:100EB000E1FF08BD08B5FFF7DBFFBDE80840FFF71D
:100EC000BFBA000038B5431C04460D4604D11522B4
:100ED0000D490E4800F05AFE04F16040A0F51C20B8
:100EE0004200030903209B0003F1804303F53033E4
:100EF000196802F01E02904021EA00011960196889
:100F000095400D431D6038BDA0AF0000E4AC00006B
:100F100038B5431C05460C4604D120221749184811
:100F200000F034FE05F16040A0F51C2043099B0051
:100F300003F1804303F530339D6EC4F3800100F06C
:100F40001F0201FA02F225EA02059D669D6E2A4300
:100F50009A6691B94200030903209B0003F1804384
:100F600003F53033196C02F01E02904021EA0001B3
:100F70001964196C94400C431C6438BDA0AF000088
:100F8000E4AC000030B52A4B04689C4224D006DC57
:100F9000A3F580439C420CD000231D460BE0254B5B
:100FA0009C421CD003F580439C42F5D1224B08257E
:100FB00001E00525214BAAB10122606802FA01F186
:100FC000014361601E4905F110008968AA4041F89B
:100FD00020301C4B1A6030BD1B4B0625EBE71B4B2A
:100FE0000725E8E701290AD042683820184B00FBA2
:100FF000023292F8363092F83520D34216D10123CE
:1010000003FA01F2B1FA81F16068490920EA0200AD
:101010006060626803FA01F1114207D1094AAB40EE
:10102000C2F88030BFF34F8FBFF36F8F30BD00BF6A
:101030000000014000800940F5100000B9100000D8
:1010400000ED00E000E100E0CD100000E110000044
:10105000CC0C0010012810B408D0022808D010BC15
:101060007047506820F00100506010E003460EE029
:1010700038230F4803FB01035868013006D0186974
:101080009C68046093F83630002BEAD000233822A5
:1010900051430748421840580028E0D01BB992F845
:1010A0003620002ADBD0034A1946126810BC1047CC
:1010B000CC0C0010C40C0010034A00219068C0F34F
:1010C0004200FFF7C7BF00BF00C00040034A012134
:1010D0009068C0F34200FFF7BDBF00BF00000140B1
:1010E000034A02219068C0F34200FFF7B3BF00BF7C
:1010F00000800940034A03219068C0F34200FFF7D3
:10110000A9BF00BF00C009402DE9F04F754A0E4647
:1011100001688DB09142059004DD9B2272497348AD
:1011200000F034FD059B72491A688A4200F09C80E9
:1011300079DCA1F580418A4200F088806D4AD2F8BE
:1011400000903201B9FBF2F5ACB202FB1595002D0F
:1011500000F0BF804FEA490308934FEA89030793E1
:10116000079A01270392002233462146DDF820B07A
:10117000CDF810900696029701921A464FF000089B
:101180005FFA87FABBF1000FABBF0398BBFBF2F429
:10119000B0FBF2F42409A8BF64090134C4F34F047E
:1011A0005FFA88F5002C00F09780B8F1000F02D0AC
:1011B000012C08BF022407EB080060430A93049B3C
:1011C000C000B3FBF0F00130C6EB50000B92099168
:1011D00001F040FB069B099998420B9A0A9B62DA40
:1011E00086425BD10F2F07D12146CDF808A001958B
:1011F0000C46DDF808A0019D059B45EA0A151B6811
:10120000EDB21A7B42F080021A73C4F30722E4B2F3
:101210001A711C7083F828501A7B02F07F021A732F
:101220000DB0BDE8F08F34498A4229D001F58041E4
:101230008A4283D1314AD2F8AC1121F44021C2F85C
:10124000AC11D2F8AC1141F4802124E02B4AD2F841
:10125000A81121F0C001C2F8A811D2F8A81141F0DC
:101260004001C2F8A81169E7244AD2F8A81121F474
:101270004071C2F8A811D2F8A81141F48071F0E7CA
:101280001E4AD2F8AC1121F44031C2F8AC11D2F8A8
:10129000AC1141F48031C2F8AC114FE72146069001
:1012A000CDF808A0019508F101085FFA88F05045D3
:1012B0003244FFF467AF0F2F9AD0049A07984A443C
:1012C0000492089A01379344039A334402440392E8
:1012D00053E74FF0010A8FE7B8F1000F0CBF01246C
:1012E000022468E700C009402CB1000097B100005B
:1012F00000000140D00100100080094000C00F40F4
:10130000F8B55E1E012E07460C46154604D9FB2291
:101310001349144800F03AFC053C032C04D9FC2284
:101320000F49114800F032FC042D04D9FE220C496B
:101330000E4800F02BFC013DEDB2032D8BBF0023C6
:1013400001221A460A4B44EA860498BF5B5744EAD6
:10135000C204396844EA0314E4B20C73F8BD00BF58
:101360002CB10000B0B10000D5B10000F8B1000010
:1013700007B00000034B1960382341684B43024912
:10138000CA507047C40C0010CC0C001030B431B9F6
:1013900038254368034C05FB034383F8362030BCF3
:1013A000FFF7F0BDCC0C001010B50268137DDB0711
:1013B000FCD5382443680848117804FB03035868B7
:1013C000C9B2013006D058699B680360536843F086
:1013D00001035360084610BDCC0C00100368187D53
:1013E00000F00100704700003821114A436801FBFA
:1013F0000323DA69013209D01A6B1B6A12681A4298
:1014000014D10368187DC0F3801070470268127D04
:10141000920604D50022012083F83420704793F807
:1014200034000F288CBF0020012070470020704737
:10143000CC0C001038B504460D462046FFF7D4FF0B
:101440000028FAD038212368EDB21D706368044A81
:1014500001FB032393F83420013283F8342038BD94
:10146000CC0C00102DE9F84F9A463C4C0368054619
:10147000A34218BF00248946904647681CB1237CCC
:1014800003F03F03237438234FF0FF32344E2846D5
:1014900003FB0763DA615A60002283F835201146A6
:1014A000FFF770FDB9F1000F55D02E49404600F00E
:1014B00049FB2D498346504600F044FBA9F1020345
:1014C000012B1BD8BAF1FF3F0BD0244B98420DD112
:1014D00064B1237C244943F080032374504600F018
:1014E000F3FAB9F1030F0CD0BDE8F88F382000FBF8
:1014F000076051461C3000F0E8F9F2E7B9F1010F3E
:1015000029D1B8F1FF3F01D1BDE8F88F07222B6840
:101510001A72124B9B450AD14CB1237C404643F0D2
:10152000400323740F49BDE8F84F00F0CDBA3824CA
:1015300004FB076041460022043000F0C9F9012293
:101540006B68284604FB036686F835200021BDE859
:10155000F84FFFF717BDBDE8F88F00BF000001404E
:10156000CC0C001030B000000CB000002DE9F843A6
:101570000F4605464D493846164600F0EFFA4C49ED
:101580000446304600F0EAFA0146204600F0C0FA70
:10159000411C044604D15C224649474800F0F6FA53
:1015A000464B2C609C4263D04DD8A3F580439C42AF
:1015B00056D04FF001094FF0000884F808904FF41E
:1015C00016512846C4F80480FFF79EFD42464B465C
:1015D00008212846FFF794FE3449384600F074FA93
:1015E0003349304600F070FA7A1C03D04146384641
:1015F000FFF78EFC731C03D000213046FFF788FCF8
:101600002E4B9C424CD03FD8A3F580439C4244D003
:1016100038216A682A4B284601FB02324FF0FF331B
:1016200000215360D3611A46FFF71CFF254B9C42F3
:101630003AD10122244B29461A6024480822BDE8E9
:10164000F84302F011B8224B9C4217D003F58043B7
:101650009C42AED11F4AD2F8C43043F0007304E07C
:101660001C4AD2F8C43043F00803C2F8C430A0E7E3
:10167000184AD2F8C43043F01003F6E7154AD2F8FE
:10168000C43043F08073F0E7114B9C420AD003F55D
:1016900080439C42BCD1032300E000236B60B7E78A
:1016A0000123FBE70223F9E7BDE8F883C0B000009F
:1016B00054B000002CB100007CB2000000000140DA
:1016C000CC0C001000C00040C80C00101C0F001013
:1016D0000080094000C00F400649074A074B9A4264
:1016E000BEBF51F8040B42F8040BF8E704488047EA
:1016F00004480047B4BB0000C8000010900B001065
:101700001D17000041030000FEE7FEE7FEE7FEE7CD
:10171000FEE7FEE7FEE7FEE7FEE7FEE72022264BB8
:10172000C3F8A021D3F8A021920603D5D3F8A021B5
:101730005006FBD50222C3F8042100220120C3F881
:10174000A821C3F8AC210B22C3F80C01AA21C3F8CD
:1017500084205522C3F88C10C3F88C20C3F8800075
:10176000C3F88C10C3F88C20134B1A46D3F888109A
:101770004901FBD50321C3F88010AA21C3F88C10BE
:101780005521C3F88C10D2F8883013F0407FFAD07E
:101790000523C2F80831094BC2F8C4300023C2F84F
:1017A000C831136823F4704323F03A0343F44053E1
:1017B00043F03A031360704700C00F40DE872804EF
:1017C000004870478CB20000014B9868704700BF1A
:1017D00000400940034B98615A6942F001025A6186
:1017E000704700BF004009401022024BC3F800219F
:1017F000704700BF00E100E0024A536923F0010393
:101800005361704700400940114B187808B1FFF749
:10181000F3BF01210F4A1970D2F8C43043F400031A
:10182000C2F8C430A2F5D022106702200A4B1B6810
:1018300050600A48B3FBF0F3013BD360084B5160A2
:101840009B68084A1A651022074B1A60704700BF50
:10185000AC0D001000C00F40D001001000093D0089
:1018600000ED00E0B51A000000E100E00122014BAC
:101870001A6070470040094038B5036804460133D8
:101880000D4604D124220549054800F07FF963681C
:1018900015B1E268136038BD2269FBE76FAD000047
:1018A000DFAC000070B50E4604461546FEF7DAFEC2
:1018B000013609D020460021FEF7EEFE29462046DB
:1018C000BDE87040FEF7E5BE70BD0322FFF7EABF3A
:1018D00070B50E4604461546FEF7C4FE01360DD01F
:1018E00029462046FFF7C8FF20460121FEF7D4FE17
:1018F0002046BDE870400221FEF7CBBE70BD00223D
:10190000FFF7E6BF7047000070B504460546074B79
:1019100000F1440644F8043B54F8040B08B1FFF707
:10192000A1F9B442F8D1284670BD00BF9CB20000B6
:1019300010B50446FFF7E8FF2046FFF793F920466D
:1019400010BD00002DE9F0410546002490B08DE85F
:101950000E00169B20480393179B28600493189B46
:101960006C640593199B2F1D06931A9B07931B9B71
:1019700008931C9B09931D9B0A931E9B0B931F9B13
:101980000C93209B0D93219B0E93229B0F935DF84C
:101990002480B8F1FF3F1DD01820FFF74FF906460D
:1019A0000021182201F038FF41463046FFF7A7FF1B
:1019B000B8F1FF3F47F8046B05D0012303FA04F2A6
:1019C0006B6C13436B640134102CE0D1284610B0CB
:1019D000BDE8F0810026EBE79CB200002DE9F14F55
:1019E000064656F8043B07469B68894600259847FB
:1019F000DFF848A0DFF848B056F8044B8CB12368F4
:101A000049FA05F8013308F0010804D124225146AF
:101A1000584600F0BBF86368B8F1000F0BD0E268DD
:101A200013600135102DE7D138463B68DB6801B003
:101A3000BDE8F04F18472269F2E700BF6FAD000024
:101A4000DFAC000010B50446FFF7C8FF204610BD0C
:101A50007047A0F13000FFF7FBBFA0F13000FFF7A7
:101A6000F7BF00F0FDBAA0F13000FFF7FABF00F0B9
:101A7000FABAA0F13000FFF7FABF000038B504460B
:101A80001D46049B00F010FB294604F1300000F0D5
:101A9000DBFD054B204603F10802226003F128021A
:101AA00088332263636338BDACB2000000487047DE
:101AB0003CB30000024B1B680BB10248184770474B
:101AC000D40100103CB3000013B5044601300FD11F
:101AD00002B010BD9C420AD120468968FFF7F2F996
:101AE0000221204602B0BDE81040FFF711BA0C31C8
:101AF0000B685A1CEED1002322460093024903488A
:101B000000F050FCE4E700BF91B300003001018019
:101B1000884207B502460BD0431C09D001310BD0D7
:101B2000002306490093064800F03CFC4FF0FF31CB
:101B3000084603B05DF804FB0146F9E760B3000016
:101B4000300101800B685A1C01D11846704783424E
:101B500001D1486870470C31F4E70000421C13B50E
:101B600004460BD0FFF7EEFF431C044606D10023CA
:101B7000024600930349044800F014FC204602B0DA
:101B800010BD00BF71B300003001018070B5044684
:101B90000D46164600F018F833462A4621460348FB
:101BA000FEF70EFEBDE87040FEF7ACBDA2B300002C
:101BB000EFF31080C04300F001007047EFF30580A1
:101BC000003018BF0120704710B5074C236801335F
:101BD00004D1552205490648FFF7D8FF00F090FDD3
:101BE00023680133236010BDF00D0010D3B3000053
:101BF00028B40000054B1A6832B11A68013A1A601D
:101C00001B680BB900F08EBD704700BFF00D0010CF
:101C1000D0E85F3F0B449BB2C0E8523F002AF7D1A7
:101C200018467047D0E85F3F5B1A9BB2C0E8523F4E
:101C3000002AF7D11846704770B50E4600250446B5
:101C4000056045600F49304602F064F9064426609D
:101C500023681A782F2A0ED10133236025B9282250
:101C600009490A48FFF792FF2946304600F002FC76
:101C70006060204670BD002AF0D00133013523603A
:101C8000E6E700BF59B400005BB40000ADB400004B
:101C900000687047406808B520B100F09BFB431E08
:101CA0005842584108BD10B50446FFF7F3FF10B184
:101CB000606800B1043810BD406808B520B100F07C
:101CC00089FBB0FA80F0400908BD10B50446FFF763
:101CD000F3FF10B1606800B1043810BD40680030F7
:101CE00018BF0120704700002DE9F74F90E8080465
:101CF00004465B68984763681B6A98423FD0DAF8ED
:101D00002030DAF80840A0EB0308CAF82000DAF81F
:101D10000C30314808EA0308844246464FF0000779
:101D200027D0DAE90A239AF839B0A8FB0089CDE96F
:101D300000230025BBF1000F2BD05A4640464946F0
:101D400007F01EFADDE9002312EB080243EB09035A
:101D500090465A46994606460F4607F01DFAB8EBDC
:101D6000000069EB0101A94208BFA0420AD2CAE9FA
:101D70000A01DAE90C23B6185F41CAE90C6703B01F
:101D8000BDE8F08F013647F10007001B61EB05014C
:101D9000EDE722462B464046494608F013F8224616
:101DA00006460F46404649462B4608F00BF8DDE94B
:101DB000008918EB020849EB0309A94508BFA045B3
:101DC00002D2CAE90A89D4E7013647F10007B8EB25
:101DD000040869EB0509F4E740420F00824206D986
:101DE0008A420BD9884294BF002001207047884264
:101DF00006D98A428CBF002001207047012070471D
:101E0000002070472DE9F04707464668FFF76CFF52
:101E10007D68D7F800A06B68002B49D0D5E90C8904
:101E2000D3E90001894508BF804504D3DAF81430AE
:101E3000BDE8F0471847B0EB080861EB0909D5E9A0
:101E400006234B4508BF42452C6906D3AB681E4AA2
:101E5000934219D1444528BF44462A6A336A144440
:101E6000EA681440A342E1D0DAF8103020469847DF
:101E70003B685B68984722460146306AFFF7AEFF31
:101E800000B33B685B69D3E795F839205AB1404607
:101E9000494607F081F90C4A002307F093FF84427A
:101EA00028BF0446D9E7A3FB080103FB0911F2E7A9
:101EB0003369306AF26818441040DAF81030BDE82F
:101EC000F0471847BDE8F08740420F002DE9F74F73
:101ED000054603681B6898472B689B699847066806
:101EE00004462EB929222D492D48FFF74FFE2D4ECD
:101EF0001F23012202FA03F1B1425FFA83FB02D0F1
:101F0000013BF7D19B46D4F804A0AAF104031C2B93
:101F100006D9372221492248FFF738FE4FF0200A20
:101F20000727AAF104039F40002316F1FF301D4C40
:101F300043F1FF313246C4FB070107F043FF0023A2
:101F40006C68CDE90001236063602B684FF00008E6
:101F50005B6898474FF0000920626C685246C4E9FC
:101F60000A89A66084F839B00120002107F014F92D
:101F7000DDE90023C4E9062301230138E06027617D
:101F80002846C4E90C8984F83830FFF7ADFE2846AE
:101F900003B0BDE8F04FFFF735BF00BFB6B4000097
:101FA000B4B4000040420F0070B50446FFF70CFEC9
:101FB0002368DB68984763685B68A3B12046FFF736
:101FC00093FE65686E68D5E90C01D6E90023994255
:101FD00008BF904207D3F3686B602B68002BEAD0F0
:101FE000B0689847E7E72046FFF70CFFBDE8704070
:101FF000FFF700BE436810B593F8383004460BB9BC
:10200000FFF764FFFFF7E0FD2046FFF76DFEFFF7E7
:10201000F1FD6368D3E90C0110BD08B5FFF7EAFFD5
:1020200008BD704770470000090170B501F10C054B
:102030000544EB6873B14418A3692BB94FF40472DB
:1020400005490648FFF7A2FDA3692846BDE8704090
:102050001B68184770BD00BF08B5000063B50000DD
:102060000430FFF7A1B910B50C460430FFF7E2F9D0
:10207000204610BDC36810B504460BB19B68984755
:10208000204610BD884238B504460D460AD0FFF7F9
:10209000F1FF3CB1EB681BB15B68294620469847CD
:1020A000EB68E360204638BD2DE9FF470446002574
:1020B0009A46884691461F4B00F10C070360456025
:1020C0008560294604F11C061022384601F0A4FB65
:1020D00029461022304601F09FFB10222946C4F801
:1020E0002CA0684601F098FB69463846FFF7CAFF06
:1020F0006846FFF7BFFF10222946684601F08CFBB7
:1021000069463046FFF7BEFF251D6846FFF7B2FF60
:102110004A4641462846FFF729FAE16A2846FEF773
:10212000F3FF284622460449FFF724F9204604B06D
:10213000BDE8F08770B50000292000002DE9FF41BF
:10214000064688461746054656F8043B3C011B6880
:102150009847FFF739FDD8F80C300C342C44ABB15C
:10216000E3680BB900F0F8FA41462046FFF78AFF12
:10217000012239463046FFF709F9FFF73BFD2B688E
:1021800028465B68984704B0BDE8F081E3680BB16E
:1021900000F004FB10220021684601F03DFB694677
:1021A0002046FFF76FFF6846FFF764FF0022E0E775
:1021B0007FB50446154B102203600021684601F0EC
:1021C0002BFB002269462046FFF7B8FF6846FFF761
:1021D00051FF10220021684601F01EFB01226946D2
:1021E0002046FFF7ABFF6846FFF744FF14F10C06EB
:1021F00008D004F12C05B54204D0103D2846FFF765
:1022000039FFF8E7204604B070BD00BF70B500008C
:1022100010B50446FFF7CCFF2046FEF723FD20460D
:1022200010BD00002DE9F0411C4C1D4E237836EA0C
:10223000200628BF0646012B88B0F0460F4600D185
:10224000FEE7FFF7C1FC0123164D2370FFF7D2FC18
:102250002B6800220133202168462B6001F0DCFA54
:102260002B688DE84001012B029704D1202269469A
:102270000D4801F0F9F9202269460C4801F0F4F903
:10228000684600F0A9FA0A4B1B680BB1074898474B
:102290000020207008B0BDE8F08100BFFC0D0010E8
:1022A0000101FF80F40D0010000E0010200E001040
:1022B000F80D00107FB52D4C064621682C48C1F35F
:1022C0004173032B0CBF4D428DB2C1F307432A4625
:1022D000FEF776FA6FF49E72AB18032B0CD83046DB
:1022E000FEF76EFAA1682348FEF76AFA224804B0A6
:1022F000BDE87040FEF764BA6FF498731D44072D73
:1023000009D8DFE805F0041D2023262C292FA16819
:102310001A48FEF755FA30460021FEF751FA616877
:102320001748FEF74DFAE36904F108010293A36927
:1023300014480193636900930EC9FEF741FAD5E78B
:10234000A1681148E5E7A1681048E2E7A1681048D4
:10235000DFE7A1680F48DCE7A1680F48D9E7A1686B
:102360000E48D6E7A1680E48D3E700BF200E001044
:1023700080B50000D1B50000E0B60000E2B5000075
:102380006FB600007FB60000F7B5000006B600008B
:1023900014B6000026B6000039B600004CB60000A6
:1023A0005AB6000010B50C461146FFF73BFF68B95E
:1023B0002046FFF77FFFFFF701FC10B9FFF7F8FB9E
:1023C00008B930BFFDE70120FEF7CAFA004810BD8A
:1023D0000F01FF80007B704738B50B4B044603604C
:1023E00000230D464360A16002730848FEF73CFCE1
:1023F00045B1074B1A681C6062600448FEF734FC64
:10240000204638BD6560F8E704B70000440E0010B0
:10241000400E001010B504460E4B03600E48FEF748
:1024200023FCA3682BB10D4A13689C420CD163684E
:1024300013600948FEF718FC237B13B9201FFEF731
:1024400029FC204610BD13465A689442FBD16268AD
:102450005A60EEE704B70000440E0010400E001072
:1024600010B50446FFF7D6FF2046FEF7FBFB2046DB
:1024700010BD000070B506460C480D46FEF7F4FB93
:102480000B4B1C685CB1A06870B12A46314601F064
:10249000F7FC48B9A06801F0C5FC854204D10348A7
:1024A000FEF7E2FB204670BD6468EBE7440E0010C7
:1024B000400E001010B504460748FEF7D5FB074B49
:1024C0001B6803B19847064B1B680BB12046984721
:1024D0000148FEF7C9FB10BD540E00105C0E001041
:1024E0004C0E001038B505460C48FEF7BDFB0C4BF2
:1024F0001B681BB1984708B9FFF7DCFF094B1B6845
:1025000043B19847044605B12C600448FEF7ACFB84
:10251000204638BD4FF0FF34F5E700BF540E0010E1
:10252000500E0010600E001070B50446FFF7BEFAA2
:102530000646FFF772FD05463046FFF76EFD401B6D
:10254000A042F9D370BD000008B5044907F0C4FAF1
:1025500007F012FCBDE80840FFF7E6BF002474490D
:102560004FF47A735843FFF7DFBF00F00BB830B574
:1025700085B06D46182420462946ABBE0446204649
:1025800005B030BD024B186800F00100704700BF75
:10259000F0ED00E00020704770477047F8B50E4638
:1025A000036804461B6D8F1835469847BD4207D017
:1025B000236815F8011B9B6C204698470130F5D124
:1025C000236820465B6D9847A81BF8BDF8B50E46FA
:1025D000036804461B6D8F1835469847BD4208D0E6
:1025E00023682046DB6C9847431C02D005F8010B9A
:1025F000F4E7236820465B6D9847A81BF8BD0020D0
:1026000070477047002070470020704710B504469F
:10261000044B0360503340F8043FFFF7FBFE2046B5
:1026200010BD00BF14B70000A0F10400EEE700BF2A
:1026300010B50446FFF7EAFF2046FEF713FB2046DD
:1026400010BDA0F10400F3E713B504460F4B0022C0
:1026500040F8043BFFF7C0FE0D4B0E49236060338A
:102660006360002320466361FEF75EFB0346606102
:1026700020B1FEF77AF9204602B010BD0090024664
:1026800005490648FFF78EFEF5E700BFB8B8000021
:102690008CB700006CB700006FB700001901018013
:1026A00010B50446064B03F108026833026043602C
:1026B000406900F041F92046FFF7A8FF204610BD11
:1026C00084B700000EB477B50446036807AD55F82B
:1026D000046B1B6D98476069019500F00DFA019A33
:1026E0003146606903F090F90546236820465B6D2A
:1026F0009847284603B0BDE8704003B0704700001B
:10270000EFF31083DB4372B6044A117829B9044908
:1027100003F001030B70012313707047650E001066
:10272000640E001008B5EFF31083DB0704D43622E3
:1027300005490648FFF72AFA0022054B1A70054B97
:102740001B7803B162B608BDF4B7000050B80000B2
:10275000650E0010640E001013B5FFF735FA4FF642
:10276000FF730B4C22889A4208D1FFF743FA0023EB
:102770002288009307490848FFF714FE0121044806
:10278000FFF746FA02B0BDE81040FFF733BA00BFCA
:10279000660E00106AB800002301048037B50B4DA7
:1027A000FFF712FA2C8844B9FFF724FA2A8800941C
:1027B000234607490748FFF7F5FD01210348FFF7C6
:1027C00031FA03B0BDE83040FFF714BA660E0010CE
:1027D0008FB800002401048010B50446B8B1FFF79B
:1027E000F3F90C4A0C4813682146013313605A422E
:1027F00002F0030203F0030358BF534200EB4310FF
:10280000202200F031FFFFF7F5F9002010BD03484A
:1028100010BD00BFD8010010680E00100101FF803C
:10282000036870B51B690122002104469847051E04
:102830000DDB236802221B690021204698470646CB
:10284000236829461B6900222046984735462846BA
:1028500070BD00000028B8BF40427047014B1868A7
:10286000704700BFDC01001070B5002948D0054654
:102870000C4610B1836B002B48D0626EB4F90C305B
:10288000D00740D4990530D52146284600F05CF8A1
:10289000E36A064633B1E169284698470028B8BF85
:1028A0004FF0FF36A3891A063CD4216B41B104F1E5
:1028B0004003994202D0284607F00AFC0023236314
:1028C000616C21B1284607F003FC0023636400F02B
:1028D000EDF90022636EA281DB071FD5A06D00F029
:1028E000EFFD00F0E9F9304670BDA06D00F0EAFDA3
:1028F000B4F90C30002BC7D1666E16F0010616D065
:102900000026304670BD002BFAD0BDE700F04CF930
:10291000626EB4F90C30D007F5D4B3E7A06D00F0C7
:10292000D3FDDBE72169284607F0D2FBBDE7A06DA8
:1029300000F0CAFD304670BD024B01461868FFF733
:1029400093BF00BFDC010010B1F90C302DE9F0415C
:102950009AB20C461107804644D4626843F400637F
:10296000002AA3815ADDA56A002D54D000229BB213
:10297000D8F80060E169C8F8002013F4805240F0F4
:10298000848001234046A847431C4BD0A389A56AF5
:10299000E1695F0705D56268236B801A0BB1E36BB1
:1029A000C01A024600234046A847451C46D00021D5
:1029B000B4F90C30226923F40063A381DB04C4E979
:1029C000002100D52065216BC8F8006019B304F11F
:1029D0004003994202D0404607F07AFB0020206372
:1029E000BDE8F0812669B6B1920718BF00232568BB
:1029F00008BF63692660AD1BA3600AE02B46324620
:102A0000676AE1694046B8470028A5EB000506441F
:102A10002BDD002DF2DC0020BDE8F081E26B002A06
:102A2000A1DCF8E7D8F80030002BAFD01D2B01D087
:102A3000162B2CD1C8F800600020EDE7D8F8005024
:102A40001D2D1AD8144BB4F90C20EB40DB4313F0C6
:102A5000010314D1216922F40062C4E90013D104F6
:102A6000A281B0D5002DAED1ACE7A3894FF0FF30E5
:102A700043F04003A381BDE8F081B4F90C2042F09B
:102A80004002A2814FF0FF30C6E7206D81E7A389A5
:102A900043F04003A381BFE70100402038B50D4655
:102AA000044608B1836BA3B1B5F90C00B8B16B6EE5
:102AB000DB0701D481051AD520462946FFF744FFDC
:102AC0006B6E0446DA0702D4AB899B050AD5204613
:102AD00038BD00F069F8B5F90C000028E7D10446CC
:102AE000204638BDA86D00F0EFFC204638BDA86D2B
:102AF00000F0E8FCE0E700BF20B1054B0146186894
:102B0000FFF7CCBF034B0449186800F08BBC00BF33
:102B1000DC01001000B900009D2A0000002310B560
:102B200004468181C281C0E9003383604366C0E905
:102B300004338361194608225C3000F06DFE0748BB
:102B40000749084A084BC4E90740C4E90912E3628F
:102B500004F15800BDE8104000F0B0BCE13B0000BB
:102B6000053C0000413C0000613C0000014900F0D0
:102B700059BC00BF6928000070B568254A1E05FBD6
:102B800002F50E4605F1740107F09EFA044640B1C5
:102B900000210C30666005F168022160A06000F041
:102BA0003BFE204670BD00BF10B50446144800F03F
:102BB00089FCA26BFAB90320124904F53B73C4F8EF
:102BC000E832C4F8E022C4F8E402E163606804215A
:102BD000FFF7A4FFA06801220921FFF79FFFE0682B
:102BE00002221221FFF79AFF01230548A363BDE8E3
:102BF000104000F069BC0248BDE8104000F064BC21
:102C0000300F00106D2B000070B50646244800F010
:102C100059FC244B1D68AB6B83B305F53875D5E9BA
:102C20000134013B05D525E0013B5A1C04F1680441
:102C300020D0B4F90C20002AF6D100251A4B04F15B
:102C40005800E360656600F039FC154800F03CFC74
:102C50002560C4E90155C4E90455A5612946082247
:102C600004F15C0000F0D8FDC4E90C55C4E911552D
:102C7000204670BD2C682CB12546D0E72846FFF7CA
:102C800093FFCAE704213046FFF776FF0446286029
:102C90000028F1D1024800F017FC0C233360E7E76D
:102CA000440F001000B900000100FFFF014800F0D0
:102CB00009BC00BF440F0010014800F005BC00BF74
:102CC000440F00101346F0B583B00F4601AA194611
:102CD000064603F0C1FF002836D005463046FFF710
:102CE00093FF044600282FD039464FF4DB73019A36
:102CF000304600F0DBFD071E30DB636EDB0715D5C9
:102D00001C4B1D491D4AC4E907431D4BC4E9091268
:102D1000E905E781A581E3620FD4636EDA0702D487
:102D2000A3899B0514D5204603B0F0BDA38998055F
:102D3000E6D4A06D00F0C6FBE2E730460223002295
:102D4000214600F027F8E8E70024204603B0F0BD54
:102D5000A06D00F0B9FB204603B0F0BD0025FFF7E1
:102D6000A5FFA581A06D00F0ABFB2C46FFF7A4FFEB
:102D7000D9E700BFE13B0000053C0000413C0000FA
:102D8000613C0000024B0A4601461868FFF79ABFF3
:102D9000DC01001000F000B82DE9F04F0C4697B0B0
:102DA00091461F46064618B1836B002B00F09480B5
:102DB000626EA389D20702D49D0540F1A68003F478
:102DC0008473B3F5847F00F09B80D4F82880B8F139
:102DD000000F00F08480012F13D0022F00F08B80B1
:102DE000002F00F088801622636E3260D90702D46B
:102DF000A3899A057BD54FF0FF35284617B0BDE86B
:102E0000F08F21463046FFF749FEA38913F4805224
:102E100040F03781E1693B463046C047411C0546DA
:102E200000F0E280A3895F07226940F1EE80D4F8C8
:102E300004E0236BA5EB0E051BB1D4F83CC0A5EB59
:102E40000C054FF0010A0027A944002A00F0E78092
:102E500040F61A01B4F90C309AB20A4208D1520570
:102E600065D4964A904500F0FD8043F40063A38149
:102E700021463046FFF712FE002840F0C1803B4655
:102E80004A46E1693046C047013000F0B980216B05
:102E900041B104F14003994202D0304607F018F9DD
:102EA0000023236300212269A389C4E900210822A9
:102EB00023F40263A38104F15C0000F0ADFC656EB5
:102EC00015F0010503D1A3899B0540F195800025EC
:102ED000284617B0BDE8F08FFFF766FE68E71D22B1
:102EE000636E3260D80786D4A3899A0583D4A06D17
:102EF00000F0EAFA7FE74FF0000A22695546A4E79E
:102F000021463046FFF7CAFD5FE7A06D00F0DAFA10
:102F1000A38954E7019AB4F90C3002F47042B2F577
:102F2000004FA2D14FF480621343A381E264002FCB
:102F300040F08B80CB46BAF1000F75D1A389DB043A
:102F400000F1818052460123E1693046C047451CAB
:102F50008ED0D4F804E0216BA0EB0E057346002957
:102F60006AD0D4F83CC0A5EB0C05A36B206975446E
:102F70001B1AED1A6344AB4580F28580E26C002396
:102F8000524202EA0B052A46E1693046C047013049
:102F90003FF46EAF00222369216B6260236041B170
:102FA00004F14003994202D0304607F091F8002323
:102FB0002363A389BBEB050B23F02003A38110D06F
:102FC0002146304600F0B8FC00287FF451AF63681A
:102FD0005B45FFF44DAF2268A3EB0B035A44C4E9F1
:102FE00000230822002166E7636EDA073FF503AF8E
:102FF000A3899B053FF5FFAEA06D00F065FAFCE6E6
:10300000636ED9077FF5F4AEF5E618077FF519AFC3
:103010002368002B3FF415AF9B1A1D4411E721468E
:10302000304600F081FA13E7216B21B1D4F804E0B7
:10303000D4F83CC099E76368226820690021121A1D
:10304000AD1A134497E7206D83E76A46B4F90E1072
:10305000304600F035F800287FF40AAF049B09EBF6
:10306000030B68E7B4F90E100029FFF6FEAE6A46BE
:10307000304600F025F800283FF44CAFB4F90C308E
:10308000F3E6256DCFE6EA185A457FF677AFABEB4E
:10309000050528445B1BC4E9000341B104F140036A
:1030A000994202D0304607F013F800232363A38926
:1030B000082223F02003A38194E700BF413C0000D5
:1030C00070B50D460023074C06461146284623607E
:1030D000FDF7B1FD431C00D070BD2368002BFBD071
:1030E000336070BD480F00109368002B00F0DB8048
:1030F0002DE9F04FB1F90C300C469BB2190783B0A3
:10310000824690462BD522694AB313F00202D8F8C2
:10311000006033D000273D46D4F824B0E169DFF8E1
:10312000B892C5B14D452B463A4628BF4B4650464E
:10313000D847002840F3BF80D8F8083007441B1A4E
:103140002D1AC8F80830002B00F0A980D4F824B05C
:10315000E169002DE6D1D6E900750836E1E72146A0
:10316000504602F055FD002840F03081B4F90C3093
:10317000D8F800609BB213F00202CBD113F0010922
:103180005ED14D46A7682068002D55D09A0540F1C4
:103190009C80AF42BB4600F2DE8013F4906F2FD0CC
:1031A000D4E9041707EB4707A0EB010B07EBD77730
:1031B000681C7F105844B8423A4684BF07463A46D6
:1031C0005B0540F1D9801146504606F07DFF00288E
:1031D00000F0F6805A462169019000F045FAA28974
:1031E000019B22F4906242F08002A281A7EB0B02C5
:1031F00003EB0B006761AB462F4623612060A260A2
:103200005A46494600F0A6FA2368A2685B44AB46DA
:103210000025D71BA7602360D8F80870D944A7EB16
:103220000B07C8F80870002F39D0B4F90C30A76824
:103230009BB22068002DA9D1D6E900950836A3E7F6
:1032400033469146104617464E469B46002F6ED099
:10325000002876D020682169B9454B4628BF3B46F7
:103260008842626903D9A5681544AB4276DC9A426C
:1032700000F398801346656A3246E1695046A847D4
:10328000051E18DDB9EB05090FD00120D8F808306C
:103290002E445B1B7F1BC8F80830002BD6D10020C2
:1032A00003B0BDE8F08F0020704721465046FFF77D
:1032B000F5FB0028EAD0B4F90C304FF0FF3043F0B2
:1032C0004003A38103B0BDE8F08F2369834217D385
:1032D0006269AA4214D83F4B676A9D4294BF2B464D
:1032E0006FF0004393FBF2F3E16902FB03F35046F6
:1032F0004A46B847B0F1000BDDDDA5EB0B058BE7C7
:10330000AF4228BF2F4649463A4600F023FAA36849
:103310002268DB1B3A44BB46A3602260002BECD141
:1033200021465046FFF7BAFB0028E6D0C3E70BF171
:10333000080353F8047C9B4653F8086C0833002FAD
:10334000F7D03A460A21304600F048F938B3013048
:10335000A0EB06097EE72F46AB4651E731462A46E9
:1033600000F0F8F9236821462B4423605046FFF70C
:1033700095FB002886D09EE7504606F0A7FE034640
:1033800000287FF433AF2169504606F0A1FE0C22DD
:10339000B4F90C30CAF8002023F080038DE707F160
:1033A000010957E71A4631461D46019300F0D2F94C
:1033B000A1682268019BC91A1344A160236061E7D8
:1033C0000C22B4F90C30CAF8002076E74FF0FF3039
:1033D00066E700BFFEFFFF7F00FCFF7F2DE9F041A5
:1033E00010F538771AD088460026D7E90154013DF8
:1033F0000ED4A389013D012B06D9B4F90E30013357
:1034000002D02046C04706436B1C04F16804F0D18B
:103410003F68002FE9D13046BDE8F0813E46304696
:10342000BDE8F0812DE9F84310F538761ED08846C6
:1034300007464FF00009D6E90154013D10D4A38995
:10344000013D012B08D9B4F90E30013304D02146D7
:103450003846C04749EA00096B1C04F16804EED104
:103460003668002EE7D14846BDE8F883B1464846A5
:10347000BDE8F88370B50D4E0D4D761BB61006D025
:103480000024013455F8043B9847A642F9D1094E6F
:10349000094D07F0F9FB761BB61006D00024013465
:1034A00055F8043B9847A642F9D170BD840B001033
:1034B000840B00108C0B0010840B0010704700BFB1
:1034C000704700BF704700BF704700BF70B50C4623
:1034D000B1F90E1096B0002915461E460FDA0023EA
:1034E000A289336012F0800004D14FF480632B6016
:1034F00016B070BD402218462A6016B070BD6A46EC
:10350000FFF7DEFD0028EADB019B4FF4806203F445
:103510007043A3F50053B3FA83F34FF400605B09E3
:1035200033602A6016B070BD8A890B46920706D5B3
:10353000012103F1430259611A601A61704770B5A5
:1035400082B001AB6A460C460546FFF7BFFF009903
:103550000646284606F0B8FDB4F90C30D8B1164A34
:103560000099EA63019A43F08003A3812060C4E9D3
:1035700004011AB93343A38102B070BD2846B4F9DF
:103580000E1003F0A5FBA0B1A38923F0030343F0C1
:1035900001031BB2EEE79A05EED4012123F00303E9
:1035A00004F1430243F00203A381616122602261BE
:1035B000E2E7B4F90C30DDE76D2B0000024B014669
:1035C000186806F081BD00BFDC010010024B014607
:1035D000186806F07DBD00BFDC010010830770B4E1
:1035E000CDB23DD0541E0AB30378AB421FD0431C6A
:1035F00005E014F1FF3419D30278AA4217D013F072
:10360000030F184603F10103F3D1032C11D84CB377
:103610000378AB420BD00444431C02E00278AA4278
:1036200005D09C42184603F10103F7D1002070BC7D
:10363000704706460A0292B22A4342EA02423368BF
:1036400030465340A3F1013121EA030313F0803FD8
:1036500006F10406DCD1043C032C3046EFD8D6E753
:103660001446D2E72046E2E7844641EA000313F01D
:10367000030349D1403A23D30B6803604B6843608E
:103680008B688360CB68C3600B6903614B694361DE
:103690008B698361CB69C3610B6A03624B6A4362C6
:1036A0008B6A8362CB6AC3620B6B03634B6B4363AE
:1036B0008B6B8363CB6BC36340304031403ADBD2CA
:1036C00030320BD30B6803604B6843608B688360B8
:1036D000CB68C36010301031103AF3D20C3205D3EE
:1036E00051F8043B40F8043B043AF9D2043208D0C4
:1036F000D2071CBF11F8013B00F8013B01D30B8836
:1037000003806046704700BF082A13D38B07B1D0EF
:1037100010F00303AED0C3F10403D21ADB071CBFC1
:1037200011F8013B00F8013BA4D331F8023B20F82B
:10373000023B9FE7043AD9D3013A11F8013B00F864
:10374000013BF9D20B7803704B7843708B78837010
:10375000604670478842F0B40DD98B1883420AD96D
:10376000841832B1224613F8014D994202F8014DF6
:10377000F9D1F0BC70470F2A48D940EA01039B07F2
:1037800046D1A2F110031B0901F1200707EB031733
:1037900001F1100400F1100554F8106C103445F8D4
:1037A000106C54F81C6C103545F81C6C54F8186CEF
:1037B00045F8186C54F8146CBC4245F8146CEBD105
:1037C000013302F00F051B01032D1944034421D9D5
:1037D0000F462C461E1F57F804CB043C032C46F81A
:1037E00004CFF8D82C1F24F00304043423442144CC
:1037F00002F00302002ABCD0013B0A4411F8014B3D
:10380000914203F8014FF9D1F0BC70470346F1E74C
:103810000346F1E72A46EDE7F0B4860743D0541E8D
:10382000002A3ED0CAB2034602E014F1FF3438D376
:1038300003F8012B9D07F8D1032C2BD9CDB245EA13
:1038400005250F2C45EA054516D9A4F110073F09B7
:1038500003F1200606EB071603F1100242E90455B6
:1038600042E902551032B242F8D104F00F04013798
:10387000032C03EB07130DD91E462246043A032AF4
:1038800046F8045BFAD8221F22F0030204321344E4
:1038900004F003042CB1C9B21C4403F8011B9C4280
:1038A000FBD1F0BC704714460346C5E7F8B50E4699
:1038B0000025084C114607461A4630462560FDF79C
:1038C0009DFA431C00D0F8BD2368002BFBD03B6061
:1038D000F8BD00BF480F00100022024B1B68C3E96F
:1038E0002A027047DC0100100B4B0C48196830B4F9
:1038F000D1E92A2300FB02F0094C04FB0300A2FBE0
:103900000423541C034443F1000525F00040C1E9A1
:103910002A4530BC704700BFDC0100102DF451581F
:103920002D7F954C838903F00903092B01D00020DA
:103930007047FFF7E1B800BFF8B50C46054610B177
:10394000836B002B40D0B4F90C309AB2970407D4A3
:10395000626E43F4005322F400526266A3819AB26D
:1039600000219606616038D450071AD4D10662D57A
:1039700012074ED443F00403A3812369002B55D0D2
:10398000B4F90C70BEB2B3072AD12269284622606E
:10399000256A6369E169A8470028606017DD002097
:1039A000F8BD216B0029E8D004F14003994202D010
:1039B000284606F08DFB0020E36B20636360002B3C
:1039C000DBD0A36B2360F8BDFFF7EEF8BBE7B4F9DB
:1039D0000C3016D143F02003A3814FF0FF30F8BD27
:1039E0000122194BA2811868184906F00906FFF751
:1039F000F5FC092EA781C8D121462846FEF7A4FF71
:103A0000C3E7002243F04003A38162604FF0FF3020
:103A1000F8BD21462846FFF741F80028DDD1B4F96A
:103A20000C30A060A06123F00803A3E721462846DC
:103A3000FFF77AFDA4E7092243F040032A604FF024
:103A4000FF30A381F8BD00BF00B900002539000098
:103A500000290CBF022200224FF4806300F000B85E
:103A60002DE9F0435D4D83B02D6804468846164627
:103A70001F4615B1AB6B002B7DD0022E05D0012E59
:103A800000F2A880002FC0F2A580636EDA0734D55B
:103A900021462846FFF702F8216B41B104F14003AB
:103AA000994202D0284606F013FB0023236300222C
:103AB000B4F90C30A2611806626060D423F44A6342
:103AC00023F00303022EA3811ED100250022012032
:103AD000616E43F00203A260C90704F14302A381AF
:103AE00060612260226104D49B0502D4A06DFFF7BF
:103AF000EBFC284603B0BDE8F083A3899B05C7D43F
:103B0000A06DFFF7DFFCC3E701AB6A4621462846FC
:103B1000FFF7DCFCA3891843A081002F36D1009F5A
:103B20003846FFF74BFD8046002842D0A38943F07A
:103B30008003A381AB6B7BB3009AB4F90C30BA421B
:103B40001CBF43F40063A381012E04BF43F00103B3
:103B5000A3819BB213F00802C4F80080C4E9048773
:103B60001ED1A260656E15F00105BDD00025284666
:103B700003B0BDE8F0832846FFF716F87DE721691A
:103B8000284606F0A5FAB4F90C3097E7B8F1000F13
:103B9000C6D0AB6B002BCFD12846FFF705F8CBE79B
:103BA000DA0704D500227F42A761A260DAE7A760A6
:103BB000D8E7DDF80090B94504D1B4F90C304FF0E6
:103BC000FF3583E74846FFF7F9FC80460028F4D02C
:103BD0004F46ABE74FF0FF358BE700BFDC0100102D
:103BE00010B50C46B1F90E1003F0DCFB002803DB26
:103BF000236D0344236510BDA38923F48053A3815F
:103C000010BD00BF2DE9F041B1F90C409846E30525
:103C10000D461746B1F90E10064607D502230022BD
:103C200003F084F8B5F90C40B5F90E1024F4805473
:103C3000AC8143463A463046BDE8F04101F0D2BF80
:103C400010B50C46B1F90E1003F070F8A389421CB0
:103C50000EBF23F4805343F480532065A38110BD2D
:103C6000B1F90E1002F03AB880EA010C1CF0030F13
:103C700037D110F0030C20F0030021F0030150F8BD
:103C8000042B08BF51F8043B0ED08CF0030C6FF0EE
:103C90007F434FEACC0C23FA0CFC51F8043B42EA78
:103CA0000C0243EA0C0300BFA2F1013C9A4201BF9F
:103CB0002CEA020C1CF0803F50F8042B51F8043B16
:103CC000F2D04FEA02604FEA1222012828BFB0EB7F
:103CD000036F08BF1B0AF4D003F0FF03000EC01AE5
:103CE000704710F0030F0AD010F8012B11F8013BB8
:103CF000012A28BF9A42F4D0A2EB030070474DF886
:103D0000045D50F8042B01F0030521F0030151F884
:103D1000043B022D26D04DD822F07F45B5EB132F62
:103D2000A2F1013C2CEA020C0DD11CF0803C08BF32
:103D300051F8043B0AD185EA0205B5EB036F0CD1BB
:103D400050F8042BE8E74FEA13235BE03CF07F4C8C
:103D500054D10B784FEA126554E04FEA126503F034
:103D6000FF034FE04FEA0245A2F1013C4FEA15453F
:103D70002CEA020CB5EB134F18D11CF0803C08BFA5
:103D800051F8043B07D185EA0205B5EB034F09D191
:103D900050F8042BE6E75FEA0C4C2FD10B884FEA72
:103DA00012452FE04FEA03434FEA12454FEA13430F
:103DB00028E000BF02F0FF05B5EB136FA2F1013C54
:103DC0002CEA020C0DD11CF0803C08BF51F8043BDA
:103DD0000AD185EA0205B5EB032F0AD150F8042B6E
:103DE000E8E74FEA13630DE012F0FF0F06D051F839
:103DF000043B4FEA122523F07F4303E04FF000001D
:103E000020BC704705F0FF0203F0FF00012828BF27
:103E1000904204BF2D0A1B0AF4D0A2EB000020BC84
:103E2000704700BF20F0030110F00300C0F1000054
:103E300051F8043B00F1040C4FEACC0C6FF0000287
:103E40001CBF22FA0CF213434FF0010C4CEA0C2C6D
:103E50004CEA0C4CA3EB0C0222EA030212EACC124D
:103E600004BF51F8043B0430F4D0C2F1000102EA6F
:103E70000102B2FA82F2C2F11F0200EBD2007047D7
:103E8000002A3FD040EA010313F00303F0B425D128
:103E9000032A23D904680D68AC421FD1043A33D0F9
:103EA000A4F1013525EA040414F0803F2FD1071D49
:103EB0000D1D0DE057F8043B0E68A3F10134B34229
:103EC00024EA03040AD1043A1ED014F0803F1BD127
:103ED000032A2946384605F10405EBD803780C7807
:103EE000013A9C420BD17AB114B90DE062B173B1C1
:103EF00010F8013F11F8014F013AA342F6D0181B08
:103F0000F0BC7047104670470020F0BC7047184660
:103F1000F6E700BF70B40478A4B106460D784DB141
:103F2000A5420AD00A4601E0A34206D012F8013F9A
:103F3000002BF9D1801B70BC704710F8014F002C8A
:103F4000EDD1F7E72046F6E72DE9F04FD9B01C4652
:103F5000894617460546079002F0DAFE03680C947E
:103F600018461A93FFF75EFF18901DB1AB6B002B3C
:103F700000F00581D9F86410B9F90C20C80793B294
:103F800002D4990540F11D819E040AD4D9F8641029
:103F900042F4005321F40051A9F80C30C9F8641020
:103FA0009BB21D0740F1B080D9F81020002A00F024
:103FB000AB8003F01A020A2A00F0C780002319938D
:103FC00014931793CDE92D331D93CDE91F3321931E
:103FD0001E930993CDE91B332FAB2C939B463B7863
:103FE000CDF82C90002B00F05282252B3C4602D1BC
:103FF0001BE0252B03D014F8013F002BF9D1E51B62
:104000007DB1DDE92D3201332A44072BCBE9007560
:10401000CDE92D3200F3CA800BF1080B099B2B442C
:1040200009932378002B00F0328200234FF0FF39F0
:1040300098462B2566780A938DF8933004F1010A8F
:104040000AF1010AA6F120035A2B00F22D84DFE8C1
:1040500013F0A2032B042B04F0022B042B042B04DB
:10406000F5022B042B04140321032B0426032B033A
:104070002B0445036802680268026802680268024D
:104080006802680268022B042B042B042B042B0407
:104090002B042B049D022B04DC02EB039D029D02EA
:1040A0009D022B042B042B042B04E6032B042B046E
:1040B0009A002B042B042B044A032B0471032B04BA
:1040C0002B0488032B042B042B042B042B042B041C
:1040D0002B042B049D022B04DC02C0009D029D02D8
:1040E0009D02C903C00070002B04AD032B04BA036A
:1040F0009C00D60370002B044A03720027022B0495
:104100002B0477022B0472004946079801F080FDCA
:10411000A0B1D9F86430D80704D4B9F80C309905A7
:1041200040F1AF834FF0FF330993099859B0BDE8D0
:10413000F08F48F020089AF8006081E7B9F80C3059
:1041400003F01A020A2A7FF439AFB9F90E20002AC7
:10415000FFF634AFD9F86420D20705D49B0503D409
:10416000D9F85800FFF7B0F923463A464946079870
:1041700001F056FC0990099859B0BDE8F08F0798F6
:10418000FEF712FDF6E648F0100818F0200F00F0D8
:1041900064830C9C073424F0070303F108020C929B
:1041A000D3E9004528F48063002287E12CAA0B990B
:1041B000079804F0AFFE002841F091830DF1BC0B8D
:1041C0002CE7D9F85800FFF77DF9B9F90C2093B224
:1041D000DAE643469F0640F12C830C9C073424F01A
:1041E0000704D4E9000104F108020D4604460C92CC
:1041F000002871F1000205DA2D22644265EB4505C5
:104200008DF8932058AAB9F1FF3F089200F0F78487
:10421000012254EA050123F0800840F05981B9F1E8
:10422000000F40F04A86002A40F04A8513F001034F
:104230000D9300F09C86302358AF07F8013D002312
:1042400010931393CDE915330D9B9DF893204B45A7
:10425000B8BF4B46089312B1089B0133089318F07E
:1042600002030E9302D0089B0233089318F08403D4
:104270002E9C11933FD10A9B08995D1A002D3ADDBF
:10428000102D2D9A29DD5946204622961023079C91
:10429000BB460B9E04E0103D102D01F1080118DD16
:1042A0000132B74F1030072ACDE92D20C1E9007344
:1042B000F1DD2CAA31462046129304F02BFE002893
:1042C00040F03584DDE92D20103D102D2FA9129BE3
:1042D000E6DC5F4604468B46229E0132A84B2C4406
:1042E000072ACDE92D24CBE9003500F330859DF870
:1042F00093200BF1080B72B101202D9A0444024463
:104300000DF19301072ACDE92D24CBE9001000F32C
:1043100010840BF1080B0E9B6BB102212D9B0C44FA
:10432000013325AA072BCDE92D34CBE9002100F379
:104330000D840BF1080B119B802B00F025830D9B46
:10434000A9EB0305002D38DD102D2D9A40F3FC86D6
:104350008C4B59462046BB464FF0100937461C4649
:104360000B9E04E0103D102D01F1080115DD013216
:104370001030072ACDE92D20C1E90049F2DD2CAA31
:104380003146079804F0C6FD002840F0D083DDE9EF
:104390002D20103D102D2FA9E9DC3E4623465F4617
:1043A00004468B4601322C44072ACDE92D24CBE963
:1043B000003500F332840BF1080B18F4807F40F0D5
:1043C00086822D9B0D9A01331444072B2E94CBE942
:1043D00000722D9300F306840BF1080B18F0040F04
:1043E0003BD00A9B089A9D1A002D36DD102D2D9B7F
:1043F00021DD1026079FDDF82C8004E0103D102DF4
:104400000BF1080B17DD01335D4A1034072BCDE9A2
:104410002D34CBE90026F1DD2CAA4146384604F0C4
:1044200079FD002840F0A685DDE92D34103D102DE2
:104430000DF1BC0BE7DC0133514A2C44072BCDE9CD
:104440002D34CBE9002508DD2CAA0B99079804F040
:1044500061FD002840F0DE822E9C0899DDE90932DA
:104460008A42ACBF9B185B180993002C40F0CA82AB
:1044700000232D93109B1BB11099079805F028FE7F
:1044800057460DF1BC0B3B78002B7FF4AEAD2E9B55
:10449000DDF82C90002B41F0238100232D93C0E206
:1044A00043469A0640F14B810C9C073424F00702E6
:1044B00002F10801D2E9004501220C910021B9F175
:1044C000FF3F8DF8931058A908917FF4A2AE98464B
:1044D000012A00F09583022A00F0B38258A900E077
:1044E0003946E20842EA4572E80804F00703054647
:1044F0001446303354EA050201F8013C01F1FF375C
:10450000EED118F0010F00F0AC82302B00F0A98240
:104510003023089A0239521A07F8013C0D920F46CF
:104520008DE60022A6F130031AF8016B02EB82023D
:1045300003EB4202A6F13003092BF5D90A9281E57B
:10454000114B18F0200F1D9300F011810C9C0734C3
:1045500024F0070303F108020C92D3E9004518F098
:10456000010F09D054EA050306D030238DF8956079
:1045700048F002088DF89430022228F480639DE709
:1045800048B9000058B9000014B900000C9C073469
:1045900024F0070CDCE90023179323F00043199261
:1045A00015461046089319460CF108044FF0FF32E7
:1045B000B84B0C9405F052FA002840F0DD842846F0
:1045C00008994FF0FF32B34B05F02AFA002840F06B
:1045D000D3841B9A19981C9B179905F017FA002889
:1045E00040F0D5859DF8932003200021AA4FAB4BC6
:1045F0000890109128F080080D9089461391CDE91C
:104600001511472ED8BF1F4625E6002301200C9C1C
:104610001A4621688DF89330109399461393CDE98B
:104620001533231D08900D908DF8FC100C933FAFAF
:1046300015E648F001089AF8006001E5079E30464B
:1046400002F066FB436818461E93FFF7EBFB2190D0
:104650000446304602F05CFB83682093002C3FF454
:104660006AAD9AF80060002B3FF4EAAC1B78002B8F
:104670003FF4E6AC48F48068E2E40C9B9AF80060F2
:104680001A680433002A0A920C93BFF6D9AC53423D
:104690000A9306E08DF893509AF80060D0E49AF8F7
:1046A000006048F00408CBE49AF800600AF10102C7
:1046B0002A2E01F07281A6F13003092B92464FF0A9
:1046C00000093FF6BFAC1AF8016B09EB890903EB4F
:1046D0004909A6F13003092BF5D9B3E448F0800865
:1046E0009AF80060ACE400250C9B8DF893501F688D
:1046F0001C1D002F00F05286B9F1FF3F00F0188713
:104700004A4629463846FEF769FF1090002800F017
:104710000486A946109BDB1BCDE90C4323EAE37317
:104720000893CDF84090CDF84C90CDE915999DF8BF
:10473000932090E548F010039A063FF5B5AE0C9A29
:10474000DF0602F1040100F1B2835D060C9A00F16C
:1047500018859C0540F1AB831478002501220C914B
:10476000ACE64F4B18F0200F1D937FF4EFAE0C9A80
:1047700018F0100F02F1040340F08F8318F0400F7F
:104780000C9A40F0F18418F4007F00F086831478CE
:1047900000250C93E3E69DF893309AF80060002B17
:1047A0007FF44EAC20238DF8933049E49AF80060F2
:1047B0006C2E03BF9AF8016048F020080AF1010A44
:1047C00048F010083CE40C9A18F0200F52F8043B13
:1047D0000C9200F07684099A57461046D117C3E927
:1047E000000150E69AF80060682E03BF9AF8016055
:1047F00048F400780AF1010A48F0400820E447F63E
:1048000030020C99ADF894200A1D0C92254A0C68D0
:104810001D9248F002030025022278264EE648F059
:1048200008089AF800600BE448F010039F063FF573
:10483000D4AC0C99DD0601F1040200F142835C0660
:104840000C9900F19684980540F13B8391F9004062
:104850000C92E51720462946CAE40C9A18F0100F6E
:1048600002F1040340F01E8318F0400F0C9A40F050
:10487000768418F4007F00F01583147800250C93DB
:1048800090E4D9F85800FEF71FFE4FF0FF3309936C
:104890004BE400BFFFFFEF7F08B9000004B9000040
:1048A00028B9000014B90000002E3FF4F0AD002339
:1048B00001211A4608918DF8FC608DF89330109311
:1048C00099461393CDE915330D913FAFC7E4652E9B
:1048D00040F3CC801B9A19981C9B179905F08CF813
:1048E000002800F0A78101212D9B9F4A0B440C4416
:1048F000072B2E942D93CBE9002100F319840BF1A3
:10490000080B269B149A2E9C934203DB18F0010F90
:104910003FF464AD2D9B189A01331A991444072B68
:10492000CBE90012CDE92D3400F32B850BF1080BF8
:10493000149B5D1E002D7FF751AD102D2D9A40F375
:10494000CC878A4B10261946079F2346DDF82C900A
:104950000C4605E00BF1080B103D102D40F3CA8307
:1049600001321033072ACDE92D23CBE90046F1DDD2
:104970002CAA4946384604F0CDFA00284CD1DDE98E
:104980002D230DF1BC0BE7E70A9B089A9D1A002D19
:104990007FF7D5AC102D2D9A744B27DD5946204654
:1049A000BB461C4637460B9E04E0103D102D01F11E
:1049B000080116DD102301321030072ACDE92D2021
:1049C0000C604B60F1DD2CAA3146079804F0A2FA86
:1049D000002840F0AC80DDE92D20103D102D2FA9DE
:1049E000E8DC3E4623465F4604468B4601322C44B3
:1049F000072ACDE92D24CBE9003500F36E830BF1B6
:104A0000080B9CE42CAA0B99079804F083FA002861
:104A10003FF42EADDDF82C90109911B1079805F0F8
:104A200057FBD9F86420B9F80C30D00702D49905A7
:104A300040F10E825A063FF575AB099859B0BDE8B2
:104A4000F08F1D9858AF230943EA0573290904F034
:104A50000F020D461C46835C07F8013D54EA05032E
:104A6000F1D1089BDB1B0D93FFF7E9BB621C0D9294
:104A7000149A2D9B012A03F101050BF1080640F35E
:104A8000528101230D9A072DCBF80070CDE92D52EC
:104A9000CBF8043000F3E381189B0D9901351A9A85
:104AA0001944072D0D91CDE92D51C6E9002300F3DE
:104AB000E78108366C1C11940E94149C1B9A19986B
:104AC0001C9B179904F1FF3906F1080B04F094FFC1
:104AD000002840F0FA800D9B0E9C4B440137072CB8
:104AE0000D9337602E93C6F804902D9400F30F8336
:104AF00006F110035E469B46AA1C0E921F9A0D9962
:104B0000726011440E9A28AB072A0C462E912D9202
:104B100033607FF763AC2CAA0B99079804F0FAF97D
:104B200000287FF477AF0DF1BC0B2E9C56E4B14604
:104B300072E72CAA0B99079804F0ECF900287FF48F
:104B400069AF0DF1BC0B2E9CFFF7E5BB2CAA0B99AE
:104B5000079804F0DFF900287FF45CAF0DF1BC0B7F
:104B60002E9CFFF7E8BB00BF44B9000058B9000015
:104B700001202D9AC04902440444072ACDE92D247E
:104B8000CBE9001040F3E3822CAA0B99079804F0BC
:104B9000C1F900287FF43EAF269B2E9C0DF1BC0B83
:104BA0002BB9149A1AB918F0010F3FF417AC2D9ACB
:104BB000189901321A980C44072A2E94CBE9000167
:104BC0002D9200F30A850BF1080B002BC0F29285A1
:104BD000149B01321C44072ACDE92D24CBE9007334
:104BE0007FF7FAAB2CAA0B99079804F093F90028E9
:104BF0007FF410AF2E9C0DF1BC0BFFF7EFBB984676
:104C0000002D08BF0A2C80F06381012358AF303497
:104C100007F8014D0D93FFF712BB2CAA0B990798CB
:104C200004F078F900287FF4F5AE0DF1BC0B2E9C52
:104C3000FFF7C3BB269B002B9ADDDDE914239342CB
:104C4000A8BF1346002B1D460BDD2D9B2C440133C2
:104C5000072B2E94CBE900752D9300F39E820BF168
:104C6000080B159B002DA8BF5B1B002B1D4640F3B6
:104C70008D80102B2D9A40F38486804B2146184658
:104C800010265B46DDF81C90BB460B9C074603E0F4
:104C90000833103D102D69DD01321031072ACDE9AE
:104CA0002D21C3E90076F3DD2CAA2146484604F005
:104CB00031F9002840F06984DDE92D212FABE8E7C8
:104CC000CDF8349058AFFFF7BABAB9F1000F7FF7BB
:104CD00015AFB9F1100F40F32D86684B1027194618
:104CE0000D9A3346DDF81CB00B9C119D0E4607E073
:104CF0000833A9F11009B9F1100F40F328830135E9
:104D00001032072DCDE92D52C3E90067F0DD2CAA42
:104D10002146584604F0FEF8002840F03684DDE9CC
:104D20002D522FABE5E718F0010F7FF4AAAE012258
:104D30000D99072DCBF80070CDE92D51CBF804204B
:104D400000F3378202330E930BF1100BD6E62CAA38
:104D50000B99079804F0DEF800287FF45BAE0DF1A4
:104D6000BC0B9DF893202E9CFFF7C5BA0C46394624
:104D70005F469B460B4601322C44072ACDE92D2481
:104D8000CBE9003500F39F840BF1080B159B18F459
:104D9000806F3B44994640F02783269B149A9342A8
:104DA00047DB18F0010F44D1149ABD18A5EB090593
:104DB000D31A9D42A8BF1D46002D0BDD2D9A2C4411
:104DC0000132072A2E94CBE900952D9200F36384DB
:104DD0000BF1080B002DB4BF1D465D1B002D7FF7A6
:104DE000FDAA102D2D9A40F37885244B10261946E4
:104DF000079F2346DDF82C900C4605E00BF1080BCD
:104E0000103D102D40F3768101321033072ACDE991
:104E10002D23CBE90046F1DD2CAA4946384604F0A3
:104E200079F800287FF4F8ADDDE92D230DF1BC0BF6
:104E3000E6E72D9A189901321A980C44072A2E9405
:104E4000CBE900012D9200F375820BF1080BABE763
:104E5000D9F85800FEF738FBB9F80C30EAE52CAA6F
:104E60000B99079804F056F800287FF4D3AD2E9BD9
:104E70002FAE0D932D9D0FE644B9000058B90000E8
:104E80002CAA0B99079804F045F800287FF4C2ADCE
:104E90002E9B2FAE0D932D9D0CE6146800250C93D0
:104EA000FFF75DBB146800250C93FFF77BB914680E
:104EB000002501220C91FFF701BB012A7FF40BAB07
:104EC000A3E60C680C92E51720462946FFF790B937
:104ED000002208F48063CDF834A01096CDF8388015
:104EE00058AF9246DDF880801E460AE020462946EB
:104EF00000230A2204F066FF04460D4654EA050327
:104F000029D00A2200232046294604F05BFF3032D4
:104F100007F8012C0AF1010A013F002EE6D098F8AB
:104F200000309A45E2D1BAF1FF0FDFD0002D08BF63
:104F30000A2CDBD3219B1E99FF1A1A46384602F031
:104F400079FA98F80130002B00F0528408F101083A
:104F50004FF0000ACAE7089BCDF88080DB1BCDF834
:104F600050A0109EDDE90DA80D93FFF768B958AF6A
:104F7000FFF765B9C1464FE5199C22462046179CAC
:104F80002346214604F06AFD002840F0AC84612EDF
:104F900000F02081412E00F0918326F0200348F498
:104FA0008072B9F1FF3F08931292179D00F023849D
:104FB000472B00F02484002DC0F2EA82199BCDE932
:104FC00010000D93662E00F0E583462E00F06D84F0
:104FD0000220089B2AA9452B06BF09F101030E9365
:104FE000CDF838900E9C0491CDE9000426A927A89D
:104FF000CDE902100D9A2B46079800F015FF672E99
:10500000074640F0A48418F0010F40F0FE832A9B6D
:105010004046DB1BDDF848801493269B1593089BC4
:10502000472B00F0CB81089B462B00F0EE820899BD
:10503000159BF2B2412908BF0F3203F1FF3306BFBF
:10504000D2B201210021002B8DF8A020B4BF2D2267
:105050002B222693B8BF159B8DF8A120B8BFC3F1B2
:105060000103092B00F3EA83002940F086843022F3
:105070008DF8A2200DF1A30230331370531C28AA1F
:105080009B1A149A1F93012A13440D9340F34D84E5
:105090000D9B189A13440D9300231393CDE91533F8
:1050A0000D9B20F4806023EAE37340F4807808933A
:1050B000119B002B40F0468299469DF89320FFF704
:1050C000CAB818F0100F45D118F0400F00F09482C4
:1050D000099A57461A80FFF7D6B92CAA0B99079858
:1050E00003F018FF00287FF495AC0DF1BC0B2E9C4B
:1050F000FFF725B921461C460B4601322C44072AEE
:10510000CDE92D24CBE900357FF766A96AE52CAA05
:105110000B99079803F0FEFE00287FF47BACDDE9D5
:105120002D3201330D920E930DF1C40B2FAEE5E439
:105130002CAA0B99079803F0EDFE00287FF46AACC7
:105140000DF1BC0BFFF7DDBBA24BFFF72BB90BF149
:10515000080B25E5099A57461A60FFF794B9148899
:1051600000250C93FFF71EB8148800250C93FFF759
:10517000F6B9B1F900400C92E51720462946FFF731
:1051800037B81488002501220C91FFF797B92D2319
:105190001A468DF89330FFF727BA2CAA0B99079877
:1051A00003F0B8FE00287FF435AC0DF1BC0B2E9C4B
:1051B00057E52CAA0B99079803F0ACFE00287FF462
:1051C00029ACDDE92D3201332FAE0D920E930DF196
:1051D000C40B93E430238DF894307823B9F1630F36
:1051E0008DF8953048F0020400F3C18248F48173D1
:1051F000129326F0200308930023A046179D1093D6
:105200003FAF002DC0F2C581199B179D0D93002360
:105210001193612E00F09582412E7FF4D3AE26AA21
:105220000D98294602F0D4F800224FF07F5304F085
:105230007BF9DDE91B23CDE90E0104F0DDFB00283D
:1052400040F0E782644B0D93CDE913A609F1FF35D9
:10525000CDE915B92397B946DDE90E67CDF8888009
:10526000DDF834A005E0DDE91B2304F0C5FBF8B947
:10527000A1460022594B3046394604F055F90F46F5
:10528000064604F001FC804604F0E4F80B460246B2
:105290003946304603F090FF4C461AF808C06B1CA4
:1052A000AB4606460F4604F801CB05F1FF35DAD1CF
:1052B0003046394600224A4BDDF84CA0149E454644
:1052C000CDF85090CDF84CB0DDF88880DDF85890DE
:1052D000DDF854B0239FCDE90E0104F0B5FB0028A2
:1052E00040F05F81DDE90E0100223D4B04F084FBBC
:1052F00010B1EA0700F15581139B002B07DB302228
:10530000139B0133234404F8012BA342FBD1E31B7D
:1053100040461493DDF848807FE6CDF82090CDF824
:1053200034900C9481461390CDE915009DF893209C
:10533000FEF791BF2CAA0B99079803F0EBFD00280C
:105340007FF468AB0DF1BC0B269B2E9C2CE50D92D7
:1053500032461E4613466A1C0E9206F108020D994B
:10536000C6E900390E9B4944072B0D912E912D93D0
:105370003FF7CDAE01330E9302F1080B1646FFF74F
:10538000BDBB2CAA0B99079803F0C4FD00287FF43D
:1053900041AB0DF1BC0B2E9CFFF7CABA4B46062B56
:1053A00028BF0623B9461397CDE9157710973A46DB
:1053B0000893CDE90C430B4FFEF74DBF159BDA1C4C
:1053C00002DB994580F2C580023E26F02003089357
:1053D0002DE600BF58B9000028B900000000304099
:1053E0000000E03F3CB900002146149BCDF838A0F6
:1053F000FB181297B04E4F46DDF82CA0DDF81C903C
:105400000D935A46CDF84480DDE9208B169B002B86
:105410005AD0139B002B53D1169B08F1FF38013B48
:1054200016932D9B1E9801335944072B2E91C2E9E8
:10543000000B2D9368DC08320D9898F80030C51BDE
:105440009D42A8BF1D46002D0BDD2D9B2944013335
:10545000072B2E91C2E900752D935EDC98F8003081
:105460000832002DB4BF1D465D1B002D26DD102D1A
:105470002D983CDD102403E00832103D102D36DD60
:10548000013010310728CDE92D01C2E90064F3DDB8
:105490002CAA5146484603F03DFD00284FD1DDE9D6
:1054A0002D012FAAE9E72CAA5146484603F032FD08
:1054B000002844D198F800302E992FAA1F44A5E760
:1054C000139B013B1393ACE7139B002BF8D1B94618
:1054D000149B129FCDF88080FB189945DDF838A009
:1054E0009346DDF844800C4628BF994655E40130C8
:1054F00029440728CDE92D01C2E90065D3DC98F8DD
:10550000003008321F4481E72CAA5146484603F078
:1055100001FDA0B92FAA2E998EE72CAA5146484624
:1055200003F0F8FC58B92FAA98F800302E9998E7A4
:105530003846FEF777FCA9460346FFF7EDB8D1469B
:10554000FFF76ABA2D224FF000098DF89320FEF77D
:1055500083BE149B1946159B994200F39280C407A1
:1055600040F19A81189A13440D93410540F18380CC
:10557000159B002B00F32A8267260D9B23EAE37319
:10558000089300231393169392E5A146FFF744BABC
:105590001090199B0D93179B03F100452D23119338
:1055A00037E6149B2A930D9B14F8012CD97B2346D4
:1055B000914209D1302003F8010C2A9B5A1E2A92ED
:1055C00013F8012C9142F6D0392A0BBF0D9A013203
:1055D000927AD2B203F8012C99E62CAA0B9907987B
:1055E00003F098FC00287FF415AADDE92D240DF1C5
:1055F000BC0B269BFFF7E9BA18F4007F3FF4AAAD75
:10560000099A57461A70FEF73EBF159B002B40F3D0
:105610009481159BB9F1000F40F04181C60700F15C
:105620003E8166260D93430526D5002320981393CB
:105630001693159A0378FF2B0BD0934209DA417821
:10564000D21AA1B1169B0130013316930B46FF2BE2
:10565000F3D11592169B139A0D991344219A209019
:1056600002FB03130D9323EAE373089320E51399D8
:1056700001311391DFE767260D9B23EAE37308935B
:105680007FE7149B189A13440D93159B002B40F34E
:105690003D816726C7E72CAA0B99079803F03AFCCF
:1056A00000287FF4B7A9269B149A0DF1BC0B2E9C01
:1056B000D31AFFF78FBB00BF58B900003022582320
:1056C0008DF894208AE52CAA0B99079803F022FC08
:1056D00000287FF49FA90DF1BC0B2E9CFFF756BB51
:1056E00007982CAA494603F015FC00287FF499A9D5
:1056F000FEF7D3BE5D42103380F26E81BC4B1026A4
:105700001946DDF81C9023460C4605E00BF1080B0A
:10571000103D102D40F3828001321033072ACDE96D
:105720002D23CBE90046F1DD2CAA0B99484603F066
:10573000F1FB00287FF46EA9DDE92D230DF1BC0BF0
:10574000E6E726AA0D98294601F042FE00224FF016
:105750007F5303F0E9FEDDE91B23CDE90E0104F0E0
:105760004BF908B101232693A24B0D936CE509F187
:105770000101079804F0A8FC0746002800F02E81DC
:1057800048F48173129326F020030893A046179DD6
:10579000109036E503202AA9CDE90009049127A835
:1057A00026A9CDE902100D9A2B46079800F03CFB84
:1057B0000746CDF8389000EB09043B78302B00F019
:1057C000CE80269B1C441B9A0D981C9B294604F0F6
:1057D00013F908B123461BE42A9BA342BFF418AC7B
:1057E00030215A1C2A9219702A9B9C42F9D80FE446
:1057F0009A46FFF77BBB10904FF0060901E5B9F11F
:10580000000F00F08D801090FBE40E9B3B441C4683
:10581000D9E701232693784B0D9315E521461C46C5
:105820000B4601322C44072ACDE92D24CBE9003563
:1058300000F3BE800BF1080BFFF7CAB90DF1AF0CF6
:1058400064466E4D00E01446A5FB0321C90801EB38
:105850008102A3EB42023032092904F8012C0B46E5
:1058600004F1FF32EFDC3033023CDBB2A44502F836
:10587000013C40F2AD800DF1A204114601E011F8A7
:10588000013B8C4504F8013BF9D12CAB9B1A0DF17F
:10589000A2021344FFF7F3BB159B0D9365E6189A1C
:1058A000662613444B440D93BDE603202AA9CDE997
:1058B0000009049127A826A9CDE902100D9A2B46CC
:1058C000079800F0B1FA0746CDF838900E9B462EA7
:1058D00007EB03043FF471AF75E7454B0DE4DDF8CA
:1058E0002C90FFF79EB8179B0320002BB8BF2D23E9
:1058F0004FF00001BABF1A468DF893309DF89320FF
:10590000089010913E4F3F4BFEF774BE0D9AC3F1C5
:1059100001031A4422EAE2730D920893672630E6E7
:10592000CDF840904FF001096BE4C3077FF5B4ABAD
:10593000FFF7AEBB5A462E4B11E5B9F1000F23D14C
:10594000C50721D40123662608930D9319E6472E37
:105950007FF45BAF18F0010F3FF459ABB6E71B9A29
:105960000D981C9B294604F047F800287FF429AFC6
:105970000E9BC3F10103269324E70DF1A202FFF76A
:105980007BBB1B4BFFF7F7B9189B662601334B44D3
:105990000D9323EAE3730893F3E50C999AF80160F9
:1059A0000B68924643EAE3790B1D0C93FEF748BB64
:1059B0002CAA0B99079803F0ADFA00287FF42AA8C7
:1059C000DDE92D240DF1BC0BFFF702B967262CE6AB
:1059D0000DF1A203FFF753BB054B22E7DDF82C9036
:1059E000B9F80C3043F04003A9F80C30FFF719B8B0
:1059F00058B9000014B9000028B90000CDCCCCCCB7
:105A000010B900000CB9000010B4044C13460A464B
:105A10000146206810BCFEF797BA00BFDC010010F9
:105A20002DE9F0410C464FF0000C4FF4806506461E
:105A300017469846626EE3898989ADF58D6D21F030
:105A400002011992ADF80E30E269636AADF80C10EC
:105A500016A81AA9CDF818C00792099300910491CD
:105A600002950595FDF72AFD43463A4669463046BC
:105A7000FEF76AFA051E07DB30466946FDF70EF8A9
:105A8000002818BF4FF0FF35BDF80C305B0603D57A
:105A9000A38943F04003A3811698FDF711FD284622
:105AA0000DF58D6DBDE8F08170B5141E9AB00546F8
:105AB0002ADB1A464FF4027300910491ADF80C30C2
:105AC0004FF6FF7611D0013C1E9B69460294059467
:105AD000ADF80E6001F0E0FC421C01DA8B232B6074
:105AE0000022009B1A701AB070BD1E9B694602947A
:105AF0000594ADF80E6001F0CFFC431C01DB1AB039
:105B000070BD8B232B60FAE78B234FF0FF302B60A7
:105B1000F5E700BF10B5064C82B000932468134629
:105B20000A4601462046FFF7BFFF02B010BD00BF86
:105B3000DC010010F8B50D461446064610B1836B23
:105B4000002B43D0B4F90C20A36991B20807A360DD
:105B50001BD52369CBB1EDB289042F4622D522682B
:105B60006169D31A994229DD0133A168501C0139BA
:105B7000A1602060157062699A422AD0A389DB0770
:105B800001D50A2D25D03846F8BD2146304600F013
:105B90003FF820BBB4F90C20EDB291B2890423691F
:105BA0002F46DCD4616E42F4005221F40051A281F0
:105BB000226861666169D31A9942D5DC2146304674
:105BC000FCF76CFF58B901232268CEE7FCF7ECFF25
:105BD000B8E721463046FCF761FF0028D3D04FF0EC
:105BE000FF37D0E7F8B50E460025084C11460746AA
:105BF0001A4630462560FAF775FF431C00D0F8BD01
:105C00002368002BFBD03B60F8BD00BF480F00109D
:105C100038B5314B054618680C4610B1836B002B24
:105C20003AD0B4F90C2093B218070CD52069A8B16A
:105C300013F0010220D000226369A2605B42A361DD
:105C400000B3002038BDD9063DD5580727D42069B8
:105C500042F00803A3819BB20028E9D103F420722B
:105C6000B2F5007FE4D028462146FDF75DFCA3890C
:105C7000206913F00102DED1990758BF6269A26062
:105C80000028DED1B4F90C301A06DBD543F040030E
:105C9000A3814FF0FF3038BDFCF786FFC1E7216BD1
:105CA00051B104F14003994204D0284604F010FA9F
:105CB000B4F90C20002323630023206922F024027E
